{
  "address": "0x9fE46736679d2D9a65F0992F2272dE9f3c7fa6e0",
  "abi": [
    {
      "inputs": [
        {
          "internalType": "address",
          "name": "_creatorMgmtAddress",
          "type": "address"
        }
      ],
      "stateMutability": "nonpayable",
      "type": "constructor"
    },
    {
      "anonymous": false,
      "inputs": [
        {
          "indexed": true,
          "internalType": "address",
          "name": "owner",
          "type": "address"
        },
        {
          "indexed": true,
          "internalType": "address",
          "name": "approved",
          "type": "address"
        },
        {
          "indexed": true,
          "internalType": "uint256",
          "name": "tokenId",
          "type": "uint256"
        }
      ],
      "name": "Approval",
      "type": "event"
    },
    {
      "anonymous": false,
      "inputs": [
        {
          "indexed": true,
          "internalType": "address",
          "name": "owner",
          "type": "address"
        },
        {
          "indexed": true,
          "internalType": "address",
          "name": "operator",
          "type": "address"
        },
        {
          "indexed": false,
          "internalType": "bool",
          "name": "approved",
          "type": "bool"
        }
      ],
      "name": "ApprovalForAll",
      "type": "event"
    },
    {
      "anonymous": false,
      "inputs": [
        {
          "indexed": true,
          "internalType": "address",
          "name": "donator",
          "type": "address"
        },
        {
          "indexed": false,
          "internalType": "uint256",
          "name": "tokenId",
          "type": "uint256"
        }
      ],
      "name": "MintCollectible",
      "type": "event"
    },
    {
      "anonymous": false,
      "inputs": [
        {
          "indexed": true,
          "internalType": "address",
          "name": "from",
          "type": "address"
        },
        {
          "indexed": true,
          "internalType": "address",
          "name": "to",
          "type": "address"
        },
        {
          "indexed": true,
          "internalType": "uint256",
          "name": "tokenId",
          "type": "uint256"
        }
      ],
      "name": "Transfer",
      "type": "event"
    },
    {
      "inputs": [
        {
          "internalType": "address",
          "name": "to",
          "type": "address"
        },
        {
          "internalType": "uint256",
          "name": "tokenId",
          "type": "uint256"
        }
      ],
      "name": "approve",
      "outputs": [],
      "stateMutability": "nonpayable",
      "type": "function"
    },
    {
      "inputs": [
        {
          "internalType": "address",
          "name": "owner",
          "type": "address"
        }
      ],
      "name": "balanceOf",
      "outputs": [
        {
          "internalType": "uint256",
          "name": "",
          "type": "uint256"
        }
      ],
      "stateMutability": "view",
      "type": "function"
    },
    {
      "inputs": [
        {
          "internalType": "uint256",
          "name": "tokenId",
          "type": "uint256"
        }
      ],
      "name": "getApproved",
      "outputs": [
        {
          "internalType": "address",
          "name": "",
          "type": "address"
        }
      ],
      "stateMutability": "view",
      "type": "function"
    },
    {
      "inputs": [
        {
          "internalType": "address",
          "name": "owner",
          "type": "address"
        },
        {
          "internalType": "address",
          "name": "operator",
          "type": "address"
        }
      ],
      "name": "isApprovedForAll",
      "outputs": [
        {
          "internalType": "bool",
          "name": "",
          "type": "bool"
        }
      ],
      "stateMutability": "view",
      "type": "function"
    },
    {
      "inputs": [
        {
          "internalType": "string",
          "name": "tokenURI",
          "type": "string"
        }
      ],
      "name": "mintToken",
      "outputs": [
        {
          "internalType": "uint256",
          "name": "",
          "type": "uint256"
        }
      ],
      "stateMutability": "nonpayable",
      "type": "function"
    },
    {
      "inputs": [],
      "name": "name",
      "outputs": [
        {
          "internalType": "string",
          "name": "",
          "type": "string"
        }
      ],
      "stateMutability": "view",
      "type": "function"
    },
    {
      "inputs": [
        {
          "internalType": "uint256",
          "name": "tokenId",
          "type": "uint256"
        }
      ],
      "name": "ownerOf",
      "outputs": [
        {
          "internalType": "address",
          "name": "",
          "type": "address"
        }
      ],
      "stateMutability": "view",
      "type": "function"
    },
    {
      "inputs": [
        {
          "internalType": "address",
          "name": "from",
          "type": "address"
        },
        {
          "internalType": "address",
          "name": "to",
          "type": "address"
        },
        {
          "internalType": "uint256",
          "name": "tokenId",
          "type": "uint256"
        }
      ],
      "name": "safeTransferFrom",
      "outputs": [],
      "stateMutability": "nonpayable",
      "type": "function"
    },
    {
      "inputs": [
        {
          "internalType": "address",
          "name": "from",
          "type": "address"
        },
        {
          "internalType": "address",
          "name": "to",
          "type": "address"
        },
        {
          "internalType": "uint256",
          "name": "tokenId",
          "type": "uint256"
        },
        {
          "internalType": "bytes",
          "name": "data",
          "type": "bytes"
        }
      ],
      "name": "safeTransferFrom",
      "outputs": [],
      "stateMutability": "nonpayable",
      "type": "function"
    },
    {
      "inputs": [
        {
          "internalType": "address",
          "name": "operator",
          "type": "address"
        },
        {
          "internalType": "bool",
          "name": "approved",
          "type": "bool"
        }
      ],
      "name": "setApprovalForAll",
      "outputs": [],
      "stateMutability": "nonpayable",
      "type": "function"
    },
    {
      "inputs": [
        {
          "internalType": "bytes4",
          "name": "interfaceId",
          "type": "bytes4"
        }
      ],
      "name": "supportsInterface",
      "outputs": [
        {
          "internalType": "bool",
          "name": "",
          "type": "bool"
        }
      ],
      "stateMutability": "view",
      "type": "function"
    },
    {
      "inputs": [],
      "name": "symbol",
      "outputs": [
        {
          "internalType": "string",
          "name": "",
          "type": "string"
        }
      ],
      "stateMutability": "view",
      "type": "function"
    },
    {
      "inputs": [
        {
          "internalType": "uint256",
          "name": "tokenId",
          "type": "uint256"
        }
      ],
      "name": "tokenURI",
      "outputs": [
        {
          "internalType": "string",
          "name": "",
          "type": "string"
        }
      ],
      "stateMutability": "view",
      "type": "function"
    },
    {
      "inputs": [
        {
          "internalType": "address",
          "name": "from",
          "type": "address"
        },
        {
          "internalType": "address",
          "name": "to",
          "type": "address"
        },
        {
          "internalType": "uint256",
          "name": "tokenId",
          "type": "uint256"
        }
      ],
      "name": "transferFrom",
      "outputs": [],
      "stateMutability": "nonpayable",
      "type": "function"
    }
  ],
  "transactionHash": "0xf260fe9aea1d12d59791dc0e91672a5c1208e100a9ad2578ade29e0d7614569d",
  "args": [
    "0x5FbDB2315678afecb367f032d93F642f64180aa3"
  ],
  "numDeployments": 1,
  "solcInputHash": "8a53f338f2dc2764cb13fe5daa3f2da1",
  "bytecode": "0x60806040523480156200001157600080fd5b5060405162002f9738038062002f97833981810160405281019062000037919062000183565b6040518060400160405280601081526020017f436f6c6c65637469626c652043697269000000000000000000000000000000008152506040518060400160405280600581526020017f43697269730000000000000000000000000000000000000000000000000000008152508160009081620000b491906200042f565b508060019081620000c691906200042f565b505050600160078190555080600960006101000a81548173ffffffffffffffffffffffffffffffffffffffff021916908373ffffffffffffffffffffffffffffffffffffffff1602179055505062000516565b600080fd5b600073ffffffffffffffffffffffffffffffffffffffff82169050919050565b60006200014b826200011e565b9050919050565b6200015d816200013e565b81146200016957600080fd5b50565b6000815190506200017d8162000152565b92915050565b6000602082840312156200019c576200019b62000119565b5b6000620001ac848285016200016c565b91505092915050565b600081519050919050565b7f4e487b7100000000000000000000000000000000000000000000000000000000600052604160045260246000fd5b7f4e487b7100000000000000000000000000000000000000000000000000000000600052602260045260246000fd5b600060028204905060018216806200023757607f821691505b6020821081036200024d576200024c620001ef565b5b50919050565b60008190508160005260206000209050919050565b60006020601f8301049050919050565b600082821b905092915050565b600060088302620002b77fffffffffffffffffffffffffffffffffffffffffffffffffffffffffffffffff8262000278565b620002c3868362000278565b95508019841693508086168417925050509392505050565b6000819050919050565b6000819050919050565b6000620003106200030a6200030484620002db565b620002e5565b620002db565b9050919050565b6000819050919050565b6200032c83620002ef565b620003446200033b8262000317565b84845462000285565b825550505050565b600090565b6200035b6200034c565b6200036881848462000321565b505050565b5b8181101562000390576200038460008262000351565b6001810190506200036e565b5050565b601f821115620003df57620003a98162000253565b620003b48462000268565b81016020851015620003c4578190505b620003dc620003d38562000268565b8301826200036d565b50505b505050565b600082821c905092915050565b60006200040460001984600802620003e4565b1980831691505092915050565b60006200041f8383620003f1565b9150826002028217905092915050565b6200043a82620001b5565b67ffffffffffffffff811115620004565762000455620001c0565b5b6200046282546200021e565b6200046f82828562000394565b600060209050601f831160018114620004a7576000841562000492578287015190505b6200049e858262000411565b8655506200050e565b601f198416620004b78662000253565b60005b82811015620004e157848901518255600182019150602085019450602081019050620004ba565b86831015620005015784890151620004fd601f891682620003f1565b8355505b6001600288020188555050505b505050505050565b612a7180620005266000396000f3fe608060405234801561001057600080fd5b50600436106100ea5760003560e01c80636352211e1161008c578063a22cb46511610066578063a22cb4651461026f578063b88d4fde1461028b578063c87b56dd146102a7578063e985e9c5146102d7576100ea565b80636352211e146101f157806370a082311461022157806395d89b4114610251576100ea565b8063095ea7b3116100c8578063095ea7b31461016d57806323b872dd1461018957806333eba49a146101a557806342842e0e146101d5576100ea565b806301ffc9a7146100ef57806306fdde031461011f578063081812fc1461013d575b600080fd5b61010960048036038101906101049190611803565b610307565b604051610116919061184b565b60405180910390f35b6101276103e9565b60405161013491906118f6565b60405180910390f35b6101576004803603810190610152919061194e565b61047b565b60405161016491906119bc565b60405180910390f35b61018760048036038101906101829190611a03565b6104c1565b005b6101a3600480360381019061019e9190611a43565b6105d8565b005b6101bf60048036038101906101ba9190611bcb565b610638565b6040516101cc9190611c23565b60405180910390f35b6101ef60048036038101906101ea9190611a43565b6106bd565b005b61020b6004803603810190610206919061194e565b6106dd565b60405161021891906119bc565b60405180910390f35b61023b60048036038101906102369190611c3e565b61078e565b6040516102489190611c23565b60405180910390f35b610259610845565b60405161026691906118f6565b60405180910390f35b61028960048036038101906102849190611c97565b6108d7565b005b6102a560048036038101906102a09190611d78565b6108ed565b005b6102c160048036038101906102bc919061194e565b61094f565b6040516102ce91906118f6565b60405180910390f35b6102f160048036038101906102ec9190611dfb565b610a61565b6040516102fe919061184b565b60405180910390f35b60007f80ac58cd000000000000000000000000000000000000000000000000000000007bffffffffffffffffffffffffffffffffffffffffffffffffffffffff1916827bffffffffffffffffffffffffffffffffffffffffffffffffffffffff191614806103d257507f5b5e139f000000000000000000000000000000000000000000000000000000007bffffffffffffffffffffffffffffffffffffffffffffffffffffffff1916827bffffffffffffffffffffffffffffffffffffffffffffffffffffffff1916145b806103e257506103e182610af5565b5b9050919050565b6060600080546103f890611e6a565b80601f016020809104026020016040519081016040528092919081815260200182805461042490611e6a565b80156104715780601f1061044657610100808354040283529160200191610471565b820191906000526020600020905b81548152906001019060200180831161045457829003601f168201915b5050505050905090565b600061048682610b5f565b6004600083815260200190815260200160002060009054906101000a900473ffffffffffffffffffffffffffffffffffffffff169050919050565b60006104cc826106dd565b90508073ffffffffffffffffffffffffffffffffffffffff168373ffffffffffffffffffffffffffffffffffffffff160361053c576040517f08c379a000000000000000000000000000000000000000000000000000000000815260040161053390611f0d565b60405180910390fd5b8073ffffffffffffffffffffffffffffffffffffffff1661055b610baa565b73ffffffffffffffffffffffffffffffffffffffff16148061058a575061058981610584610baa565b610a61565b5b6105c9576040517f08c379a00000000000000000000000000000000000000000000000000000000081526004016105c090611f9f565b60405180910390fd5b6105d38383610bb2565b505050565b6105e96105e3610baa565b82610c6b565b610628576040517f08c379a000000000000000000000000000000000000000000000000000000000815260040161061f90612031565b60405180910390fd5b610633838383610d00565b505050565b60006106446008610f66565b60006106506008610f7c565b905061065c3382610f8a565b6106668184611163565b3373ffffffffffffffffffffffffffffffffffffffff167f7b98dfe4730a9bcc2a39d7fd67be2cb140c71a37cd29e253137de8591e7bd45b826040516106ac9190611c23565b60405180910390a280915050919050565b6106d8838383604051806020016040528060008152506108ed565b505050565b6000806002600084815260200190815260200160002060009054906101000a900473ffffffffffffffffffffffffffffffffffffffff169050600073ffffffffffffffffffffffffffffffffffffffff168173ffffffffffffffffffffffffffffffffffffffff1603610785576040517f08c379a000000000000000000000000000000000000000000000000000000000815260040161077c9061209d565b60405180910390fd5b80915050919050565b60008073ffffffffffffffffffffffffffffffffffffffff168273ffffffffffffffffffffffffffffffffffffffff16036107fe576040517f08c379a00000000000000000000000000000000000000000000000000000000081526004016107f59061212f565b60405180910390fd5b600360008373ffffffffffffffffffffffffffffffffffffffff1673ffffffffffffffffffffffffffffffffffffffff168152602001908152602001600020549050919050565b60606001805461085490611e6a565b80601f016020809104026020016040519081016040528092919081815260200182805461088090611e6a565b80156108cd5780601f106108a2576101008083540402835291602001916108cd565b820191906000526020600020905b8154815290600101906020018083116108b057829003601f168201915b5050505050905090565b6108e96108e2610baa565b83836111d0565b5050565b6108fe6108f8610baa565b83610c6b565b61093d576040517f08c379a000000000000000000000000000000000000000000000000000000000815260040161093490612031565b60405180910390fd5b6109498484848461133c565b50505050565b606061095a82610b5f565b600060066000848152602001908152602001600020805461097a90611e6a565b80601f01602080910402602001604051908101604052809291908181526020018280546109a690611e6a565b80156109f35780601f106109c8576101008083540402835291602001916109f3565b820191906000526020600020905b8154815290600101906020018083116109d657829003601f168201915b505050505090506000610a04611398565b90506000815103610a19578192505050610a5c565b600082511115610a4e578082604051602001610a3692919061218b565b60405160208183030381529060405292505050610a5c565b610a57846113af565b925050505b919050565b6000600560008473ffffffffffffffffffffffffffffffffffffffff1673ffffffffffffffffffffffffffffffffffffffff16815260200190815260200160002060008373ffffffffffffffffffffffffffffffffffffffff1673ffffffffffffffffffffffffffffffffffffffff16815260200190815260200160002060009054906101000a900460ff16905092915050565b60007f01ffc9a7000000000000000000000000000000000000000000000000000000007bffffffffffffffffffffffffffffffffffffffffffffffffffffffff1916827bffffffffffffffffffffffffffffffffffffffffffffffffffffffff1916149050919050565b610b6881611417565b610ba7576040517f08c379a0000000000000000000000000000000000000000000000000000000008152600401610b9e9061209d565b60405180910390fd5b50565b600033905090565b816004600083815260200190815260200160002060006101000a81548173ffffffffffffffffffffffffffffffffffffffff021916908373ffffffffffffffffffffffffffffffffffffffff160217905550808273ffffffffffffffffffffffffffffffffffffffff16610c25836106dd565b73ffffffffffffffffffffffffffffffffffffffff167f8c5be1e5ebec7d5bd14f71427d1e84f3dd0314c0f7b2291e5b200ac8c7c3b92560405160405180910390a45050565b600080610c77836106dd565b90508073ffffffffffffffffffffffffffffffffffffffff168473ffffffffffffffffffffffffffffffffffffffff161480610cb95750610cb88185610a61565b5b80610cf757508373ffffffffffffffffffffffffffffffffffffffff16610cdf8461047b565b73ffffffffffffffffffffffffffffffffffffffff16145b91505092915050565b8273ffffffffffffffffffffffffffffffffffffffff16610d20826106dd565b73ffffffffffffffffffffffffffffffffffffffff1614610d76576040517f08c379a0000000000000000000000000000000000000000000000000000000008152600401610d6d90612221565b60405180910390fd5b600073ffffffffffffffffffffffffffffffffffffffff168273ffffffffffffffffffffffffffffffffffffffff1603610de5576040517f08c379a0000000000000000000000000000000000000000000000000000000008152600401610ddc906122b3565b60405180910390fd5b610df0838383611483565b610dfb600082610bb2565b6001600360008573ffffffffffffffffffffffffffffffffffffffff1673ffffffffffffffffffffffffffffffffffffffff1681526020019081526020016000206000828254610e4b9190612302565b925050819055506001600360008473ffffffffffffffffffffffffffffffffffffffff1673ffffffffffffffffffffffffffffffffffffffff1681526020019081526020016000206000828254610ea29190612336565b92505081905550816002600083815260200190815260200160002060006101000a81548173ffffffffffffffffffffffffffffffffffffffff021916908373ffffffffffffffffffffffffffffffffffffffff160217905550808273ffffffffffffffffffffffffffffffffffffffff168473ffffffffffffffffffffffffffffffffffffffff167fddf252ad1be2c89b69c2b068fc378daa952ba7f163c4a11628f55a4df523b3ef60405160405180910390a4610f61838383611488565b505050565b6001816000016000828254019250508190555050565b600081600001549050919050565b600073ffffffffffffffffffffffffffffffffffffffff168273ffffffffffffffffffffffffffffffffffffffff1603610ff9576040517f08c379a0000000000000000000000000000000000000000000000000000000008152600401610ff0906123b6565b60405180910390fd5b61100281611417565b15611042576040517f08c379a000000000000000000000000000000000000000000000000000000000815260040161103990612422565b60405180910390fd5b61104e60008383611483565b6001600360008473ffffffffffffffffffffffffffffffffffffffff1673ffffffffffffffffffffffffffffffffffffffff168152602001908152602001600020600082825461109e9190612336565b92505081905550816002600083815260200190815260200160002060006101000a81548173ffffffffffffffffffffffffffffffffffffffff021916908373ffffffffffffffffffffffffffffffffffffffff160217905550808273ffffffffffffffffffffffffffffffffffffffff16600073ffffffffffffffffffffffffffffffffffffffff167fddf252ad1be2c89b69c2b068fc378daa952ba7f163c4a11628f55a4df523b3ef60405160405180910390a461115f60008383611488565b5050565b61116c82611417565b6111ab576040517f08c379a00000000000000000000000000000000000000000000000000000000081526004016111a2906124b4565b60405180910390fd5b806006600084815260200190815260200160002090816111cb9190612680565b505050565b8173ffffffffffffffffffffffffffffffffffffffff168373ffffffffffffffffffffffffffffffffffffffff160361123e576040517f08c379a00000000000000000000000000000000000000000000000000000000081526004016112359061279e565b60405180910390fd5b80600560008573ffffffffffffffffffffffffffffffffffffffff1673ffffffffffffffffffffffffffffffffffffffff16815260200190815260200160002060008473ffffffffffffffffffffffffffffffffffffffff1673ffffffffffffffffffffffffffffffffffffffff16815260200190815260200160002060006101000a81548160ff0219169083151502179055508173ffffffffffffffffffffffffffffffffffffffff168373ffffffffffffffffffffffffffffffffffffffff167f17307eab39ab6107e8899845ad3d59bd9653f200f220920489ca2b5937696c318360405161132f919061184b565b60405180910390a3505050565b611347848484610d00565b6113538484848461148d565b611392576040517f08c379a000000000000000000000000000000000000000000000000000000000815260040161138990612830565b60405180910390fd5b50505050565b606060405180602001604052806000815250905090565b60606113ba82610b5f565b60006113c4611398565b905060008151116113e4576040518060200160405280600081525061140f565b806113ee84611614565b6040516020016113ff92919061218b565b6040516020818303038152906040525b915050919050565b60008073ffffffffffffffffffffffffffffffffffffffff166002600084815260200190815260200160002060009054906101000a900473ffffffffffffffffffffffffffffffffffffffff1673ffffffffffffffffffffffffffffffffffffffff1614159050919050565b505050565b505050565b60006114ae8473ffffffffffffffffffffffffffffffffffffffff16611774565b15611607578373ffffffffffffffffffffffffffffffffffffffff1663150b7a026114d7610baa565b8786866040518563ffffffff1660e01b81526004016114f994939291906128a5565b6020604051808303816000875af192505050801561153557506040513d601f19601f820116820180604052508101906115329190612906565b60015b6115b7573d8060008114611565576040519150601f19603f3d011682016040523d82523d6000602084013e61156a565b606091505b5060008151036115af576040517f08c379a00000000000000000000000000000000000000000000000000000000081526004016115a690612830565b60405180910390fd5b805181602001fd5b63150b7a0260e01b7bffffffffffffffffffffffffffffffffffffffffffffffffffffffff1916817bffffffffffffffffffffffffffffffffffffffffffffffffffffffff19161491505061160c565b600190505b949350505050565b60606000820361165b576040518060400160405280600181526020017f3000000000000000000000000000000000000000000000000000000000000000815250905061176f565b600082905060005b6000821461168d57808061167690612933565b915050600a8261168691906129aa565b9150611663565b60008167ffffffffffffffff8111156116a9576116a8611aa0565b5b6040519080825280601f01601f1916602001820160405280156116db5781602001600182028036833780820191505090505b5090505b60008514611768576001826116f49190612302565b9150600a8561170391906129db565b603061170f9190612336565b60f81b81838151811061172557611724612a0c565b5b60200101907effffffffffffffffffffffffffffffffffffffffffffffffffffffffffffff1916908160001a905350600a8561176191906129aa565b94506116df565b8093505050505b919050565b6000808273ffffffffffffffffffffffffffffffffffffffff163b119050919050565b6000604051905090565b600080fd5b600080fd5b60007fffffffff0000000000000000000000000000000000000000000000000000000082169050919050565b6117e0816117ab565b81146117eb57600080fd5b50565b6000813590506117fd816117d7565b92915050565b600060208284031215611819576118186117a1565b5b6000611827848285016117ee565b91505092915050565b60008115159050919050565b61184581611830565b82525050565b6000602082019050611860600083018461183c565b92915050565b600081519050919050565b600082825260208201905092915050565b60005b838110156118a0578082015181840152602081019050611885565b60008484015250505050565b6000601f19601f8301169050919050565b60006118c882611866565b6118d28185611871565b93506118e2818560208601611882565b6118eb816118ac565b840191505092915050565b6000602082019050818103600083015261191081846118bd565b905092915050565b6000819050919050565b61192b81611918565b811461193657600080fd5b50565b60008135905061194881611922565b92915050565b600060208284031215611964576119636117a1565b5b600061197284828501611939565b91505092915050565b600073ffffffffffffffffffffffffffffffffffffffff82169050919050565b60006119a68261197b565b9050919050565b6119b68161199b565b82525050565b60006020820190506119d160008301846119ad565b92915050565b6119e08161199b565b81146119eb57600080fd5b50565b6000813590506119fd816119d7565b92915050565b60008060408385031215611a1a57611a196117a1565b5b6000611a28858286016119ee565b9250506020611a3985828601611939565b9150509250929050565b600080600060608486031215611a5c57611a5b6117a1565b5b6000611a6a868287016119ee565b9350506020611a7b868287016119ee565b9250506040611a8c86828701611939565b9150509250925092565b600080fd5b600080fd5b7f4e487b7100000000000000000000000000000000000000000000000000000000600052604160045260246000fd5b611ad8826118ac565b810181811067ffffffffffffffff82111715611af757611af6611aa0565b5b80604052505050565b6000611b0a611797565b9050611b168282611acf565b919050565b600067ffffffffffffffff821115611b3657611b35611aa0565b5b611b3f826118ac565b9050602081019050919050565b82818337600083830152505050565b6000611b6e611b6984611b1b565b611b00565b905082815260208101848484011115611b8a57611b89611a9b565b5b611b95848285611b4c565b509392505050565b600082601f830112611bb257611bb1611a96565b5b8135611bc2848260208601611b5b565b91505092915050565b600060208284031215611be157611be06117a1565b5b600082013567ffffffffffffffff811115611bff57611bfe6117a6565b5b611c0b84828501611b9d565b91505092915050565b611c1d81611918565b82525050565b6000602082019050611c386000830184611c14565b92915050565b600060208284031215611c5457611c536117a1565b5b6000611c62848285016119ee565b91505092915050565b611c7481611830565b8114611c7f57600080fd5b50565b600081359050611c9181611c6b565b92915050565b60008060408385031215611cae57611cad6117a1565b5b6000611cbc858286016119ee565b9250506020611ccd85828601611c82565b9150509250929050565b600067ffffffffffffffff821115611cf257611cf1611aa0565b5b611cfb826118ac565b9050602081019050919050565b6000611d1b611d1684611cd7565b611b00565b905082815260208101848484011115611d3757611d36611a9b565b5b611d42848285611b4c565b509392505050565b600082601f830112611d5f57611d5e611a96565b5b8135611d6f848260208601611d08565b91505092915050565b60008060008060808587031215611d9257611d916117a1565b5b6000611da0878288016119ee565b9450506020611db1878288016119ee565b9350506040611dc287828801611939565b925050606085013567ffffffffffffffff811115611de357611de26117a6565b5b611def87828801611d4a565b91505092959194509250565b60008060408385031215611e1257611e116117a1565b5b6000611e20858286016119ee565b9250506020611e31858286016119ee565b9150509250929050565b7f4e487b7100000000000000000000000000000000000000000000000000000000600052602260045260246000fd5b60006002820490506001821680611e8257607f821691505b602082108103611e9557611e94611e3b565b5b50919050565b7f4552433732313a20617070726f76616c20746f2063757272656e74206f776e6560008201527f7200000000000000000000000000000000000000000000000000000000000000602082015250565b6000611ef7602183611871565b9150611f0282611e9b565b604082019050919050565b60006020820190508181036000830152611f2681611eea565b9050919050565b7f4552433732313a20617070726f76652063616c6c6572206973206e6f7420746f60008201527f6b656e206f776e6572206e6f7220617070726f76656420666f7220616c6c0000602082015250565b6000611f89603e83611871565b9150611f9482611f2d565b604082019050919050565b60006020820190508181036000830152611fb881611f7c565b9050919050565b7f4552433732313a2063616c6c6572206973206e6f7420746f6b656e206f776e6560008201527f72206e6f7220617070726f766564000000000000000000000000000000000000602082015250565b600061201b602e83611871565b915061202682611fbf565b604082019050919050565b6000602082019050818103600083015261204a8161200e565b9050919050565b7f4552433732313a20696e76616c696420746f6b656e2049440000000000000000600082015250565b6000612087601883611871565b915061209282612051565b602082019050919050565b600060208201905081810360008301526120b68161207a565b9050919050565b7f4552433732313a2061646472657373207a65726f206973206e6f74206120766160008201527f6c6964206f776e65720000000000000000000000000000000000000000000000602082015250565b6000612119602983611871565b9150612124826120bd565b604082019050919050565b600060208201905081810360008301526121488161210c565b9050919050565b600081905092915050565b600061216582611866565b61216f818561214f565b935061217f818560208601611882565b80840191505092915050565b6000612197828561215a565b91506121a3828461215a565b91508190509392505050565b7f4552433732313a207472616e736665722066726f6d20696e636f72726563742060008201527f6f776e6572000000000000000000000000000000000000000000000000000000602082015250565b600061220b602583611871565b9150612216826121af565b604082019050919050565b6000602082019050818103600083015261223a816121fe565b9050919050565b7f4552433732313a207472616e7366657220746f20746865207a65726f2061646460008201527f7265737300000000000000000000000000000000000000000000000000000000602082015250565b600061229d602483611871565b91506122a882612241565b604082019050919050565b600060208201905081810360008301526122cc81612290565b9050919050565b7f4e487b7100000000000000000000000000000000000000000000000000000000600052601160045260246000fd5b600061230d82611918565b915061231883611918565b92508282039050818111156123305761232f6122d3565b5b92915050565b600061234182611918565b915061234c83611918565b9250828201905080821115612364576123636122d3565b5b92915050565b7f4552433732313a206d696e7420746f20746865207a65726f2061646472657373600082015250565b60006123a0602083611871565b91506123ab8261236a565b602082019050919050565b600060208201905081810360008301526123cf81612393565b9050919050565b7f4552433732313a20746f6b656e20616c7265616479206d696e74656400000000600082015250565b600061240c601c83611871565b9150612417826123d6565b602082019050919050565b6000602082019050818103600083015261243b816123ff565b9050919050565b7f45524337323155524953746f726167653a2055524920736574206f66206e6f6e60008201527f6578697374656e7420746f6b656e000000000000000000000000000000000000602082015250565b600061249e602e83611871565b91506124a982612442565b604082019050919050565b600060208201905081810360008301526124cd81612491565b9050919050565b60008190508160005260206000209050919050565b60006020601f8301049050919050565b600082821b905092915050565b6000600883026125367fffffffffffffffffffffffffffffffffffffffffffffffffffffffffffffffff826124f9565b61254086836124f9565b95508019841693508086168417925050509392505050565b6000819050919050565b600061257d61257861257384611918565b612558565b611918565b9050919050565b6000819050919050565b61259783612562565b6125ab6125a382612584565b848454612506565b825550505050565b600090565b6125c06125b3565b6125cb81848461258e565b505050565b5b818110156125ef576125e46000826125b8565b6001810190506125d1565b5050565b601f82111561263457612605816124d4565b61260e846124e9565b8101602085101561261d578190505b612631612629856124e9565b8301826125d0565b50505b505050565b600082821c905092915050565b600061265760001984600802612639565b1980831691505092915050565b60006126708383612646565b9150826002028217905092915050565b61268982611866565b67ffffffffffffffff8111156126a2576126a1611aa0565b5b6126ac8254611e6a565b6126b78282856125f3565b600060209050601f8311600181146126ea57600084156126d8578287015190505b6126e28582612664565b86555061274a565b601f1984166126f8866124d4565b60005b82811015612720578489015182556001820191506020850194506020810190506126fb565b8683101561273d5784890151612739601f891682612646565b8355505b6001600288020188555050505b505050505050565b7f4552433732313a20617070726f766520746f2063616c6c657200000000000000600082015250565b6000612788601983611871565b915061279382612752565b602082019050919050565b600060208201905081810360008301526127b78161277b565b9050919050565b7f4552433732313a207472616e7366657220746f206e6f6e20455243373231526560008201527f63656976657220696d706c656d656e7465720000000000000000000000000000602082015250565b600061281a603283611871565b9150612825826127be565b604082019050919050565b600060208201905081810360008301526128498161280d565b9050919050565b600081519050919050565b600082825260208201905092915050565b600061287782612850565b612881818561285b565b9350612891818560208601611882565b61289a816118ac565b840191505092915050565b60006080820190506128ba60008301876119ad565b6128c760208301866119ad565b6128d46040830185611c14565b81810360608301526128e6818461286c565b905095945050505050565b600081519050612900816117d7565b92915050565b60006020828403121561291c5761291b6117a1565b5b600061292a848285016128f1565b91505092915050565b600061293e82611918565b91507fffffffffffffffffffffffffffffffffffffffffffffffffffffffffffffffff82036129705761296f6122d3565b5b600182019050919050565b7f4e487b7100000000000000000000000000000000000000000000000000000000600052601260045260246000fd5b60006129b582611918565b91506129c083611918565b9250826129d0576129cf61297b565b5b828204905092915050565b60006129e682611918565b91506129f183611918565b925082612a0157612a0061297b565b5b828206905092915050565b7f4e487b7100000000000000000000000000000000000000000000000000000000600052603260045260246000fdfea26469706673582212201c8de34fad581042cd2c2275d48ee514105b404b944ec9845cb06504c3e132ca64736f6c63430008110033",
  "devdoc": {
    "kind": "dev",
    "methods": {
      "approve(address,uint256)": {
        "details": "See {IERC721-approve}."
      },
      "balanceOf(address)": {
        "details": "See {IERC721-balanceOf}."
      },
      "getApproved(uint256)": {
        "details": "See {IERC721-getApproved}."
      },
      "isApprovedForAll(address,address)": {
        "details": "See {IERC721-isApprovedForAll}."
      },
      "name()": {
        "details": "See {IERC721Metadata-name}."
      },
      "ownerOf(uint256)": {
        "details": "See {IERC721-ownerOf}."
      },
      "safeTransferFrom(address,address,uint256)": {
        "details": "See {IERC721-safeTransferFrom}."
      },
      "safeTransferFrom(address,address,uint256,bytes)": {
        "details": "See {IERC721-safeTransferFrom}."
      },
      "setApprovalForAll(address,bool)": {
        "details": "See {IERC721-setApprovalForAll}."
      },
      "supportsInterface(bytes4)": {
        "details": "See {IERC165-supportsInterface}."
      },
      "symbol()": {
        "details": "See {IERC721Metadata-symbol}."
      },
      "tokenURI(uint256)": {
        "details": "See {IERC721Metadata-tokenURI}."
      },
      "transferFrom(address,address,uint256)": {
        "details": "See {IERC721-transferFrom}."
      }
    },
    "version": 1
  },
  "userdoc": {
    "kind": "user",
    "methods": {},
    "version": 1
  },
  "storageLayout": {
    "storage": [
      {
        "astId": 1466,
        "contract": "contracts/CollectibleNFT.sol:CollectibleNFT",
        "label": "_name",
        "offset": 0,
        "slot": "0",
        "type": "t_string_storage"
      },
      {
        "astId": 1468,
        "contract": "contracts/CollectibleNFT.sol:CollectibleNFT",
        "label": "_symbol",
        "offset": 0,
        "slot": "1",
        "type": "t_string_storage"
      },
      {
        "astId": 1472,
        "contract": "contracts/CollectibleNFT.sol:CollectibleNFT",
        "label": "_owners",
        "offset": 0,
        "slot": "2",
        "type": "t_mapping(t_uint256,t_address)"
      },
      {
        "astId": 1476,
        "contract": "contracts/CollectibleNFT.sol:CollectibleNFT",
        "label": "_balances",
        "offset": 0,
        "slot": "3",
        "type": "t_mapping(t_address,t_uint256)"
      },
      {
        "astId": 1480,
        "contract": "contracts/CollectibleNFT.sol:CollectibleNFT",
        "label": "_tokenApprovals",
        "offset": 0,
        "slot": "4",
        "type": "t_mapping(t_uint256,t_address)"
      },
      {
        "astId": 1486,
        "contract": "contracts/CollectibleNFT.sol:CollectibleNFT",
        "label": "_operatorApprovals",
        "offset": 0,
        "slot": "5",
        "type": "t_mapping(t_address,t_mapping(t_address,t_bool))"
      },
      {
        "astId": 2454,
        "contract": "contracts/CollectibleNFT.sol:CollectibleNFT",
        "label": "_tokenURIs",
        "offset": 0,
        "slot": "6",
        "type": "t_mapping(t_uint256,t_string_storage)"
      },
      {
        "astId": 10,
        "contract": "contracts/CollectibleNFT.sol:CollectibleNFT",
        "label": "_status",
        "offset": 0,
        "slot": "7",
        "type": "t_uint256"
      },
      {
        "astId": 3263,
        "contract": "contracts/CollectibleNFT.sol:CollectibleNFT",
        "label": "_tokenIds",
        "offset": 0,
        "slot": "8",
        "type": "t_struct(Counter)2916_storage"
      },
      {
        "astId": 3265,
        "contract": "contracts/CollectibleNFT.sol:CollectibleNFT",
        "label": "creatorMgmtAddress",
        "offset": 0,
        "slot": "9",
        "type": "t_address"
      }
    ],
    "types": {
      "t_address": {
        "encoding": "inplace",
        "label": "address",
        "numberOfBytes": "20"
      },
      "t_bool": {
        "encoding": "inplace",
        "label": "bool",
        "numberOfBytes": "1"
      },
      "t_mapping(t_address,t_bool)": {
        "encoding": "mapping",
        "key": "t_address",
        "label": "mapping(address => bool)",
        "numberOfBytes": "32",
        "value": "t_bool"
      },
      "t_mapping(t_address,t_mapping(t_address,t_bool))": {
        "encoding": "mapping",
        "key": "t_address",
        "label": "mapping(address => mapping(address => bool))",
        "numberOfBytes": "32",
        "value": "t_mapping(t_address,t_bool)"
      },
      "t_mapping(t_address,t_uint256)": {
        "encoding": "mapping",
        "key": "t_address",
        "label": "mapping(address => uint256)",
        "numberOfBytes": "32",
        "value": "t_uint256"
      },
      "t_mapping(t_uint256,t_address)": {
        "encoding": "mapping",
        "key": "t_uint256",
        "label": "mapping(uint256 => address)",
        "numberOfBytes": "32",
        "value": "t_address"
      },
      "t_mapping(t_uint256,t_string_storage)": {
        "encoding": "mapping",
        "key": "t_uint256",
        "label": "mapping(uint256 => string)",
        "numberOfBytes": "32",
        "value": "t_string_storage"
      },
      "t_string_storage": {
        "encoding": "bytes",
        "label": "string",
        "numberOfBytes": "32"
      },
      "t_struct(Counter)2916_storage": {
        "encoding": "inplace",
        "label": "struct Counters.Counter",
        "members": [
          {
            "astId": 2915,
            "contract": "contracts/CollectibleNFT.sol:CollectibleNFT",
            "label": "_value",
            "offset": 0,
            "slot": "0",
            "type": "t_uint256"
          }
        ],
        "numberOfBytes": "32"
      },
      "t_uint256": {
        "encoding": "inplace",
        "label": "uint256",
        "numberOfBytes": "32"
      }
    }
  }
}