{
  "address": "0xe7f1725E7734CE288F8367e1Bb143E90bb3F0512",
  "abi": [
    {
      "inputs": [
        {
          "internalType": "address",
          "name": "_creatorMgmtAddress",
          "type": "address"
        }
      ],
      "stateMutability": "nonpayable",
      "type": "constructor"
    },
    {
      "anonymous": false,
      "inputs": [
        {
          "indexed": true,
          "internalType": "address",
          "name": "account",
          "type": "address"
        },
        {
          "indexed": true,
          "internalType": "address",
          "name": "operator",
          "type": "address"
        },
        {
          "indexed": false,
          "internalType": "bool",
          "name": "approved",
          "type": "bool"
        }
      ],
      "name": "ApprovalForAll",
      "type": "event"
    },
    {
      "anonymous": false,
      "inputs": [
        {
          "indexed": true,
          "internalType": "address",
          "name": "operator",
          "type": "address"
        },
        {
          "indexed": true,
          "internalType": "address",
          "name": "from",
          "type": "address"
        },
        {
          "indexed": true,
          "internalType": "address",
          "name": "to",
          "type": "address"
        },
        {
          "indexed": false,
          "internalType": "uint256[]",
          "name": "ids",
          "type": "uint256[]"
        },
        {
          "indexed": false,
          "internalType": "uint256[]",
          "name": "values",
          "type": "uint256[]"
        }
      ],
      "name": "TransferBatch",
      "type": "event"
    },
    {
      "anonymous": false,
      "inputs": [
        {
          "indexed": true,
          "internalType": "address",
          "name": "operator",
          "type": "address"
        },
        {
          "indexed": true,
          "internalType": "address",
          "name": "from",
          "type": "address"
        },
        {
          "indexed": true,
          "internalType": "address",
          "name": "to",
          "type": "address"
        },
        {
          "indexed": false,
          "internalType": "uint256",
          "name": "id",
          "type": "uint256"
        },
        {
          "indexed": false,
          "internalType": "uint256",
          "name": "value",
          "type": "uint256"
        }
      ],
      "name": "TransferSingle",
      "type": "event"
    },
    {
      "anonymous": false,
      "inputs": [
        {
          "indexed": false,
          "internalType": "string",
          "name": "value",
          "type": "string"
        },
        {
          "indexed": true,
          "internalType": "uint256",
          "name": "id",
          "type": "uint256"
        }
      ],
      "name": "URI",
      "type": "event"
    },
    {
      "inputs": [
        {
          "internalType": "address",
          "name": "account",
          "type": "address"
        },
        {
          "internalType": "uint256",
          "name": "id",
          "type": "uint256"
        }
      ],
      "name": "balanceOf",
      "outputs": [
        {
          "internalType": "uint256",
          "name": "",
          "type": "uint256"
        }
      ],
      "stateMutability": "view",
      "type": "function"
    },
    {
      "inputs": [
        {
          "internalType": "address[]",
          "name": "accounts",
          "type": "address[]"
        },
        {
          "internalType": "uint256[]",
          "name": "ids",
          "type": "uint256[]"
        }
      ],
      "name": "balanceOfBatch",
      "outputs": [
        {
          "internalType": "uint256[]",
          "name": "",
          "type": "uint256[]"
        }
      ],
      "stateMutability": "view",
      "type": "function"
    },
    {
      "inputs": [
        {
          "internalType": "address",
          "name": "account",
          "type": "address"
        },
        {
          "internalType": "address",
          "name": "operator",
          "type": "address"
        }
      ],
      "name": "isApprovedForAll",
      "outputs": [
        {
          "internalType": "bool",
          "name": "",
          "type": "bool"
        }
      ],
      "stateMutability": "view",
      "type": "function"
    },
    {
      "inputs": [
        {
          "internalType": "string",
          "name": "_tokenURI",
          "type": "string"
        },
        {
          "internalType": "uint256",
          "name": "_price",
          "type": "uint256"
        }
      ],
      "name": "mintCreatorNFT",
      "outputs": [
        {
          "internalType": "uint256",
          "name": "",
          "type": "uint256"
        }
      ],
      "stateMutability": "nonpayable",
      "type": "function"
    },
    {
      "inputs": [
        {
          "internalType": "address",
          "name": "artist",
          "type": "address"
        },
        {
          "internalType": "uint256",
          "name": "milestoneId",
          "type": "uint256"
        }
      ],
      "name": "mintDonatorNFT",
      "outputs": [
        {
          "internalType": "uint256",
          "name": "",
          "type": "uint256"
        }
      ],
      "stateMutability": "nonpayable",
      "type": "function"
    },
    {
      "inputs": [
        {
          "internalType": "address",
          "name": "from",
          "type": "address"
        },
        {
          "internalType": "address",
          "name": "to",
          "type": "address"
        },
        {
          "internalType": "uint256[]",
          "name": "ids",
          "type": "uint256[]"
        },
        {
          "internalType": "uint256[]",
          "name": "amounts",
          "type": "uint256[]"
        },
        {
          "internalType": "bytes",
          "name": "data",
          "type": "bytes"
        }
      ],
      "name": "safeBatchTransferFrom",
      "outputs": [],
      "stateMutability": "nonpayable",
      "type": "function"
    },
    {
      "inputs": [
        {
          "internalType": "address",
          "name": "from",
          "type": "address"
        },
        {
          "internalType": "address",
          "name": "to",
          "type": "address"
        },
        {
          "internalType": "uint256",
          "name": "id",
          "type": "uint256"
        },
        {
          "internalType": "uint256",
          "name": "amount",
          "type": "uint256"
        },
        {
          "internalType": "bytes",
          "name": "data",
          "type": "bytes"
        }
      ],
      "name": "safeTransferFrom",
      "outputs": [],
      "stateMutability": "nonpayable",
      "type": "function"
    },
    {
      "inputs": [
        {
          "internalType": "address",
          "name": "operator",
          "type": "address"
        },
        {
          "internalType": "bool",
          "name": "approved",
          "type": "bool"
        }
      ],
      "name": "setApprovalForAll",
      "outputs": [],
      "stateMutability": "nonpayable",
      "type": "function"
    },
    {
      "inputs": [
        {
          "internalType": "bytes4",
          "name": "interfaceId",
          "type": "bytes4"
        }
      ],
      "name": "supportsInterface",
      "outputs": [
        {
          "internalType": "bool",
          "name": "",
          "type": "bool"
        }
      ],
      "stateMutability": "view",
      "type": "function"
    },
    {
      "inputs": [
        {
          "internalType": "uint256",
          "name": "",
          "type": "uint256"
        }
      ],
      "name": "uri",
      "outputs": [
        {
          "internalType": "string",
          "name": "",
          "type": "string"
        }
      ],
      "stateMutability": "view",
      "type": "function"
    }
  ],
  "transactionHash": "0x79f81793aa7baf13dbecfdd3b27551fa770335225c97a483b40cee8b35da2071",
  "args": [
    "0x5FbDB2315678afecb367f032d93F642f64180aa3"
  ],
  "numDeployments": 1,
  "solcInputHash": "7c59c2295984a7c15f0fb7c02ced50c6",
  "bytecode": "0x60806040523480156200001157600080fd5b506040516200373a3803806200373a833981810160405281019062000037919062000120565b604051806020016040528060008152506200005881620000a160201b60201c565b5080600560006101000a81548173ffffffffffffffffffffffffffffffffffffffff021916908373ffffffffffffffffffffffffffffffffffffffff16021790555050620004b3565b8060029081620000b29190620003cc565b5050565b600080fd5b600073ffffffffffffffffffffffffffffffffffffffff82169050919050565b6000620000e882620000bb565b9050919050565b620000fa81620000db565b81146200010657600080fd5b50565b6000815190506200011a81620000ef565b92915050565b600060208284031215620001395762000138620000b6565b5b6000620001498482850162000109565b91505092915050565b600081519050919050565b7f4e487b7100000000000000000000000000000000000000000000000000000000600052604160045260246000fd5b7f4e487b7100000000000000000000000000000000000000000000000000000000600052602260045260246000fd5b60006002820490506001821680620001d457607f821691505b602082108103620001ea57620001e96200018c565b5b50919050565b60008190508160005260206000209050919050565b60006020601f8301049050919050565b600082821b905092915050565b600060088302620002547fffffffffffffffffffffffffffffffffffffffffffffffffffffffffffffffff8262000215565b62000260868362000215565b95508019841693508086168417925050509392505050565b6000819050919050565b6000819050919050565b6000620002ad620002a7620002a18462000278565b62000282565b62000278565b9050919050565b6000819050919050565b620002c9836200028c565b620002e1620002d882620002b4565b84845462000222565b825550505050565b600090565b620002f8620002e9565b62000305818484620002be565b505050565b5b818110156200032d5762000321600082620002ee565b6001810190506200030b565b5050565b601f8211156200037c576200034681620001f0565b620003518462000205565b8101602085101562000361578190505b62000379620003708562000205565b8301826200030a565b50505b505050565b600082821c905092915050565b6000620003a16000198460080262000381565b1980831691505092915050565b6000620003bc83836200038e565b9150826002028217905092915050565b620003d78262000152565b67ffffffffffffffff811115620003f357620003f26200015d565b5b620003ff8254620001bb565b6200040c82828562000331565b600060209050601f8311600181146200044457600084156200042f578287015190505b6200043b8582620003ae565b865550620004ab565b601f1984166200045486620001f0565b60005b828110156200047e5784890151825560018201915060208501945060208101905062000457565b868310156200049e57848901516200049a601f8916826200038e565b8355505b6001600288020188555050505b505050505050565b61327780620004c36000396000f3fe608060405234801561001057600080fd5b506004361061009d5760003560e01c80635a8c2e47116100665780635a8c2e471461017e578063a22cb465146101ae578063b2bd3ea0146101ca578063e985e9c5146101fa578063f242432a1461022a5761009d565b8062fdd58e146100a257806301ffc9a7146100d25780630e89341c146101025780632eb2c2d6146101325780634e1273f41461014e575b600080fd5b6100bc60048036038101906100b79190611ae0565b610246565b6040516100c99190611b2f565b60405180910390f35b6100ec60048036038101906100e79190611ba2565b61030e565b6040516100f99190611bea565b60405180910390f35b61011c60048036038101906101179190611c05565b6103f0565b6040516101299190611cc2565b60405180910390f35b61014c60048036038101906101479190611ee1565b610484565b005b61016860048036038101906101639190612073565b610525565b60405161017591906121a9565b60405180910390f35b6101986004803603810190610193919061226c565b61063e565b6040516101a59190611b2f565b60405180910390f35b6101c860048036038101906101c391906122f4565b6108cf565b005b6101e460048036038101906101df9190611ae0565b6108e5565b6040516101f19190611b2f565b60405180910390f35b610214600480360381019061020f9190612334565b610b15565b6040516102219190611bea565b60405180910390f35b610244600480360381019061023f9190612374565b610ba9565b005b60008073ffffffffffffffffffffffffffffffffffffffff168373ffffffffffffffffffffffffffffffffffffffff16036102b6576040517f08c379a00000000000000000000000000000000000000000000000000000000081526004016102ad9061247d565b60405180910390fd5b60008083815260200190815260200160002060008473ffffffffffffffffffffffffffffffffffffffff1673ffffffffffffffffffffffffffffffffffffffff16815260200190815260200160002054905092915050565b60007fd9b67a26000000000000000000000000000000000000000000000000000000007bffffffffffffffffffffffffffffffffffffffffffffffffffffffff1916827bffffffffffffffffffffffffffffffffffffffffffffffffffffffff191614806103d957507f0e89341c000000000000000000000000000000000000000000000000000000007bffffffffffffffffffffffffffffffffffffffffffffffffffffffff1916827bffffffffffffffffffffffffffffffffffffffffffffffffffffffff1916145b806103e957506103e882610c4a565b5b9050919050565b6060600280546103ff906124cc565b80601f016020809104026020016040519081016040528092919081815260200182805461042b906124cc565b80156104785780601f1061044d57610100808354040283529160200191610478565b820191906000526020600020905b81548152906001019060200180831161045b57829003601f168201915b50505050509050919050565b61048c610cb4565b73ffffffffffffffffffffffffffffffffffffffff168573ffffffffffffffffffffffffffffffffffffffff1614806104d257506104d1856104cc610cb4565b610b15565b5b610511576040517f08c379a00000000000000000000000000000000000000000000000000000000081526004016105089061256f565b60405180910390fd5b61051e8585858585610cbc565b5050505050565b6060815183511461056b576040517f08c379a000000000000000000000000000000000000000000000000000000000815260040161056290612601565b60405180910390fd5b6000835167ffffffffffffffff81111561058857610587611ce9565b5b6040519080825280602002602001820160405280156105b65781602001602082028036833780820191505090505b50905060005b8451811015610633576106038582815181106105db576105da612621565b5b60200260200101518583815181106105f6576105f5612621565b5b6020026020010151610246565b82828151811061061657610615612621565b5b6020026020010181815250508061062c9061267f565b90506105bc565b508091505092915050565b6000600560009054906101000a900473ffffffffffffffffffffffffffffffffffffffff1673ffffffffffffffffffffffffffffffffffffffff1663efd46065336040518263ffffffff1660e01b815260040161069b91906126d6565b602060405180830381865afa1580156106b8573d6000803e3d6000fd5b505050506040513d601f19601f820116820180604052508101906106dc9190612706565b61071b576040517f08c379a00000000000000000000000000000000000000000000000000000000081526004016107129061277f565b60405180910390fd5b600560009054906101000a900473ffffffffffffffffffffffffffffffffffffffff1673ffffffffffffffffffffffffffffffffffffffff1663095acc58336040518263ffffffff1660e01b815260040161077691906126d6565b602060405180830381865afa158015610793573d6000803e3d6000fd5b505050506040513d601f19601f820116820180604052508101906107b79190612706565b6107f6576040517f08c379a00000000000000000000000000000000000000000000000000000000081526004016107ed906127eb565b60405180910390fd5b6108006003610fdd565b600061080c6003610ff3565b905061082a3382600160405180602001604052806000815250611001565b61083481856111b1565b600560009054906101000a900473ffffffffffffffffffffffffffffffffffffffff1673ffffffffffffffffffffffffffffffffffffffff16638b6733323083866040518463ffffffff1660e01b81526004016108939392919061280b565b600060405180830381600087803b1580156108ad57600080fd5b505af11580156108c1573d6000803e3d6000fd5b505050508091505092915050565b6108e16108da610cb4565b83836111d6565b5050565b6000600560009054906101000a900473ffffffffffffffffffffffffffffffffffffffff1673ffffffffffffffffffffffffffffffffffffffff166340c77bf584846040518363ffffffff1660e01b8152600401610944929190612842565b602060405180830381865afa158015610961573d6000803e3d6000fd5b505050506040513d601f19601f820116820180604052508101906109859190612706565b6109c4576040517f08c379a00000000000000000000000000000000000000000000000000000000081526004016109bb906128b7565b60405180910390fd5b610a7d33600560009054906101000a900473ffffffffffffffffffffffffffffffffffffffff1673ffffffffffffffffffffffffffffffffffffffff166329f99b9f86866040518363ffffffff1660e01b8152600401610a25929190612842565b602060405180830381865afa158015610a42573d6000803e3d6000fd5b505050506040513d601f19601f82011682018060405250810190610a6691906128ec565b600160405180602001604052806000815250611001565b600560009054906101000a900473ffffffffffffffffffffffffffffffffffffffff1673ffffffffffffffffffffffffffffffffffffffff1663a4b25ffb84846040518363ffffffff1660e01b8152600401610ada929190612842565b600060405180830381600087803b158015610af457600080fd5b505af1158015610b08573d6000803e3d6000fd5b5050505081905092915050565b6000600160008473ffffffffffffffffffffffffffffffffffffffff1673ffffffffffffffffffffffffffffffffffffffff16815260200190815260200160002060008373ffffffffffffffffffffffffffffffffffffffff1673ffffffffffffffffffffffffffffffffffffffff16815260200190815260200160002060009054906101000a900460ff16905092915050565b610bb1610cb4565b73ffffffffffffffffffffffffffffffffffffffff168573ffffffffffffffffffffffffffffffffffffffff161480610bf75750610bf685610bf1610cb4565b610b15565b5b610c36576040517f08c379a0000000000000000000000000000000000000000000000000000000008152600401610c2d9061256f565b60405180910390fd5b610c438585858585611342565b5050505050565b60007f01ffc9a7000000000000000000000000000000000000000000000000000000007bffffffffffffffffffffffffffffffffffffffffffffffffffffffff1916827bffffffffffffffffffffffffffffffffffffffffffffffffffffffff1916149050919050565b600033905090565b8151835114610d00576040517f08c379a0000000000000000000000000000000000000000000000000000000008152600401610cf79061298b565b60405180910390fd5b600073ffffffffffffffffffffffffffffffffffffffff168473ffffffffffffffffffffffffffffffffffffffff1603610d6f576040517f08c379a0000000000000000000000000000000000000000000000000000000008152600401610d6690612a1d565b60405180910390fd5b6000610d79610cb4565b9050610d898187878787876115dd565b60005b8451811015610f3a576000858281518110610daa57610da9612621565b5b602002602001015190506000858381518110610dc957610dc8612621565b5b60200260200101519050600080600084815260200190815260200160002060008b73ffffffffffffffffffffffffffffffffffffffff1673ffffffffffffffffffffffffffffffffffffffff16815260200190815260200160002054905081811015610e6a576040517f08c379a0000000000000000000000000000000000000000000000000000000008152600401610e6190612aaf565b60405180910390fd5b81810360008085815260200190815260200160002060008c73ffffffffffffffffffffffffffffffffffffffff1673ffffffffffffffffffffffffffffffffffffffff168152602001908152602001600020819055508160008085815260200190815260200160002060008b73ffffffffffffffffffffffffffffffffffffffff1673ffffffffffffffffffffffffffffffffffffffff1681526020019081526020016000206000828254610f1f9190612acf565b9250508190555050505080610f339061267f565b9050610d8c565b508473ffffffffffffffffffffffffffffffffffffffff168673ffffffffffffffffffffffffffffffffffffffff168273ffffffffffffffffffffffffffffffffffffffff167f4a39dc06d4c0dbc64b70af90fd698a233a518aa5d07e595d983b8c0526c8f7fb8787604051610fb1929190612b03565b60405180910390a4610fc78187878787876115e5565b610fd58187878787876115ed565b505050505050565b6001816000016000828254019250508190555050565b600081600001549050919050565b600073ffffffffffffffffffffffffffffffffffffffff168473ffffffffffffffffffffffffffffffffffffffff1603611070576040517f08c379a000000000000000000000000000000000000000000000000000000000815260040161106790612bac565b60405180910390fd5b600061107a610cb4565b90506000611087856117c4565b90506000611094856117c4565b90506110a5836000898585896115dd565b8460008088815260200190815260200160002060008973ffffffffffffffffffffffffffffffffffffffff1673ffffffffffffffffffffffffffffffffffffffff16815260200190815260200160002060008282546111049190612acf565b925050819055508673ffffffffffffffffffffffffffffffffffffffff16600073ffffffffffffffffffffffffffffffffffffffff168473ffffffffffffffffffffffffffffffffffffffff167fc3d58168c5ae7397731d063d5bbf3d657854427343f4c083240f7aacaa2d0f628989604051611182929190612bcc565b60405180910390a4611199836000898585896115e5565b6111a88360008989898961183e565b50505050505050565b806004600084815260200190815260200160002090816111d19190612da1565b505050565b8173ffffffffffffffffffffffffffffffffffffffff168373ffffffffffffffffffffffffffffffffffffffff1603611244576040517f08c379a000000000000000000000000000000000000000000000000000000000815260040161123b90612ee5565b60405180910390fd5b80600160008573ffffffffffffffffffffffffffffffffffffffff1673ffffffffffffffffffffffffffffffffffffffff16815260200190815260200160002060008473ffffffffffffffffffffffffffffffffffffffff1673ffffffffffffffffffffffffffffffffffffffff16815260200190815260200160002060006101000a81548160ff0219169083151502179055508173ffffffffffffffffffffffffffffffffffffffff168373ffffffffffffffffffffffffffffffffffffffff167f17307eab39ab6107e8899845ad3d59bd9653f200f220920489ca2b5937696c31836040516113359190611bea565b60405180910390a3505050565b600073ffffffffffffffffffffffffffffffffffffffff168473ffffffffffffffffffffffffffffffffffffffff16036113b1576040517f08c379a00000000000000000000000000000000000000000000000000000000081526004016113a890612a1d565b60405180910390fd5b60006113bb610cb4565b905060006113c8856117c4565b905060006113d5856117c4565b90506113e58389898585896115dd565b600080600088815260200190815260200160002060008a73ffffffffffffffffffffffffffffffffffffffff1673ffffffffffffffffffffffffffffffffffffffff1681526020019081526020016000205490508581101561147c576040517f08c379a000000000000000000000000000000000000000000000000000000000815260040161147390612aaf565b60405180910390fd5b85810360008089815260200190815260200160002060008b73ffffffffffffffffffffffffffffffffffffffff1673ffffffffffffffffffffffffffffffffffffffff168152602001908152602001600020819055508560008089815260200190815260200160002060008a73ffffffffffffffffffffffffffffffffffffffff1673ffffffffffffffffffffffffffffffffffffffff16815260200190815260200160002060008282546115319190612acf565b925050819055508773ffffffffffffffffffffffffffffffffffffffff168973ffffffffffffffffffffffffffffffffffffffff168573ffffffffffffffffffffffffffffffffffffffff167fc3d58168c5ae7397731d063d5bbf3d657854427343f4c083240f7aacaa2d0f628a8a6040516115ae929190612bcc565b60405180910390a46115c4848a8a86868a6115e5565b6115d2848a8a8a8a8a61183e565b505050505050505050565b505050505050565b505050505050565b61160c8473ffffffffffffffffffffffffffffffffffffffff16611a15565b156117bc578373ffffffffffffffffffffffffffffffffffffffff1663bc197c8187878686866040518663ffffffff1660e01b8152600401611652959493929190612f5a565b6020604051808303816000875af192505050801561168e57506040513d601f19601f8201168201806040525081019061168b9190612fd7565b60015b6117335761169a613011565b806308c379a0036116f657506116ae613033565b806116b957506116f8565b806040517f08c379a00000000000000000000000000000000000000000000000000000000081526004016116ed9190611cc2565b60405180910390fd5b505b6040517f08c379a000000000000000000000000000000000000000000000000000000000815260040161172a90613135565b60405180910390fd5b63bc197c8160e01b7bffffffffffffffffffffffffffffffffffffffffffffffffffffffff1916817bffffffffffffffffffffffffffffffffffffffffffffffffffffffff1916146117ba576040517f08c379a00000000000000000000000000000000000000000000000000000000081526004016117b1906131c7565b60405180910390fd5b505b505050505050565b60606000600167ffffffffffffffff8111156117e3576117e2611ce9565b5b6040519080825280602002602001820160405280156118115781602001602082028036833780820191505090505b509050828160008151811061182957611828612621565b5b60200260200101818152505080915050919050565b61185d8473ffffffffffffffffffffffffffffffffffffffff16611a15565b15611a0d578373ffffffffffffffffffffffffffffffffffffffff1663f23a6e6187878686866040518663ffffffff1660e01b81526004016118a39594939291906131e7565b6020604051808303816000875af19250505080156118df57506040513d601f19601f820116820180604052508101906118dc9190612fd7565b60015b611984576118eb613011565b806308c379a00361194757506118ff613033565b8061190a5750611949565b806040517f08c379a000000000000000000000000000000000000000000000000000000000815260040161193e9190611cc2565b60405180910390fd5b505b6040517f08c379a000000000000000000000000000000000000000000000000000000000815260040161197b90613135565b60405180910390fd5b63f23a6e6160e01b7bffffffffffffffffffffffffffffffffffffffffffffffffffffffff1916817bffffffffffffffffffffffffffffffffffffffffffffffffffffffff191614611a0b576040517f08c379a0000000000000000000000000000000000000000000000000000000008152600401611a02906131c7565b60405180910390fd5b505b505050505050565b6000808273ffffffffffffffffffffffffffffffffffffffff163b119050919050565b6000604051905090565b600080fd5b600080fd5b600073ffffffffffffffffffffffffffffffffffffffff82169050919050565b6000611a7782611a4c565b9050919050565b611a8781611a6c565b8114611a9257600080fd5b50565b600081359050611aa481611a7e565b92915050565b6000819050919050565b611abd81611aaa565b8114611ac857600080fd5b50565b600081359050611ada81611ab4565b92915050565b60008060408385031215611af757611af6611a42565b5b6000611b0585828601611a95565b9250506020611b1685828601611acb565b9150509250929050565b611b2981611aaa565b82525050565b6000602082019050611b446000830184611b20565b92915050565b60007fffffffff0000000000000000000000000000000000000000000000000000000082169050919050565b611b7f81611b4a565b8114611b8a57600080fd5b50565b600081359050611b9c81611b76565b92915050565b600060208284031215611bb857611bb7611a42565b5b6000611bc684828501611b8d565b91505092915050565b60008115159050919050565b611be481611bcf565b82525050565b6000602082019050611bff6000830184611bdb565b92915050565b600060208284031215611c1b57611c1a611a42565b5b6000611c2984828501611acb565b91505092915050565b600081519050919050565b600082825260208201905092915050565b60005b83811015611c6c578082015181840152602081019050611c51565b60008484015250505050565b6000601f19601f8301169050919050565b6000611c9482611c32565b611c9e8185611c3d565b9350611cae818560208601611c4e565b611cb781611c78565b840191505092915050565b60006020820190508181036000830152611cdc8184611c89565b905092915050565b600080fd5b7f4e487b7100000000000000000000000000000000000000000000000000000000600052604160045260246000fd5b611d2182611c78565b810181811067ffffffffffffffff82111715611d4057611d3f611ce9565b5b80604052505050565b6000611d53611a38565b9050611d5f8282611d18565b919050565b600067ffffffffffffffff821115611d7f57611d7e611ce9565b5b602082029050602081019050919050565b600080fd5b6000611da8611da384611d64565b611d49565b90508083825260208201905060208402830185811115611dcb57611dca611d90565b5b835b81811015611df45780611de08882611acb565b845260208401935050602081019050611dcd565b5050509392505050565b600082601f830112611e1357611e12611ce4565b5b8135611e23848260208601611d95565b91505092915050565b600080fd5b600067ffffffffffffffff821115611e4c57611e4b611ce9565b5b611e5582611c78565b9050602081019050919050565b82818337600083830152505050565b6000611e84611e7f84611e31565b611d49565b905082815260208101848484011115611ea057611e9f611e2c565b5b611eab848285611e62565b509392505050565b600082601f830112611ec857611ec7611ce4565b5b8135611ed8848260208601611e71565b91505092915050565b600080600080600060a08688031215611efd57611efc611a42565b5b6000611f0b88828901611a95565b9550506020611f1c88828901611a95565b945050604086013567ffffffffffffffff811115611f3d57611f3c611a47565b5b611f4988828901611dfe565b935050606086013567ffffffffffffffff811115611f6a57611f69611a47565b5b611f7688828901611dfe565b925050608086013567ffffffffffffffff811115611f9757611f96611a47565b5b611fa388828901611eb3565b9150509295509295909350565b600067ffffffffffffffff821115611fcb57611fca611ce9565b5b602082029050602081019050919050565b6000611fef611fea84611fb0565b611d49565b9050808382526020820190506020840283018581111561201257612011611d90565b5b835b8181101561203b57806120278882611a95565b845260208401935050602081019050612014565b5050509392505050565b600082601f83011261205a57612059611ce4565b5b813561206a848260208601611fdc565b91505092915050565b6000806040838503121561208a57612089611a42565b5b600083013567ffffffffffffffff8111156120a8576120a7611a47565b5b6120b485828601612045565b925050602083013567ffffffffffffffff8111156120d5576120d4611a47565b5b6120e185828601611dfe565b9150509250929050565b600081519050919050565b600082825260208201905092915050565b6000819050602082019050919050565b61212081611aaa565b82525050565b60006121328383612117565b60208301905092915050565b6000602082019050919050565b6000612156826120eb565b61216081856120f6565b935061216b83612107565b8060005b8381101561219c5781516121838882612126565b975061218e8361213e565b92505060018101905061216f565b5085935050505092915050565b600060208201905081810360008301526121c3818461214b565b905092915050565b600067ffffffffffffffff8211156121e6576121e5611ce9565b5b6121ef82611c78565b9050602081019050919050565b600061220f61220a846121cb565b611d49565b90508281526020810184848401111561222b5761222a611e2c565b5b612236848285611e62565b509392505050565b600082601f83011261225357612252611ce4565b5b81356122638482602086016121fc565b91505092915050565b6000806040838503121561228357612282611a42565b5b600083013567ffffffffffffffff8111156122a1576122a0611a47565b5b6122ad8582860161223e565b92505060206122be85828601611acb565b9150509250929050565b6122d181611bcf565b81146122dc57600080fd5b50565b6000813590506122ee816122c8565b92915050565b6000806040838503121561230b5761230a611a42565b5b600061231985828601611a95565b925050602061232a858286016122df565b9150509250929050565b6000806040838503121561234b5761234a611a42565b5b600061235985828601611a95565b925050602061236a85828601611a95565b9150509250929050565b600080600080600060a086880312156123905761238f611a42565b5b600061239e88828901611a95565b95505060206123af88828901611a95565b94505060406123c088828901611acb565b93505060606123d188828901611acb565b925050608086013567ffffffffffffffff8111156123f2576123f1611a47565b5b6123fe88828901611eb3565b9150509295509295909350565b7f455243313135353a2061646472657373207a65726f206973206e6f742061207660008201527f616c6964206f776e657200000000000000000000000000000000000000000000602082015250565b6000612467602a83611c3d565b91506124728261240b565b604082019050919050565b600060208201905081810360008301526124968161245a565b9050919050565b7f4e487b7100000000000000000000000000000000000000000000000000000000600052602260045260246000fd5b600060028204905060018216806124e457607f821691505b6020821081036124f7576124f661249d565b5b50919050565b7f455243313135353a2063616c6c6572206973206e6f7420746f6b656e206f776e60008201527f6572206e6f7220617070726f7665640000000000000000000000000000000000602082015250565b6000612559602f83611c3d565b9150612564826124fd565b604082019050919050565b600060208201905081810360008301526125888161254c565b9050919050565b7f455243313135353a206163636f756e747320616e6420696473206c656e67746860008201527f206d69736d617463680000000000000000000000000000000000000000000000602082015250565b60006125eb602983611c3d565b91506125f68261258f565b604082019050919050565b6000602082019050818103600083015261261a816125de565b9050919050565b7f4e487b7100000000000000000000000000000000000000000000000000000000600052603260045260246000fd5b7f4e487b7100000000000000000000000000000000000000000000000000000000600052601160045260246000fd5b600061268a82611aaa565b91507fffffffffffffffffffffffffffffffffffffffffffffffffffffffffffffffff82036126bc576126bb612650565b5b600182019050919050565b6126d081611a6c565b82525050565b60006020820190506126eb60008301846126c7565b92915050565b600081519050612700816122c8565b92915050565b60006020828403121561271c5761271b611a42565b5b600061272a848285016126f1565b91505092915050565b7f4e6f7420612063726561746f722c207265676973746572206669727374000000600082015250565b6000612769601d83611c3d565b915061277482612733565b602082019050919050565b600060208201905081810360008301526127988161275c565b9050919050565b7f596f75207265616368206c696d6974206f66206d696c6573746f6e6500000000600082015250565b60006127d5601c83611c3d565b91506127e08261279f565b602082019050919050565b60006020820190508181036000830152612804816127c8565b9050919050565b600060608201905061282060008301866126c7565b61282d6020830185611b20565b61283a6040830184611b20565b949350505050565b600060408201905061285760008301856126c7565b6128646020830184611b20565b9392505050565b7f596f7520617265206e6f7420656c6c696769626c650000000000000000000000600082015250565b60006128a1601583611c3d565b91506128ac8261286b565b602082019050919050565b600060208201905081810360008301526128d081612894565b9050919050565b6000815190506128e681611ab4565b92915050565b60006020828403121561290257612901611a42565b5b6000612910848285016128d7565b91505092915050565b7f455243313135353a2069647320616e6420616d6f756e7473206c656e6774682060008201527f6d69736d61746368000000000000000000000000000000000000000000000000602082015250565b6000612975602883611c3d565b915061298082612919565b604082019050919050565b600060208201905081810360008301526129a481612968565b9050919050565b7f455243313135353a207472616e7366657220746f20746865207a65726f20616460008201527f6472657373000000000000000000000000000000000000000000000000000000602082015250565b6000612a07602583611c3d565b9150612a12826129ab565b604082019050919050565b60006020820190508181036000830152612a36816129fa565b9050919050565b7f455243313135353a20696e73756666696369656e742062616c616e636520666f60008201527f72207472616e7366657200000000000000000000000000000000000000000000602082015250565b6000612a99602a83611c3d565b9150612aa482612a3d565b604082019050919050565b60006020820190508181036000830152612ac881612a8c565b9050919050565b6000612ada82611aaa565b9150612ae583611aaa565b9250828201905080821115612afd57612afc612650565b5b92915050565b60006040820190508181036000830152612b1d818561214b565b90508181036020830152612b31818461214b565b90509392505050565b7f455243313135353a206d696e7420746f20746865207a65726f2061646472657360008201527f7300000000000000000000000000000000000000000000000000000000000000602082015250565b6000612b96602183611c3d565b9150612ba182612b3a565b604082019050919050565b60006020820190508181036000830152612bc581612b89565b9050919050565b6000604082019050612be16000830185611b20565b612bee6020830184611b20565b9392505050565b60008190508160005260206000209050919050565b60006020601f8301049050919050565b600082821b905092915050565b600060088302612c577fffffffffffffffffffffffffffffffffffffffffffffffffffffffffffffffff82612c1a565b612c618683612c1a565b95508019841693508086168417925050509392505050565b6000819050919050565b6000612c9e612c99612c9484611aaa565b612c79565b611aaa565b9050919050565b6000819050919050565b612cb883612c83565b612ccc612cc482612ca5565b848454612c27565b825550505050565b600090565b612ce1612cd4565b612cec818484612caf565b505050565b5b81811015612d1057612d05600082612cd9565b600181019050612cf2565b5050565b601f821115612d5557612d2681612bf5565b612d2f84612c0a565b81016020851015612d3e578190505b612d52612d4a85612c0a565b830182612cf1565b50505b505050565b600082821c905092915050565b6000612d7860001984600802612d5a565b1980831691505092915050565b6000612d918383612d67565b9150826002028217905092915050565b612daa82611c32565b67ffffffffffffffff811115612dc357612dc2611ce9565b5b612dcd82546124cc565b612dd8828285612d14565b600060209050601f831160018114612e0b5760008415612df9578287015190505b612e038582612d85565b865550612e6b565b601f198416612e1986612bf5565b60005b82811015612e4157848901518255600182019150602085019450602081019050612e1c565b86831015612e5e5784890151612e5a601f891682612d67565b8355505b6001600288020188555050505b505050505050565b7f455243313135353a2073657474696e6720617070726f76616c2073746174757360008201527f20666f722073656c660000000000000000000000000000000000000000000000602082015250565b6000612ecf602983611c3d565b9150612eda82612e73565b604082019050919050565b60006020820190508181036000830152612efe81612ec2565b9050919050565b600081519050919050565b600082825260208201905092915050565b6000612f2c82612f05565b612f368185612f10565b9350612f46818560208601611c4e565b612f4f81611c78565b840191505092915050565b600060a082019050612f6f60008301886126c7565b612f7c60208301876126c7565b8181036040830152612f8e818661214b565b90508181036060830152612fa2818561214b565b90508181036080830152612fb68184612f21565b90509695505050505050565b600081519050612fd181611b76565b92915050565b600060208284031215612fed57612fec611a42565b5b6000612ffb84828501612fc2565b91505092915050565b60008160e01c9050919050565b600060033d11156130305760046000803e61302d600051613004565b90505b90565b600060443d106130c057613045611a38565b60043d036004823e80513d602482011167ffffffffffffffff8211171561306d5750506130c0565b808201805167ffffffffffffffff81111561308b57505050506130c0565b80602083010160043d0385018111156130a85750505050506130c0565b6130b782602001850186611d18565b82955050505050505b90565b7f455243313135353a207472616e7366657220746f206e6f6e204552433131353560008201527f526563656976657220696d706c656d656e746572000000000000000000000000602082015250565b600061311f603483611c3d565b915061312a826130c3565b604082019050919050565b6000602082019050818103600083015261314e81613112565b9050919050565b7f455243313135353a204552433131353552656365697665722072656a6563746560008201527f6420746f6b656e73000000000000000000000000000000000000000000000000602082015250565b60006131b1602883611c3d565b91506131bc82613155565b604082019050919050565b600060208201905081810360008301526131e0816131a4565b9050919050565b600060a0820190506131fc60008301886126c7565b61320960208301876126c7565b6132166040830186611b20565b6132236060830185611b20565b81810360808301526132358184612f21565b9050969550505050505056fea264697066735822122012d6a0a86584b36b49b6293019c24f8b11d933d711ef6081ceed6b103fd669c464736f6c63430008110033",
  "devdoc": {
    "kind": "dev",
    "methods": {
      "balanceOf(address,uint256)": {
        "details": "See {IERC1155-balanceOf}. Requirements: - `account` cannot be the zero address."
      },
      "balanceOfBatch(address[],uint256[])": {
        "details": "See {IERC1155-balanceOfBatch}. Requirements: - `accounts` and `ids` must have the same length."
      },
      "isApprovedForAll(address,address)": {
        "details": "See {IERC1155-isApprovedForAll}."
      },
      "safeBatchTransferFrom(address,address,uint256[],uint256[],bytes)": {
        "details": "See {IERC1155-safeBatchTransferFrom}."
      },
      "safeTransferFrom(address,address,uint256,uint256,bytes)": {
        "details": "See {IERC1155-safeTransferFrom}."
      },
      "setApprovalForAll(address,bool)": {
        "details": "See {IERC1155-setApprovalForAll}."
      },
      "supportsInterface(bytes4)": {
        "details": "See {IERC165-supportsInterface}."
      },
      "uri(uint256)": {
        "details": "See {IERC1155MetadataURI-uri}. This implementation returns the same URI for *all* token types. It relies on the token type ID substitution mechanism https://eips.ethereum.org/EIPS/eip-1155#metadata[defined in the EIP]. Clients calling this function must replace the `\\{id\\}` substring with the actual token type ID."
      }
    },
    "version": 1
  },
  "userdoc": {
    "kind": "user",
    "methods": {},
    "version": 1
  },
  "storageLayout": {
    "storage": [
      {
        "astId": 65,
        "contract": "contracts/MilestoneNFT.sol:MilestoneNFT",
        "label": "_balances",
        "offset": 0,
        "slot": "0",
        "type": "t_mapping(t_uint256,t_mapping(t_address,t_uint256))"
      },
      {
        "astId": 71,
        "contract": "contracts/MilestoneNFT.sol:MilestoneNFT",
        "label": "_operatorApprovals",
        "offset": 0,
        "slot": "1",
        "type": "t_mapping(t_address,t_mapping(t_address,t_bool))"
      },
      {
        "astId": 73,
        "contract": "contracts/MilestoneNFT.sol:MilestoneNFT",
        "label": "_uri",
        "offset": 0,
        "slot": "2",
        "type": "t_string_storage"
      },
      {
        "astId": 2592,
        "contract": "contracts/MilestoneNFT.sol:MilestoneNFT",
        "label": "_tokenIds",
        "offset": 0,
        "slot": "3",
        "type": "t_struct(Counter)1879_storage"
      },
      {
        "astId": 2596,
        "contract": "contracts/MilestoneNFT.sol:MilestoneNFT",
        "label": "_tokenURIs",
        "offset": 0,
        "slot": "4",
        "type": "t_mapping(t_uint256,t_string_storage)"
      },
      {
        "astId": 2598,
        "contract": "contracts/MilestoneNFT.sol:MilestoneNFT",
        "label": "creatorMgmtAddress",
        "offset": 0,
        "slot": "5",
        "type": "t_address"
      }
    ],
    "types": {
      "t_address": {
        "encoding": "inplace",
        "label": "address",
        "numberOfBytes": "20"
      },
      "t_bool": {
        "encoding": "inplace",
        "label": "bool",
        "numberOfBytes": "1"
      },
      "t_mapping(t_address,t_bool)": {
        "encoding": "mapping",
        "key": "t_address",
        "label": "mapping(address => bool)",
        "numberOfBytes": "32",
        "value": "t_bool"
      },
      "t_mapping(t_address,t_mapping(t_address,t_bool))": {
        "encoding": "mapping",
        "key": "t_address",
        "label": "mapping(address => mapping(address => bool))",
        "numberOfBytes": "32",
        "value": "t_mapping(t_address,t_bool)"
      },
      "t_mapping(t_address,t_uint256)": {
        "encoding": "mapping",
        "key": "t_address",
        "label": "mapping(address => uint256)",
        "numberOfBytes": "32",
        "value": "t_uint256"
      },
      "t_mapping(t_uint256,t_mapping(t_address,t_uint256))": {
        "encoding": "mapping",
        "key": "t_uint256",
        "label": "mapping(uint256 => mapping(address => uint256))",
        "numberOfBytes": "32",
        "value": "t_mapping(t_address,t_uint256)"
      },
      "t_mapping(t_uint256,t_string_storage)": {
        "encoding": "mapping",
        "key": "t_uint256",
        "label": "mapping(uint256 => string)",
        "numberOfBytes": "32",
        "value": "t_string_storage"
      },
      "t_string_storage": {
        "encoding": "bytes",
        "label": "string",
        "numberOfBytes": "32"
      },
      "t_struct(Counter)1879_storage": {
        "encoding": "inplace",
        "label": "struct Counters.Counter",
        "members": [
          {
            "astId": 1878,
            "contract": "contracts/MilestoneNFT.sol:MilestoneNFT",
            "label": "_value",
            "offset": 0,
            "slot": "0",
            "type": "t_uint256"
          }
        ],
        "numberOfBytes": "32"
      },
      "t_uint256": {
        "encoding": "inplace",
        "label": "uint256",
        "numberOfBytes": "32"
      }
    }
  }
}