{
  "address": "0x6064BB01e024059f03a47c5bCe02d0a0b84D45E2",
  "abi": [
    {
      "inputs": [
        {
          "internalType": "address",
          "name": "_milestoneAddress",
          "type": "address"
        }
      ],
      "stateMutability": "nonpayable",
      "type": "constructor"
    },
    {
      "anonymous": false,
      "inputs": [
        {
          "indexed": true,
          "internalType": "address",
          "name": "previousOwner",
          "type": "address"
        },
        {
          "indexed": true,
          "internalType": "address",
          "name": "newOwner",
          "type": "address"
        }
      ],
      "name": "OwnershipTransferred",
      "type": "event"
    },
    {
      "inputs": [
        {
          "internalType": "address",
          "name": "creator",
          "type": "address"
        },
        {
          "internalType": "uint256",
          "name": "proposalIndex",
          "type": "uint256"
        }
      ],
      "name": "IsCanVote",
      "outputs": [
        {
          "internalType": "bool",
          "name": "",
          "type": "bool"
        }
      ],
      "stateMutability": "view",
      "type": "function"
    },
    {
      "inputs": [
        {
          "internalType": "string",
          "name": "_option1",
          "type": "string"
        },
        {
          "internalType": "string",
          "name": "_option2",
          "type": "string"
        }
      ],
      "name": "createProposal",
      "outputs": [
        {
          "internalType": "uint256",
          "name": "",
          "type": "uint256"
        }
      ],
      "stateMutability": "nonpayable",
      "type": "function"
    },
    {
      "inputs": [
        {
          "internalType": "address",
          "name": "creator",
          "type": "address"
        },
        {
          "internalType": "uint256",
          "name": "proposalIndex",
          "type": "uint256"
        }
      ],
      "name": "executeProposal",
      "outputs": [],
      "stateMutability": "nonpayable",
      "type": "function"
    },
    {
      "inputs": [
        {
          "internalType": "address",
          "name": "creator",
          "type": "address"
        }
      ],
      "name": "getNumProposals",
      "outputs": [
        {
          "internalType": "uint256",
          "name": "",
          "type": "uint256"
        }
      ],
      "stateMutability": "view",
      "type": "function"
    },
    {
      "inputs": [
        {
          "internalType": "address",
          "name": "",
          "type": "address"
        }
      ],
      "name": "numProposals",
      "outputs": [
        {
          "internalType": "uint256",
          "name": "",
          "type": "uint256"
        }
      ],
      "stateMutability": "view",
      "type": "function"
    },
    {
      "inputs": [],
      "name": "owner",
      "outputs": [
        {
          "internalType": "address",
          "name": "",
          "type": "address"
        }
      ],
      "stateMutability": "view",
      "type": "function"
    },
    {
      "inputs": [],
      "name": "renounceOwnership",
      "outputs": [],
      "stateMutability": "nonpayable",
      "type": "function"
    },
    {
      "inputs": [
        {
          "internalType": "address",
          "name": "",
          "type": "address"
        },
        {
          "internalType": "uint256",
          "name": "",
          "type": "uint256"
        }
      ],
      "name": "s_proposals",
      "outputs": [
        {
          "internalType": "uint256",
          "name": "deadline",
          "type": "uint256"
        },
        {
          "internalType": "string",
          "name": "option1",
          "type": "string"
        },
        {
          "internalType": "string",
          "name": "option2",
          "type": "string"
        },
        {
          "internalType": "uint256",
          "name": "votesOpt1",
          "type": "uint256"
        },
        {
          "internalType": "uint256",
          "name": "votesOpt2",
          "type": "uint256"
        },
        {
          "internalType": "bool",
          "name": "executed",
          "type": "bool"
        },
        {
          "internalType": "string",
          "name": "result",
          "type": "string"
        }
      ],
      "stateMutability": "view",
      "type": "function"
    },
    {
      "inputs": [
        {
          "internalType": "address",
          "name": "newOwner",
          "type": "address"
        }
      ],
      "name": "transferOwnership",
      "outputs": [],
      "stateMutability": "nonpayable",
      "type": "function"
    },
    {
      "inputs": [
        {
          "internalType": "address",
          "name": "creator",
          "type": "address"
        },
        {
          "internalType": "uint256",
          "name": "proposalIndex",
          "type": "uint256"
        },
        {
          "internalType": "enum CiriverseDAO.Vote",
          "name": "vote",
          "type": "uint8"
        }
      ],
      "name": "voteOnProposal",
      "outputs": [],
      "stateMutability": "nonpayable",
      "type": "function"
    }
  ],
  "transactionHash": "0x71d2cf1d4390ddb67039e9b8856cb32f91f7b2b9c67b444b5cc40e44191394fe",
  "args": [
    "0xd8d78614A02A543f0fc27c1e4F41DF087816F98e"
  ],
  "numDeployments": 2,
  "solcInputHash": "3bfb2ba8a0ee37cc5947f32128e3e705",
  "bytecode": "0x60806040523480156200001157600080fd5b5060405162002667380380620026678339818101604052810190620000379190620001d5565b620000576200004b6200009f60201b60201c565b620000a760201b60201c565b80600360006101000a81548173ffffffffffffffffffffffffffffffffffffffff021916908373ffffffffffffffffffffffffffffffffffffffff1602179055505062000207565b600033905090565b60008060009054906101000a900473ffffffffffffffffffffffffffffffffffffffff169050816000806101000a81548173ffffffffffffffffffffffffffffffffffffffff021916908373ffffffffffffffffffffffffffffffffffffffff1602179055508173ffffffffffffffffffffffffffffffffffffffff168173ffffffffffffffffffffffffffffffffffffffff167f8be0079c531659141344cd1fd0a4f28419497f9722a3daafe3b4186f6b6457e060405160405180910390a35050565b600080fd5b600073ffffffffffffffffffffffffffffffffffffffff82169050919050565b60006200019d8262000170565b9050919050565b620001af8162000190565b8114620001bb57600080fd5b50565b600081519050620001cf81620001a4565b92915050565b600060208284031215620001ee57620001ed6200016b565b5b6000620001fe84828501620001be565b91505092915050565b61245080620002176000396000f3fe608060405234801561001057600080fd5b506004361061009e5760003560e01c80638da5cb5b116100665780638da5cb5b146101595780639b8e873014610177578063a4c4acdf146101a7578063bfc42645146101dd578063f2fde38b146101f95761009e565b806316ba7019146100a35780633ad95b6d146100d357806365e481e2146100ef578063715018a61461011f578063760a80ee14610129575b600080fd5b6100bd60048036038101906100b891906113f5565b610215565b6040516100ca9190611450565b60405180910390f35b6100ed60048036038101906100e89190611490565b61036c565b005b61010960048036038101906101049190611548565b610834565b60405161011691906115d8565b60405180910390f35b610127610b72565b005b610143600480360381019061013e91906115f3565b610b86565b60405161015091906115d8565b60405180910390f35b610161610bcf565b60405161016e919061162f565b60405180910390f35b610191600480360381019061018c91906115f3565b610bf8565b60405161019e91906115d8565b60405180910390f35b6101c160048036038101906101bc91906113f5565b610c10565b6040516101d497969594939291906116da565b60405180910390f35b6101f760048036038101906101f291906113f5565b610e04565b005b610213600480360381019061020e91906115f3565b611180565b005b600080600160008573ffffffffffffffffffffffffffffffffffffffff1673ffffffffffffffffffffffffffffffffffffffff168152602001908152602001600020600084815260200190815260200160002090506000600360009054906101000a900473ffffffffffffffffffffffffffffffffffffffff1673ffffffffffffffffffffffffffffffffffffffff1663a728737986336040518363ffffffff1660e01b81526004016102c992919061175e565b602060405180830381865afa1580156102e6573d6000803e3d6000fd5b505050506040513d601f19601f8201168201806040525081019061030a919061179c565b905060008260060160003373ffffffffffffffffffffffffffffffffffffffff1673ffffffffffffffffffffffffffffffffffffffff168152602001908152602001600020548261035b91906117f8565b905060008111935050505092915050565b826000600360009054906101000a900473ffffffffffffffffffffffffffffffffffffffff1673ffffffffffffffffffffffffffffffffffffffff166329f99b9f8360006040518363ffffffff1660e01b81526004016103cd929190611871565b602060405180830381865afa1580156103ea573d6000803e3d6000fd5b505050506040513d601f19601f8201168201806040525081019061040e919061179c565b90506000600360009054906101000a900473ffffffffffffffffffffffffffffffffffffffff1673ffffffffffffffffffffffffffffffffffffffff1662fdd58e33846040518363ffffffff1660e01b815260040161046e92919061189a565b602060405180830381865afa15801561048b573d6000803e3d6000fd5b505050506040513d601f19601f820116820180604052508101906104af919061179c565b116104ef576040517f08c379a00000000000000000000000000000000000000000000000000000000081526004016104e69061190f565b60405180910390fd5b848442600160008473ffffffffffffffffffffffffffffffffffffffff1673ffffffffffffffffffffffffffffffffffffffff16815260200190815260200160002060008381526020019081526020016000206000015411610586576040517f08c379a000000000000000000000000000000000000000000000000000000000815260040161057d9061197b565b60405180910390fd5b6000600160008973ffffffffffffffffffffffffffffffffffffffff1673ffffffffffffffffffffffffffffffffffffffff168152602001908152602001600020600088815260200190815260200160002090506000600360009054906101000a900473ffffffffffffffffffffffffffffffffffffffff1673ffffffffffffffffffffffffffffffffffffffff1663a72873798a336040518363ffffffff1660e01b815260040161063992919061175e565b602060405180830381865afa158015610656573d6000803e3d6000fd5b505050506040513d601f19601f8201168201806040525081019061067a919061179c565b905060008260060160003373ffffffffffffffffffffffffffffffffffffffff1673ffffffffffffffffffffffffffffffffffffffff16815260200190815260200160002054826106cb91906117f8565b905060008111610710576040517f08c379a0000000000000000000000000000000000000000000000000000000008152600401610707906119e7565b60405180910390fd5b6000600181111561072457610723611a07565b5b88600181111561073757610736611a07565b5b036107b457808360030160008282546107509190611a36565b92505081905550808360060160003373ffffffffffffffffffffffffffffffffffffffff1673ffffffffffffffffffffffffffffffffffffffff16815260200190815260200160002060008282546107a89190611a36565b92505081905550610828565b808360040160008282546107c89190611a36565b92505081905550808360060160003373ffffffffffffffffffffffffffffffffffffffff1673ffffffffffffffffffffffffffffffffffffffff16815260200190815260200160002060008282546108209190611a36565b925050819055505b50505050505050505050565b6000600360009054906101000a900473ffffffffffffffffffffffffffffffffffffffff1673ffffffffffffffffffffffffffffffffffffffff1663efd46065336040518263ffffffff1660e01b8152600401610891919061162f565b602060405180830381865afa1580156108ae573d6000803e3d6000fd5b505050506040513d601f19601f820116820180604052508101906108d29190611a96565b610911576040517f08c379a000000000000000000000000000000000000000000000000000000000815260040161090890611b0f565b60405180910390fd5b6000600360009054906101000a900473ffffffffffffffffffffffffffffffffffffffff1673ffffffffffffffffffffffffffffffffffffffff166322a4e42d336040518263ffffffff1660e01b815260040161096e919061162f565b600060405180830381865afa15801561098b573d6000803e3d6000fd5b505050506040513d6000823e3d601f19601f820116820180604052508101906109b49190611d31565b51116109f5576040517f08c379a00000000000000000000000000000000000000000000000000000000081526004016109ec90611dec565b60405180910390fd5b6000600160003373ffffffffffffffffffffffffffffffffffffffff1673ffffffffffffffffffffffffffffffffffffffff1681526020019081526020016000206000600260003373ffffffffffffffffffffffffffffffffffffffff1673ffffffffffffffffffffffffffffffffffffffff16815260200190815260200160002054815260200190815260200160002090508585826001019182610a9b929190612019565b508383826002019182610aaf929190612019565b5061070842610abe9190611a36565b8160000181905550600260003373ffffffffffffffffffffffffffffffffffffffff1673ffffffffffffffffffffffffffffffffffffffff1681526020019081526020016000206000815480929190610b16906120e9565b91905055506001600260003373ffffffffffffffffffffffffffffffffffffffff1673ffffffffffffffffffffffffffffffffffffffff16815260200190815260200160002054610b6791906117f8565b915050949350505050565b610b7a611203565b610b846000611281565b565b6000600260008373ffffffffffffffffffffffffffffffffffffffff1673ffffffffffffffffffffffffffffffffffffffff168152602001908152602001600020549050919050565b60008060009054906101000a900473ffffffffffffffffffffffffffffffffffffffff16905090565b60026020528060005260406000206000915090505481565b600160205281600052604060002060205280600052604060002060009150915050806000015490806001018054610c4690611e46565b80601f0160208091040260200160405190810160405280929190818152602001828054610c7290611e46565b8015610cbf5780601f10610c9457610100808354040283529160200191610cbf565b820191906000526020600020905b815481529060010190602001808311610ca257829003601f168201915b505050505090806002018054610cd490611e46565b80601f0160208091040260200160405190810160405280929190818152602001828054610d0090611e46565b8015610d4d5780601f10610d2257610100808354040283529160200191610d4d565b820191906000526020600020905b815481529060010190602001808311610d3057829003601f168201915b5050505050908060030154908060040154908060050160009054906101000a900460ff1690806007018054610d8190611e46565b80601f0160208091040260200160405190810160405280929190818152602001828054610dad90611e46565b8015610dfa5780601f10610dcf57610100808354040283529160200191610dfa565b820191906000526020600020905b815481529060010190602001808311610ddd57829003601f168201915b5050505050905087565b816000600360009054906101000a900473ffffffffffffffffffffffffffffffffffffffff1673ffffffffffffffffffffffffffffffffffffffff166329f99b9f8360006040518363ffffffff1660e01b8152600401610e65929190611871565b602060405180830381865afa158015610e82573d6000803e3d6000fd5b505050506040513d601f19601f82011682018060405250810190610ea6919061179c565b90506000600360009054906101000a900473ffffffffffffffffffffffffffffffffffffffff1673ffffffffffffffffffffffffffffffffffffffff1662fdd58e33846040518363ffffffff1660e01b8152600401610f0692919061189a565b602060405180830381865afa158015610f23573d6000803e3d6000fd5b505050506040513d601f19601f82011682018060405250810190610f47919061179c565b11610f87576040517f08c379a0000000000000000000000000000000000000000000000000000000008152600401610f7e9061190f565b60405180910390fd5b838342600160008473ffffffffffffffffffffffffffffffffffffffff1673ffffffffffffffffffffffffffffffffffffffff168152602001908152602001600020600083815260200190815260200160002060000154111561101f576040517f08c379a00000000000000000000000000000000000000000000000000000000081526004016110169061217d565b60405180910390fd5b60001515600160008473ffffffffffffffffffffffffffffffffffffffff1673ffffffffffffffffffffffffffffffffffffffff168152602001908152602001600020600083815260200190815260200160002060050160009054906101000a900460ff161515146110c6576040517f08c379a00000000000000000000000000000000000000000000000000000000081526004016110bd906121e9565b60405180910390fd5b6000600160008873ffffffffffffffffffffffffffffffffffffffff1673ffffffffffffffffffffffffffffffffffffffff16815260200190815260200160002060008781526020019081526020016000209050806004015481600301541115611144578060010181600701908161113e9190612234565b5061115a565b806002018160070190816111589190612234565b505b60018160050160006101000a81548160ff02191690831515021790555050505050505050565b611188611203565b600073ffffffffffffffffffffffffffffffffffffffff168173ffffffffffffffffffffffffffffffffffffffff16036111f7576040517f08c379a00000000000000000000000000000000000000000000000000000000081526004016111ee9061238e565b60405180910390fd5b61120081611281565b50565b61120b611345565b73ffffffffffffffffffffffffffffffffffffffff16611229610bcf565b73ffffffffffffffffffffffffffffffffffffffff161461127f576040517f08c379a0000000000000000000000000000000000000000000000000000000008152600401611276906123fa565b60405180910390fd5b565b60008060009054906101000a900473ffffffffffffffffffffffffffffffffffffffff169050816000806101000a81548173ffffffffffffffffffffffffffffffffffffffff021916908373ffffffffffffffffffffffffffffffffffffffff1602179055508173ffffffffffffffffffffffffffffffffffffffff168173ffffffffffffffffffffffffffffffffffffffff167f8be0079c531659141344cd1fd0a4f28419497f9722a3daafe3b4186f6b6457e060405160405180910390a35050565b600033905090565b6000604051905090565b600080fd5b600080fd5b600073ffffffffffffffffffffffffffffffffffffffff82169050919050565b600061138c82611361565b9050919050565b61139c81611381565b81146113a757600080fd5b50565b6000813590506113b981611393565b92915050565b6000819050919050565b6113d2816113bf565b81146113dd57600080fd5b50565b6000813590506113ef816113c9565b92915050565b6000806040838503121561140c5761140b611357565b5b600061141a858286016113aa565b925050602061142b858286016113e0565b9150509250929050565b60008115159050919050565b61144a81611435565b82525050565b60006020820190506114656000830184611441565b92915050565b6002811061147857600080fd5b50565b60008135905061148a8161146b565b92915050565b6000806000606084860312156114a9576114a8611357565b5b60006114b7868287016113aa565b93505060206114c8868287016113e0565b92505060406114d98682870161147b565b9150509250925092565b600080fd5b600080fd5b600080fd5b60008083601f840112611508576115076114e3565b5b8235905067ffffffffffffffff811115611525576115246114e8565b5b602083019150836001820283011115611541576115406114ed565b5b9250929050565b6000806000806040858703121561156257611561611357565b5b600085013567ffffffffffffffff8111156115805761157f61135c565b5b61158c878288016114f2565b9450945050602085013567ffffffffffffffff8111156115af576115ae61135c565b5b6115bb878288016114f2565b925092505092959194509250565b6115d2816113bf565b82525050565b60006020820190506115ed60008301846115c9565b92915050565b60006020828403121561160957611608611357565b5b6000611617848285016113aa565b91505092915050565b61162981611381565b82525050565b60006020820190506116446000830184611620565b92915050565b600081519050919050565b600082825260208201905092915050565b60005b83811015611684578082015181840152602081019050611669565b60008484015250505050565b6000601f19601f8301169050919050565b60006116ac8261164a565b6116b68185611655565b93506116c6818560208601611666565b6116cf81611690565b840191505092915050565b600060e0820190506116ef600083018a6115c9565b818103602083015261170181896116a1565b9050818103604083015261171581886116a1565b905061172460608301876115c9565b61173160808301866115c9565b61173e60a0830185611441565b81810360c083015261175081846116a1565b905098975050505050505050565b60006040820190506117736000830185611620565b6117806020830184611620565b9392505050565b600081519050611796816113c9565b92915050565b6000602082840312156117b2576117b1611357565b5b60006117c084828501611787565b91505092915050565b7f4e487b7100000000000000000000000000000000000000000000000000000000600052601160045260246000fd5b6000611803826113bf565b915061180e836113bf565b9250828203905081811115611826576118256117c9565b5b92915050565b6000819050919050565b6000819050919050565b600061185b6118566118518461182c565b611836565b6113bf565b9050919050565b61186b81611840565b82525050565b60006040820190506118866000830185611620565b6118936020830184611862565b9392505050565b60006040820190506118af6000830185611620565b6118bc60208301846115c9565b9392505050565b7f4e6f7420726561636820616e79206d696c6573746f6e65000000000000000000600082015250565b60006118f9601783611655565b9150611904826118c3565b602082019050919050565b60006020820190508181036000830152611928816118ec565b9050919050565b7f444541444c494e455f4558434545444544000000000000000000000000000000600082015250565b6000611965601183611655565b91506119708261192f565b602082019050919050565b6000602082019050818103600083015261199481611958565b9050919050565b7f416c726561647920766f7465206f72206e6f7420656c6c696769626c65000000600082015250565b60006119d1601d83611655565b91506119dc8261199b565b602082019050919050565b60006020820190508181036000830152611a00816119c4565b9050919050565b7f4e487b7100000000000000000000000000000000000000000000000000000000600052602160045260246000fd5b6000611a41826113bf565b9150611a4c836113bf565b9250828201905080821115611a6457611a636117c9565b5b92915050565b611a7381611435565b8114611a7e57600080fd5b50565b600081519050611a9081611a6a565b92915050565b600060208284031215611aac57611aab611357565b5b6000611aba84828501611a81565b91505092915050565b7f596f75206d757374207265676973746572206669727374000000000000000000600082015250565b6000611af9601783611655565b9150611b0482611ac3565b602082019050919050565b60006020820190508181036000830152611b2881611aec565b9050919050565b7f4e487b7100000000000000000000000000000000000000000000000000000000600052604160045260246000fd5b611b6782611690565b810181811067ffffffffffffffff82111715611b8657611b85611b2f565b5b80604052505050565b6000611b9961134d565b9050611ba58282611b5e565b919050565b600067ffffffffffffffff821115611bc557611bc4611b2f565b5b602082029050602081019050919050565b600080fd5b600067ffffffffffffffff821115611bf657611bf5611b2f565b5b611bff82611690565b9050602081019050919050565b6000611c1f611c1a84611bdb565b611b8f565b905082815260208101848484011115611c3b57611c3a611bd6565b5b611c46848285611666565b509392505050565b600082601f830112611c6357611c626114e3565b5b8151611c73848260208601611c0c565b91505092915050565b6000611c8f611c8a84611baa565b611b8f565b90508083825260208201905060208402830185811115611cb257611cb16114ed565b5b835b81811015611cf957805167ffffffffffffffff811115611cd757611cd66114e3565b5b808601611ce48982611c4e565b85526020850194505050602081019050611cb4565b5050509392505050565b600082601f830112611d1857611d176114e3565b5b8151611d28848260208601611c7c565b91505092915050565b600060208284031215611d4757611d46611357565b5b600082015167ffffffffffffffff811115611d6557611d6461135c565b5b611d7184828501611d03565b91505092915050565b7f43726561746f722068617665276e74207365747570204d696c6573746f6e652060008201527f4e465473207965742e0000000000000000000000000000000000000000000000602082015250565b6000611dd6602983611655565b9150611de182611d7a565b604082019050919050565b60006020820190508181036000830152611e0581611dc9565b9050919050565b600082905092915050565b7f4e487b7100000000000000000000000000000000000000000000000000000000600052602260045260246000fd5b60006002820490506001821680611e5e57607f821691505b602082108103611e7157611e70611e17565b5b50919050565b60008190508160005260206000209050919050565b60006020601f8301049050919050565b600082821b905092915050565b600060088302611ed97fffffffffffffffffffffffffffffffffffffffffffffffffffffffffffffffff82611e9c565b611ee38683611e9c565b95508019841693508086168417925050509392505050565b6000611f16611f11611f0c846113bf565b611836565b6113bf565b9050919050565b6000819050919050565b611f3083611efb565b611f44611f3c82611f1d565b848454611ea9565b825550505050565b600090565b611f59611f4c565b611f64818484611f27565b505050565b5b81811015611f8857611f7d600082611f51565b600181019050611f6a565b5050565b601f821115611fcd57611f9e81611e77565b611fa784611e8c565b81016020851015611fb6578190505b611fca611fc285611e8c565b830182611f69565b50505b505050565b600082821c905092915050565b6000611ff060001984600802611fd2565b1980831691505092915050565b60006120098383611fdf565b9150826002028217905092915050565b6120238383611e0c565b67ffffffffffffffff81111561203c5761203b611b2f565b5b6120468254611e46565b612051828285611f8c565b6000601f831160018114612080576000841561206e578287013590505b6120788582611ffd565b8655506120e0565b601f19841661208e86611e77565b60005b828110156120b657848901358255600182019150602085019450602081019050612091565b868310156120d357848901356120cf601f891682611fdf565b8355505b6001600288020188555050505b50505050505050565b60006120f4826113bf565b91507fffffffffffffffffffffffffffffffffffffffffffffffffffffffffffffffff8203612126576121256117c9565b5b600182019050919050565b7f444541444c494e455f4e4f545f45584345454445440000000000000000000000600082015250565b6000612167601583611655565b915061217282612131565b602082019050919050565b600060208201905081810360008301526121968161215a565b9050919050565b7f50524f504f53414c5f414c52454144595f455845435554454400000000000000600082015250565b60006121d3601983611655565b91506121de8261219d565b602082019050919050565b60006020820190508181036000830152612202816121c6565b9050919050565b60008154905061221881611e46565b9050919050565b60008190508160005260206000209050919050565b81810361224257505061231a565b61224b82612209565b67ffffffffffffffff81111561226457612263611b2f565b5b61226e8254611e46565b612279828285611f8c565b6000601f8311600181146122a85760008415612296578287015490505b6122a08582611ffd565b865550612313565b601f1984166122b68761221f565b96506122c186611e77565b60005b828110156122e9578489015482556001820191506001850194506020810190506122c4565b868310156123065784890154612302601f891682611fdf565b8355505b6001600288020188555050505b5050505050505b565b7f4f776e61626c653a206e6577206f776e657220697320746865207a65726f206160008201527f6464726573730000000000000000000000000000000000000000000000000000602082015250565b6000612378602683611655565b91506123838261231c565b604082019050919050565b600060208201905081810360008301526123a78161236b565b9050919050565b7f4f776e61626c653a2063616c6c6572206973206e6f7420746865206f776e6572600082015250565b60006123e4602083611655565b91506123ef826123ae565b602082019050919050565b60006020820190508181036000830152612413816123d7565b905091905056fea2646970667358221220b1ec795c301eef7a16ce7ee370eff185bf317c69e5df5927e2054a6a521b7ea164736f6c63430008110033",
  "devdoc": {
    "kind": "dev",
    "methods": {
      "IsCanVote(address,uint256)": {
        "details": "check if donators can vote"
      },
      "createProposal(string,string)": {
        "details": "createProposal allows a MilestoneNFT creator to create a new proposal in the DAO",
        "params": {
          "_option1": "- the option1 creator to make if this proposal pass if this proposal passes",
          "_option2": "- the option2 creator to make if this proposal pass if this proposal passes"
        },
        "returns": {
          "_0": "Returns the proposal index for the newly created proposal"
        }
      },
      "executeProposal(address,uint256)": {
        "details": "executeProposal allows any creator MilestoneNFTs holder to execute a proposal after it's deadline has been exceeded",
        "params": {
          "proposalIndex": "- the index of the proposal to execute in the proposals array"
        }
      },
      "getNumProposals(address)": {
        "details": "get numProposals for spesific creator"
      },
      "owner()": {
        "details": "Returns the address of the current owner."
      },
      "renounceOwnership()": {
        "details": "Leaves the contract without owner. It will not be possible to call `onlyOwner` functions anymore. Can only be called by the current owner. NOTE: Renouncing ownership will leave the contract without an owner, thereby removing any functionality that is only available to the owner."
      },
      "transferOwnership(address)": {
        "details": "Transfers ownership of the contract to a new account (`newOwner`). Can only be called by the current owner."
      },
      "voteOnProposal(address,uint256,uint8)": {
        "details": "voteOnProposal allows a creator MilestoneNFT holder to cast their vote on an active proposal",
        "params": {
          "creator": "- address of creator",
          "proposalIndex": "- the index of the proposal to vote on in the proposals array",
          "vote": "- the type of vote they want to cast"
        }
      }
    },
    "version": 1
  },
  "userdoc": {
    "kind": "user",
    "methods": {},
    "version": 1
  },
  "storageLayout": {
    "storage": [
      {
        "astId": 7,
        "contract": "contracts/CiriverseDAO.sol:CiriverseDAO",
        "label": "_owner",
        "offset": 0,
        "slot": "0",
        "type": "t_address"
      },
      {
        "astId": 3394,
        "contract": "contracts/CiriverseDAO.sol:CiriverseDAO",
        "label": "s_proposals",
        "offset": 0,
        "slot": "1",
        "type": "t_mapping(t_address,t_mapping(t_uint256,t_struct(Proposal)3387_storage))"
      },
      {
        "astId": 3398,
        "contract": "contracts/CiriverseDAO.sol:CiriverseDAO",
        "label": "numProposals",
        "offset": 0,
        "slot": "2",
        "type": "t_mapping(t_address,t_uint256)"
      },
      {
        "astId": 3400,
        "contract": "contracts/CiriverseDAO.sol:CiriverseDAO",
        "label": "milestoneAddress",
        "offset": 0,
        "slot": "3",
        "type": "t_address"
      }
    ],
    "types": {
      "t_address": {
        "encoding": "inplace",
        "label": "address",
        "numberOfBytes": "20"
      },
      "t_bool": {
        "encoding": "inplace",
        "label": "bool",
        "numberOfBytes": "1"
      },
      "t_mapping(t_address,t_mapping(t_uint256,t_struct(Proposal)3387_storage))": {
        "encoding": "mapping",
        "key": "t_address",
        "label": "mapping(address => mapping(uint256 => struct CiriverseDAO.Proposal))",
        "numberOfBytes": "32",
        "value": "t_mapping(t_uint256,t_struct(Proposal)3387_storage)"
      },
      "t_mapping(t_address,t_uint256)": {
        "encoding": "mapping",
        "key": "t_address",
        "label": "mapping(address => uint256)",
        "numberOfBytes": "32",
        "value": "t_uint256"
      },
      "t_mapping(t_uint256,t_struct(Proposal)3387_storage)": {
        "encoding": "mapping",
        "key": "t_uint256",
        "label": "mapping(uint256 => struct CiriverseDAO.Proposal)",
        "numberOfBytes": "32",
        "value": "t_struct(Proposal)3387_storage"
      },
      "t_string_storage": {
        "encoding": "bytes",
        "label": "string",
        "numberOfBytes": "32"
      },
      "t_struct(Proposal)3387_storage": {
        "encoding": "inplace",
        "label": "struct CiriverseDAO.Proposal",
        "members": [
          {
            "astId": 3370,
            "contract": "contracts/CiriverseDAO.sol:CiriverseDAO",
            "label": "deadline",
            "offset": 0,
            "slot": "0",
            "type": "t_uint256"
          },
          {
            "astId": 3372,
            "contract": "contracts/CiriverseDAO.sol:CiriverseDAO",
            "label": "option1",
            "offset": 0,
            "slot": "1",
            "type": "t_string_storage"
          },
          {
            "astId": 3374,
            "contract": "contracts/CiriverseDAO.sol:CiriverseDAO",
            "label": "option2",
            "offset": 0,
            "slot": "2",
            "type": "t_string_storage"
          },
          {
            "astId": 3376,
            "contract": "contracts/CiriverseDAO.sol:CiriverseDAO",
            "label": "votesOpt1",
            "offset": 0,
            "slot": "3",
            "type": "t_uint256"
          },
          {
            "astId": 3378,
            "contract": "contracts/CiriverseDAO.sol:CiriverseDAO",
            "label": "votesOpt2",
            "offset": 0,
            "slot": "4",
            "type": "t_uint256"
          },
          {
            "astId": 3380,
            "contract": "contracts/CiriverseDAO.sol:CiriverseDAO",
            "label": "executed",
            "offset": 0,
            "slot": "5",
            "type": "t_bool"
          },
          {
            "astId": 3384,
            "contract": "contracts/CiriverseDAO.sol:CiriverseDAO",
            "label": "voters",
            "offset": 0,
            "slot": "6",
            "type": "t_mapping(t_address,t_uint256)"
          },
          {
            "astId": 3386,
            "contract": "contracts/CiriverseDAO.sol:CiriverseDAO",
            "label": "result",
            "offset": 0,
            "slot": "7",
            "type": "t_string_storage"
          }
        ],
        "numberOfBytes": "256"
      },
      "t_uint256": {
        "encoding": "inplace",
        "label": "uint256",
        "numberOfBytes": "32"
      }
    }
  }
}