{
  "address": "0x01Ebab7B1D0Ae2064311E7054844CE5c8dB96d96",
  "abi": [
    {
      "inputs": [
        {
          "internalType": "address",
          "name": "_milestoneAddress",
          "type": "address"
        }
      ],
      "stateMutability": "nonpayable",
      "type": "constructor"
    },
    {
      "anonymous": false,
      "inputs": [
        {
          "indexed": true,
          "internalType": "address",
          "name": "owner",
          "type": "address"
        },
        {
          "indexed": true,
          "internalType": "address",
          "name": "approved",
          "type": "address"
        },
        {
          "indexed": true,
          "internalType": "uint256",
          "name": "tokenId",
          "type": "uint256"
        }
      ],
      "name": "Approval",
      "type": "event"
    },
    {
      "anonymous": false,
      "inputs": [
        {
          "indexed": true,
          "internalType": "address",
          "name": "owner",
          "type": "address"
        },
        {
          "indexed": true,
          "internalType": "address",
          "name": "operator",
          "type": "address"
        },
        {
          "indexed": false,
          "internalType": "bool",
          "name": "approved",
          "type": "bool"
        }
      ],
      "name": "ApprovalForAll",
      "type": "event"
    },
    {
      "anonymous": false,
      "inputs": [
        {
          "indexed": true,
          "internalType": "address",
          "name": "donator",
          "type": "address"
        },
        {
          "indexed": false,
          "internalType": "uint256",
          "name": "tokenId",
          "type": "uint256"
        }
      ],
      "name": "MintCollectible",
      "type": "event"
    },
    {
      "anonymous": false,
      "inputs": [
        {
          "indexed": true,
          "internalType": "address",
          "name": "from",
          "type": "address"
        },
        {
          "indexed": true,
          "internalType": "address",
          "name": "to",
          "type": "address"
        },
        {
          "indexed": true,
          "internalType": "uint256",
          "name": "tokenId",
          "type": "uint256"
        }
      ],
      "name": "Transfer",
      "type": "event"
    },
    {
      "inputs": [],
      "name": "MAX_COLLECTIBLE",
      "outputs": [
        {
          "internalType": "uint256",
          "name": "",
          "type": "uint256"
        }
      ],
      "stateMutability": "view",
      "type": "function"
    },
    {
      "inputs": [
        {
          "internalType": "string",
          "name": "_URI",
          "type": "string"
        },
        {
          "internalType": "uint256",
          "name": "price",
          "type": "uint256"
        }
      ],
      "name": "addCollectible",
      "outputs": [],
      "stateMutability": "nonpayable",
      "type": "function"
    },
    {
      "inputs": [
        {
          "internalType": "address",
          "name": "to",
          "type": "address"
        },
        {
          "internalType": "uint256",
          "name": "tokenId",
          "type": "uint256"
        }
      ],
      "name": "approve",
      "outputs": [],
      "stateMutability": "nonpayable",
      "type": "function"
    },
    {
      "inputs": [
        {
          "internalType": "address",
          "name": "owner",
          "type": "address"
        }
      ],
      "name": "balanceOf",
      "outputs": [
        {
          "internalType": "uint256",
          "name": "",
          "type": "uint256"
        }
      ],
      "stateMutability": "view",
      "type": "function"
    },
    {
      "inputs": [
        {
          "internalType": "uint256",
          "name": "tokenId",
          "type": "uint256"
        }
      ],
      "name": "getApproved",
      "outputs": [
        {
          "internalType": "address",
          "name": "",
          "type": "address"
        }
      ],
      "stateMutability": "view",
      "type": "function"
    },
    {
      "inputs": [
        {
          "internalType": "address",
          "name": "creator",
          "type": "address"
        },
        {
          "internalType": "uint256",
          "name": "index",
          "type": "uint256"
        }
      ],
      "name": "getCollectibleAt",
      "outputs": [
        {
          "components": [
            {
              "internalType": "uint256",
              "name": "price",
              "type": "uint256"
            },
            {
              "internalType": "string",
              "name": "URI",
              "type": "string"
            },
            {
              "internalType": "uint256",
              "name": "tokenId",
              "type": "uint256"
            },
            {
              "internalType": "bool",
              "name": "minted",
              "type": "bool"
            },
            {
              "internalType": "bool",
              "name": "exist",
              "type": "bool"
            }
          ],
          "internalType": "struct CollectibleNFT.Collectible",
          "name": "",
          "type": "tuple"
        }
      ],
      "stateMutability": "view",
      "type": "function"
    },
    {
      "inputs": [
        {
          "internalType": "address",
          "name": "creator",
          "type": "address"
        }
      ],
      "name": "getCollectibles",
      "outputs": [
        {
          "components": [
            {
              "internalType": "uint256",
              "name": "price",
              "type": "uint256"
            },
            {
              "internalType": "string",
              "name": "URI",
              "type": "string"
            },
            {
              "internalType": "uint256",
              "name": "tokenId",
              "type": "uint256"
            },
            {
              "internalType": "bool",
              "name": "minted",
              "type": "bool"
            },
            {
              "internalType": "bool",
              "name": "exist",
              "type": "bool"
            }
          ],
          "internalType": "struct CollectibleNFT.Collectible[]",
          "name": "",
          "type": "tuple[]"
        }
      ],
      "stateMutability": "view",
      "type": "function"
    },
    {
      "inputs": [
        {
          "internalType": "address",
          "name": "owner",
          "type": "address"
        },
        {
          "internalType": "address",
          "name": "operator",
          "type": "address"
        }
      ],
      "name": "isApprovedForAll",
      "outputs": [
        {
          "internalType": "bool",
          "name": "",
          "type": "bool"
        }
      ],
      "stateMutability": "view",
      "type": "function"
    },
    {
      "inputs": [
        {
          "internalType": "address",
          "name": "creator",
          "type": "address"
        },
        {
          "internalType": "uint256",
          "name": "index",
          "type": "uint256"
        }
      ],
      "name": "isCollectibleCanMintAt",
      "outputs": [
        {
          "internalType": "bool",
          "name": "",
          "type": "bool"
        }
      ],
      "stateMutability": "view",
      "type": "function"
    },
    {
      "inputs": [
        {
          "internalType": "address",
          "name": "creator",
          "type": "address"
        }
      ],
      "name": "isLessCollectible",
      "outputs": [
        {
          "internalType": "bool",
          "name": "",
          "type": "bool"
        }
      ],
      "stateMutability": "view",
      "type": "function"
    },
    {
      "inputs": [
        {
          "internalType": "address",
          "name": "creator",
          "type": "address"
        },
        {
          "internalType": "uint256",
          "name": "index",
          "type": "uint256"
        }
      ],
      "name": "mintToken",
      "outputs": [
        {
          "internalType": "uint256",
          "name": "",
          "type": "uint256"
        }
      ],
      "stateMutability": "payable",
      "type": "function"
    },
    {
      "inputs": [],
      "name": "name",
      "outputs": [
        {
          "internalType": "string",
          "name": "",
          "type": "string"
        }
      ],
      "stateMutability": "view",
      "type": "function"
    },
    {
      "inputs": [
        {
          "internalType": "uint256",
          "name": "tokenId",
          "type": "uint256"
        }
      ],
      "name": "ownerOf",
      "outputs": [
        {
          "internalType": "address",
          "name": "",
          "type": "address"
        }
      ],
      "stateMutability": "view",
      "type": "function"
    },
    {
      "inputs": [
        {
          "internalType": "address",
          "name": "from",
          "type": "address"
        },
        {
          "internalType": "address",
          "name": "to",
          "type": "address"
        },
        {
          "internalType": "uint256",
          "name": "tokenId",
          "type": "uint256"
        }
      ],
      "name": "safeTransferFrom",
      "outputs": [],
      "stateMutability": "nonpayable",
      "type": "function"
    },
    {
      "inputs": [
        {
          "internalType": "address",
          "name": "from",
          "type": "address"
        },
        {
          "internalType": "address",
          "name": "to",
          "type": "address"
        },
        {
          "internalType": "uint256",
          "name": "tokenId",
          "type": "uint256"
        },
        {
          "internalType": "bytes",
          "name": "data",
          "type": "bytes"
        }
      ],
      "name": "safeTransferFrom",
      "outputs": [],
      "stateMutability": "nonpayable",
      "type": "function"
    },
    {
      "inputs": [
        {
          "internalType": "address",
          "name": "operator",
          "type": "address"
        },
        {
          "internalType": "bool",
          "name": "approved",
          "type": "bool"
        }
      ],
      "name": "setApprovalForAll",
      "outputs": [],
      "stateMutability": "nonpayable",
      "type": "function"
    },
    {
      "inputs": [
        {
          "internalType": "bytes4",
          "name": "interfaceId",
          "type": "bytes4"
        }
      ],
      "name": "supportsInterface",
      "outputs": [
        {
          "internalType": "bool",
          "name": "",
          "type": "bool"
        }
      ],
      "stateMutability": "view",
      "type": "function"
    },
    {
      "inputs": [],
      "name": "symbol",
      "outputs": [
        {
          "internalType": "string",
          "name": "",
          "type": "string"
        }
      ],
      "stateMutability": "view",
      "type": "function"
    },
    {
      "inputs": [
        {
          "internalType": "uint256",
          "name": "tokenId",
          "type": "uint256"
        }
      ],
      "name": "tokenURI",
      "outputs": [
        {
          "internalType": "string",
          "name": "",
          "type": "string"
        }
      ],
      "stateMutability": "view",
      "type": "function"
    },
    {
      "inputs": [
        {
          "internalType": "address",
          "name": "from",
          "type": "address"
        },
        {
          "internalType": "address",
          "name": "to",
          "type": "address"
        },
        {
          "internalType": "uint256",
          "name": "tokenId",
          "type": "uint256"
        }
      ],
      "name": "transferFrom",
      "outputs": [],
      "stateMutability": "nonpayable",
      "type": "function"
    }
  ],
  "transactionHash": "0x5e26d83b6e2110f4d4aa8b432a11b00ba0e440e5b932ff3b6ca69c693da64d71",
  "args": [
    "0xd8d78614A02A543f0fc27c1e4F41DF087816F98e"
  ],
  "numDeployments": 1,
  "solcInputHash": "199793347039e078abad984a86bd19ec",
  "bytecode": "0x60806040523480156200001157600080fd5b506040516200409b3803806200409b833981810160405281019062000037919062000183565b6040518060400160405280601081526020017f436f6c6c65637469626c652043697269000000000000000000000000000000008152506040518060400160405280600581526020017f43697269730000000000000000000000000000000000000000000000000000008152508160009081620000b491906200042f565b508060019081620000c691906200042f565b505050600160078190555080600960006101000a81548173ffffffffffffffffffffffffffffffffffffffff021916908373ffffffffffffffffffffffffffffffffffffffff1602179055505062000516565b600080fd5b600073ffffffffffffffffffffffffffffffffffffffff82169050919050565b60006200014b826200011e565b9050919050565b6200015d816200013e565b81146200016957600080fd5b50565b6000815190506200017d8162000152565b92915050565b6000602082840312156200019c576200019b62000119565b5b6000620001ac848285016200016c565b91505092915050565b600081519050919050565b7f4e487b7100000000000000000000000000000000000000000000000000000000600052604160045260246000fd5b7f4e487b7100000000000000000000000000000000000000000000000000000000600052602260045260246000fd5b600060028204905060018216806200023757607f821691505b6020821081036200024d576200024c620001ef565b5b50919050565b60008190508160005260206000209050919050565b60006020601f8301049050919050565b600082821b905092915050565b600060088302620002b77fffffffffffffffffffffffffffffffffffffffffffffffffffffffffffffffff8262000278565b620002c3868362000278565b95508019841693508086168417925050509392505050565b6000819050919050565b6000819050919050565b6000620003106200030a6200030484620002db565b620002e5565b620002db565b9050919050565b6000819050919050565b6200032c83620002ef565b620003446200033b8262000317565b84845462000285565b825550505050565b600090565b6200035b6200034c565b6200036881848462000321565b505050565b5b8181101562000390576200038460008262000351565b6001810190506200036e565b5050565b601f821115620003df57620003a98162000253565b620003b48462000268565b81016020851015620003c4578190505b620003dc620003d38562000268565b8301826200036d565b50505b505050565b600082821c905092915050565b60006200040460001984600802620003e4565b1980831691505092915050565b60006200041f8383620003f1565b9150826002028217905092915050565b6200043a82620001b5565b67ffffffffffffffff811115620004565762000455620001c0565b5b6200046282546200021e565b6200046f82828562000394565b600060209050601f831160018114620004a7576000841562000492578287015190505b6200049e858262000411565b8655506200050e565b601f198416620004b78662000253565b60005b82811015620004e157848901518255600182019150602085019450602081019050620004ba565b86831015620005015784890151620004fd601f891682620003f1565b8355505b6001600288020188555050505b505050505050565b613b7580620005266000396000f3fe60806040526004361061011f5760003560e01c806395d89b41116100a0578063b88d4fde11610064578063b88d4fde14610436578063c87b56dd1461045f578063d16447241461049c578063d2239721146104c5578063e985e9c5146104f05761011f565b806395d89b411461032b578063a22cb46514610356578063a2bf4e091461037f578063ab7e9c96146103bc578063b12a9668146103f95761011f565b806323b872dd116100e757806323b872dd1461022f57806342842e0e146102585780636352211e1461028157806370a08231146102be57806379c65068146102fb5761011f565b806301ffc9a71461012457806306fdde0314610161578063081812fc1461018c578063095ea7b3146101c95780630b76bab5146101f2575b600080fd5b34801561013057600080fd5b5061014b60048036038101906101469190612433565b61052d565b604051610158919061247b565b60405180910390f35b34801561016d57600080fd5b5061017661060f565b6040516101839190612526565b60405180910390f35b34801561019857600080fd5b506101b360048036038101906101ae919061257e565b6106a1565b6040516101c091906125ec565b60405180910390f35b3480156101d557600080fd5b506101f060048036038101906101eb9190612633565b6106e7565b005b3480156101fe57600080fd5b5061021960048036038101906102149190612673565b6107fe565b604051610226919061247b565b60405180910390f35b34801561023b57600080fd5b50610256600480360381019061025191906126a0565b61084c565b005b34801561026457600080fd5b5061027f600480360381019061027a91906126a0565b6108ac565b005b34801561028d57600080fd5b506102a860048036038101906102a3919061257e565b6108cc565b6040516102b591906125ec565b60405180910390f35b3480156102ca57600080fd5b506102e560048036038101906102e09190612673565b61097d565b6040516102f29190612702565b60405180910390f35b61031560048036038101906103109190612633565b610a34565b6040516103229190612702565b60405180910390f35b34801561033757600080fd5b50610340610c33565b60405161034d9190612526565b60405180910390f35b34801561036257600080fd5b5061037d60048036038101906103789190612749565b610cc5565b005b34801561038b57600080fd5b506103a660048036038101906103a19190612633565b610cdb565b6040516103b39190612867565b60405180910390f35b3480156103c857600080fd5b506103e360048036038101906103de9190612673565b610e31565b6040516103f091906129c1565b60405180910390f35b34801561040557600080fd5b50610420600480360381019061041b9190612633565b610fab565b60405161042d919061247b565b60405180910390f35b34801561044257600080fd5b5061045d60048036038101906104589190612b18565b611150565b005b34801561046b57600080fd5b506104866004803603810190610481919061257e565b6111b2565b6040516104939190612526565b60405180910390f35b3480156104a857600080fd5b506104c360048036038101906104be9190612bfb565b6112c4565b005b3480156104d157600080fd5b506104da61156e565b6040516104e79190612702565b60405180910390f35b3480156104fc57600080fd5b5061051760048036038101906105129190612c5b565b611573565b604051610524919061247b565b60405180910390f35b60007f80ac58cd000000000000000000000000000000000000000000000000000000007bffffffffffffffffffffffffffffffffffffffffffffffffffffffff1916827bffffffffffffffffffffffffffffffffffffffffffffffffffffffff191614806105f857507f5b5e139f000000000000000000000000000000000000000000000000000000007bffffffffffffffffffffffffffffffffffffffffffffffffffffffff1916827bffffffffffffffffffffffffffffffffffffffffffffffffffffffff1916145b80610608575061060782611607565b5b9050919050565b60606000805461061e90612cca565b80601f016020809104026020016040519081016040528092919081815260200182805461064a90612cca565b80156106975780601f1061066c57610100808354040283529160200191610697565b820191906000526020600020905b81548152906001019060200180831161067a57829003601f168201915b5050505050905090565b60006106ac82611671565b6004600083815260200190815260200160002060009054906101000a900473ffffffffffffffffffffffffffffffffffffffff169050919050565b60006106f2826108cc565b90508073ffffffffffffffffffffffffffffffffffffffff168373ffffffffffffffffffffffffffffffffffffffff1603610762576040517f08c379a000000000000000000000000000000000000000000000000000000000815260040161075990612d6d565b60405180910390fd5b8073ffffffffffffffffffffffffffffffffffffffff166107816116bc565b73ffffffffffffffffffffffffffffffffffffffff1614806107b057506107af816107aa6116bc565b611573565b5b6107ef576040517f08c379a00000000000000000000000000000000000000000000000000000000081526004016107e690612dff565b60405180910390fd5b6107f983836116c4565b505050565b6000600a8060008473ffffffffffffffffffffffffffffffffffffffff1673ffffffffffffffffffffffffffffffffffffffff16815260200190815260200160002080549050109050919050565b61085d6108576116bc565b8261177d565b61089c576040517f08c379a000000000000000000000000000000000000000000000000000000000815260040161089390612e91565b60405180910390fd5b6108a7838383611812565b505050565b6108c783838360405180602001604052806000815250611150565b505050565b6000806002600084815260200190815260200160002060009054906101000a900473ffffffffffffffffffffffffffffffffffffffff169050600073ffffffffffffffffffffffffffffffffffffffff168173ffffffffffffffffffffffffffffffffffffffff1603610974576040517f08c379a000000000000000000000000000000000000000000000000000000000815260040161096b90612efd565b60405180910390fd5b80915050919050565b60008073ffffffffffffffffffffffffffffffffffffffff168273ffffffffffffffffffffffffffffffffffffffff16036109ed576040517f08c379a00000000000000000000000000000000000000000000000000000000081526004016109e490612f8f565b60405180910390fd5b600360008373ffffffffffffffffffffffffffffffffffffffff1673ffffffffffffffffffffffffffffffffffffffff168152602001908152602001600020549050919050565b600080610a418484610fab565b905080610a83576040517f08c379a0000000000000000000000000000000000000000000000000000000008152600401610a7a90612ffb565b60405180910390fd5b6000610a8f8585610cdb565b60000151905080341015610ad8576040517f08c379a0000000000000000000000000000000000000000000000000000000008152600401610acf90613067565b60405180910390fd5b6000610ae48686610cdb565b602001519050610af46008611a78565b6000610b006008611a8e565b9050610b0c8787611a9c565b610b163382611b1b565b610b21878783611cf4565b610b2b8183611d60565b60008773ffffffffffffffffffffffffffffffffffffffff1634604051610b51906130b8565b60006040518083038185875af1925050503d8060008114610b8e576040519150601f19603f3d011682016040523d82523d6000602084013e610b93565b606091505b5050905080610bd7576040517f08c379a0000000000000000000000000000000000000000000000000000000008152600401610bce90613119565b60405180910390fd5b3373ffffffffffffffffffffffffffffffffffffffff167f7b98dfe4730a9bcc2a39d7fd67be2cb140c71a37cd29e253137de8591e7bd45b83604051610c1d9190612702565b60405180910390a2819550505050505092915050565b606060018054610c4290612cca565b80601f0160208091040260200160405190810160405280929190818152602001828054610c6e90612cca565b8015610cbb5780601f10610c9057610100808354040283529160200191610cbb565b820191906000526020600020905b815481529060010190602001808311610c9e57829003601f168201915b5050505050905090565b610cd7610cd06116bc565b8383611dcd565b5050565b610ce3612394565b600a60008473ffffffffffffffffffffffffffffffffffffffff1673ffffffffffffffffffffffffffffffffffffffff1681526020019081526020016000208281548110610d3457610d33613139565b5b90600052602060002090600402016040518060a001604052908160008201548152602001600182018054610d6790612cca565b80601f0160208091040260200160405190810160405280929190818152602001828054610d9390612cca565b8015610de05780601f10610db557610100808354040283529160200191610de0565b820191906000526020600020905b815481529060010190602001808311610dc357829003601f168201915b50505050508152602001600282015481526020016003820160009054906101000a900460ff161515151581526020016003820160019054906101000a900460ff161515151581525050905092915050565b6060600a60008373ffffffffffffffffffffffffffffffffffffffff1673ffffffffffffffffffffffffffffffffffffffff168152602001908152602001600020805480602002602001604051908101604052809291908181526020016000905b82821015610fa057838290600052602060002090600402016040518060a001604052908160008201548152602001600182018054610ecf90612cca565b80601f0160208091040260200160405190810160405280929190818152602001828054610efb90612cca565b8015610f485780601f10610f1d57610100808354040283529160200191610f48565b820191906000526020600020905b815481529060010190602001808311610f2b57829003601f168201915b50505050508152602001600282015481526020016003820160009054906101000a900460ff161515151581526020016003820160019054906101000a900460ff16151515158152505081526020019060010190610e92565b505050509050919050565b600080600a60008573ffffffffffffffffffffffffffffffffffffffff1673ffffffffffffffffffffffffffffffffffffffff1681526020019081526020016000208054905003610fff576000905061114a565b600a60008473ffffffffffffffffffffffffffffffffffffffff1673ffffffffffffffffffffffffffffffffffffffff1681526020019081526020016000208054905060018361104f9190613197565b111561105e576000905061114a565b600a60008473ffffffffffffffffffffffffffffffffffffffff1673ffffffffffffffffffffffffffffffffffffffff16815260200190815260200160002082815481106110af576110ae613139565b5b906000526020600020906004020160030160009054906101000a900460ff161580156111475750600a60008473ffffffffffffffffffffffffffffffffffffffff1673ffffffffffffffffffffffffffffffffffffffff168152602001908152602001600020828154811061112757611126613139565b5b906000526020600020906004020160030160019054906101000a900460ff165b90505b92915050565b61116161115b6116bc565b8361177d565b6111a0576040517f08c379a000000000000000000000000000000000000000000000000000000000815260040161119790612e91565b60405180910390fd5b6111ac84848484611f39565b50505050565b60606111bd82611671565b60006006600084815260200190815260200160002080546111dd90612cca565b80601f016020809104026020016040519081016040528092919081815260200182805461120990612cca565b80156112565780601f1061122b57610100808354040283529160200191611256565b820191906000526020600020905b81548152906001019060200180831161123957829003601f168201915b505050505090506000611267611f95565b9050600081510361127c5781925050506112bf565b6000825111156112b1578082604051602001611299929190613207565b604051602081830303815290604052925050506112bf565b6112ba84611fac565b925050505b919050565b600960009054906101000a900473ffffffffffffffffffffffffffffffffffffffff1673ffffffffffffffffffffffffffffffffffffffff1663efd46065336040518263ffffffff1660e01b815260040161131f91906125ec565b602060405180830381865afa15801561133c573d6000803e3d6000fd5b505050506040513d601f19601f820116820180604052508101906113609190613240565b61139f576040517f08c379a0000000000000000000000000000000000000000000000000000000008152600401611396906132b9565b60405180910390fd5b600a8060003373ffffffffffffffffffffffffffffffffffffffff1673ffffffffffffffffffffffffffffffffffffffff1681526020019081526020016000208054905010611423576040517f08c379a000000000000000000000000000000000000000000000000000000000815260040161141a90613325565b60405180910390fd5b600a60003373ffffffffffffffffffffffffffffffffffffffff1673ffffffffffffffffffffffffffffffffffffffff1681526020019081526020016000206040518060a0016040528083815260200185858080601f016020809104026020016040519081016040528093929190818152602001838380828437600081840152601f19601f8201169050808301925050505050505081526020016000815260200160001515815260200160011515815250908060018154018082558091505060019003906000526020600020906004020160009091909190915060008201518160000155602082015181600101908161151c91906134f1565b506040820151816002015560608201518160030160006101000a81548160ff02191690831515021790555060808201518160030160016101000a81548160ff0219169083151502179055505050505050565b600a81565b6000600560008473ffffffffffffffffffffffffffffffffffffffff1673ffffffffffffffffffffffffffffffffffffffff16815260200190815260200160002060008373ffffffffffffffffffffffffffffffffffffffff1673ffffffffffffffffffffffffffffffffffffffff16815260200190815260200160002060009054906101000a900460ff16905092915050565b60007f01ffc9a7000000000000000000000000000000000000000000000000000000007bffffffffffffffffffffffffffffffffffffffffffffffffffffffff1916827bffffffffffffffffffffffffffffffffffffffffffffffffffffffff1916149050919050565b61167a81612014565b6116b9576040517f08c379a00000000000000000000000000000000000000000000000000000000081526004016116b090612efd565b60405180910390fd5b50565b600033905090565b816004600083815260200190815260200160002060006101000a81548173ffffffffffffffffffffffffffffffffffffffff021916908373ffffffffffffffffffffffffffffffffffffffff160217905550808273ffffffffffffffffffffffffffffffffffffffff16611737836108cc565b73ffffffffffffffffffffffffffffffffffffffff167f8c5be1e5ebec7d5bd14f71427d1e84f3dd0314c0f7b2291e5b200ac8c7c3b92560405160405180910390a45050565b600080611789836108cc565b90508073ffffffffffffffffffffffffffffffffffffffff168473ffffffffffffffffffffffffffffffffffffffff1614806117cb57506117ca8185611573565b5b8061180957508373ffffffffffffffffffffffffffffffffffffffff166117f1846106a1565b73ffffffffffffffffffffffffffffffffffffffff16145b91505092915050565b8273ffffffffffffffffffffffffffffffffffffffff16611832826108cc565b73ffffffffffffffffffffffffffffffffffffffff1614611888576040517f08c379a000000000000000000000000000000000000000000000000000000000815260040161187f90613635565b60405180910390fd5b600073ffffffffffffffffffffffffffffffffffffffff168273ffffffffffffffffffffffffffffffffffffffff16036118f7576040517f08c379a00000000000000000000000000000000000000000000000000000000081526004016118ee906136c7565b60405180910390fd5b611902838383612080565b61190d6000826116c4565b6001600360008573ffffffffffffffffffffffffffffffffffffffff1673ffffffffffffffffffffffffffffffffffffffff168152602001908152602001600020600082825461195d91906136e7565b925050819055506001600360008473ffffffffffffffffffffffffffffffffffffffff1673ffffffffffffffffffffffffffffffffffffffff16815260200190815260200160002060008282546119b49190613197565b92505081905550816002600083815260200190815260200160002060006101000a81548173ffffffffffffffffffffffffffffffffffffffff021916908373ffffffffffffffffffffffffffffffffffffffff160217905550808273ffffffffffffffffffffffffffffffffffffffff168473ffffffffffffffffffffffffffffffffffffffff167fddf252ad1be2c89b69c2b068fc378daa952ba7f163c4a11628f55a4df523b3ef60405160405180910390a4611a73838383612085565b505050565b6001816000016000828254019250508190555050565b600081600001549050919050565b6001600a60008473ffffffffffffffffffffffffffffffffffffffff1673ffffffffffffffffffffffffffffffffffffffff1681526020019081526020016000208281548110611aef57611aee613139565b5b906000526020600020906004020160030160006101000a81548160ff0219169083151502179055505050565b600073ffffffffffffffffffffffffffffffffffffffff168273ffffffffffffffffffffffffffffffffffffffff1603611b8a576040517f08c379a0000000000000000000000000000000000000000000000000000000008152600401611b8190613767565b60405180910390fd5b611b9381612014565b15611bd3576040517f08c379a0000000000000000000000000000000000000000000000000000000008152600401611bca906137d3565b60405180910390fd5b611bdf60008383612080565b6001600360008473ffffffffffffffffffffffffffffffffffffffff1673ffffffffffffffffffffffffffffffffffffffff1681526020019081526020016000206000828254611c2f9190613197565b92505081905550816002600083815260200190815260200160002060006101000a81548173ffffffffffffffffffffffffffffffffffffffff021916908373ffffffffffffffffffffffffffffffffffffffff160217905550808273ffffffffffffffffffffffffffffffffffffffff16600073ffffffffffffffffffffffffffffffffffffffff167fddf252ad1be2c89b69c2b068fc378daa952ba7f163c4a11628f55a4df523b3ef60405160405180910390a4611cf060008383612085565b5050565b80600a60008573ffffffffffffffffffffffffffffffffffffffff1673ffffffffffffffffffffffffffffffffffffffff1681526020019081526020016000208381548110611d4657611d45613139565b5b906000526020600020906004020160020181905550505050565b611d6982612014565b611da8576040517f08c379a0000000000000000000000000000000000000000000000000000000008152600401611d9f90613865565b60405180910390fd5b80600660008481526020019081526020016000209081611dc891906134f1565b505050565b8173ffffffffffffffffffffffffffffffffffffffff168373ffffffffffffffffffffffffffffffffffffffff1603611e3b576040517f08c379a0000000000000000000000000000000000000000000000000000000008152600401611e32906138d1565b60405180910390fd5b80600560008573ffffffffffffffffffffffffffffffffffffffff1673ffffffffffffffffffffffffffffffffffffffff16815260200190815260200160002060008473ffffffffffffffffffffffffffffffffffffffff1673ffffffffffffffffffffffffffffffffffffffff16815260200190815260200160002060006101000a81548160ff0219169083151502179055508173ffffffffffffffffffffffffffffffffffffffff168373ffffffffffffffffffffffffffffffffffffffff167f17307eab39ab6107e8899845ad3d59bd9653f200f220920489ca2b5937696c3183604051611f2c919061247b565b60405180910390a3505050565b611f44848484611812565b611f508484848461208a565b611f8f576040517f08c379a0000000000000000000000000000000000000000000000000000000008152600401611f8690613963565b60405180910390fd5b50505050565b606060405180602001604052806000815250905090565b6060611fb782611671565b6000611fc1611f95565b90506000815111611fe1576040518060200160405280600081525061200c565b80611feb84612211565b604051602001611ffc929190613207565b6040516020818303038152906040525b915050919050565b60008073ffffffffffffffffffffffffffffffffffffffff166002600084815260200190815260200160002060009054906101000a900473ffffffffffffffffffffffffffffffffffffffff1673ffffffffffffffffffffffffffffffffffffffff1614159050919050565b505050565b505050565b60006120ab8473ffffffffffffffffffffffffffffffffffffffff16612371565b15612204578373ffffffffffffffffffffffffffffffffffffffff1663150b7a026120d46116bc565b8786866040518563ffffffff1660e01b81526004016120f694939291906139d8565b6020604051808303816000875af192505050801561213257506040513d601f19601f8201168201806040525081019061212f9190613a39565b60015b6121b4573d8060008114612162576040519150601f19603f3d011682016040523d82523d6000602084013e612167565b606091505b5060008151036121ac576040517f08c379a00000000000000000000000000000000000000000000000000000000081526004016121a390613963565b60405180910390fd5b805181602001fd5b63150b7a0260e01b7bffffffffffffffffffffffffffffffffffffffffffffffffffffffff1916817bffffffffffffffffffffffffffffffffffffffffffffffffffffffff191614915050612209565b600190505b949350505050565b606060008203612258576040518060400160405280600181526020017f3000000000000000000000000000000000000000000000000000000000000000815250905061236c565b600082905060005b6000821461228a57808061227390613a66565b915050600a826122839190613add565b9150612260565b60008167ffffffffffffffff8111156122a6576122a56129ed565b5b6040519080825280601f01601f1916602001820160405280156122d85781602001600182028036833780820191505090505b5090505b60008514612365576001826122f191906136e7565b9150600a856123009190613b0e565b603061230c9190613197565b60f81b81838151811061232257612321613139565b5b60200101907effffffffffffffffffffffffffffffffffffffffffffffffffffffffffffff1916908160001a905350600a8561235e9190613add565b94506122dc565b8093505050505b919050565b6000808273ffffffffffffffffffffffffffffffffffffffff163b119050919050565b6040518060a001604052806000815260200160608152602001600081526020016000151581526020016000151581525090565b6000604051905090565b600080fd5b600080fd5b60007fffffffff0000000000000000000000000000000000000000000000000000000082169050919050565b612410816123db565b811461241b57600080fd5b50565b60008135905061242d81612407565b92915050565b600060208284031215612449576124486123d1565b5b60006124578482850161241e565b91505092915050565b60008115159050919050565b61247581612460565b82525050565b6000602082019050612490600083018461246c565b92915050565b600081519050919050565b600082825260208201905092915050565b60005b838110156124d05780820151818401526020810190506124b5565b60008484015250505050565b6000601f19601f8301169050919050565b60006124f882612496565b61250281856124a1565b93506125128185602086016124b2565b61251b816124dc565b840191505092915050565b6000602082019050818103600083015261254081846124ed565b905092915050565b6000819050919050565b61255b81612548565b811461256657600080fd5b50565b60008135905061257881612552565b92915050565b600060208284031215612594576125936123d1565b5b60006125a284828501612569565b91505092915050565b600073ffffffffffffffffffffffffffffffffffffffff82169050919050565b60006125d6826125ab565b9050919050565b6125e6816125cb565b82525050565b600060208201905061260160008301846125dd565b92915050565b612610816125cb565b811461261b57600080fd5b50565b60008135905061262d81612607565b92915050565b6000806040838503121561264a576126496123d1565b5b60006126588582860161261e565b925050602061266985828601612569565b9150509250929050565b600060208284031215612689576126886123d1565b5b60006126978482850161261e565b91505092915050565b6000806000606084860312156126b9576126b86123d1565b5b60006126c78682870161261e565b93505060206126d88682870161261e565b92505060406126e986828701612569565b9150509250925092565b6126fc81612548565b82525050565b600060208201905061271760008301846126f3565b92915050565b61272681612460565b811461273157600080fd5b50565b6000813590506127438161271d565b92915050565b600080604083850312156127605761275f6123d1565b5b600061276e8582860161261e565b925050602061277f85828601612734565b9150509250929050565b61279281612548565b82525050565b600082825260208201905092915050565b60006127b482612496565b6127be8185612798565b93506127ce8185602086016124b2565b6127d7816124dc565b840191505092915050565b6127eb81612460565b82525050565b600060a0830160008301516128096000860182612789565b506020830151848203602086015261282182826127a9565b91505060408301516128366040860182612789565b50606083015161284960608601826127e2565b50608083015161285c60808601826127e2565b508091505092915050565b6000602082019050818103600083015261288181846127f1565b905092915050565b600081519050919050565b600082825260208201905092915050565b6000819050602082019050919050565b600060a0830160008301516128cd6000860182612789565b50602083015184820360208601526128e582826127a9565b91505060408301516128fa6040860182612789565b50606083015161290d60608601826127e2565b50608083015161292060808601826127e2565b508091505092915050565b600061293783836128b5565b905092915050565b6000602082019050919050565b600061295782612889565b6129618185612894565b935083602082028501612973856128a5565b8060005b858110156129af5784840389528151612990858261292b565b945061299b8361293f565b925060208a01995050600181019050612977565b50829750879550505050505092915050565b600060208201905081810360008301526129db818461294c565b905092915050565b600080fd5b600080fd5b7f4e487b7100000000000000000000000000000000000000000000000000000000600052604160045260246000fd5b612a25826124dc565b810181811067ffffffffffffffff82111715612a4457612a436129ed565b5b80604052505050565b6000612a576123c7565b9050612a638282612a1c565b919050565b600067ffffffffffffffff821115612a8357612a826129ed565b5b612a8c826124dc565b9050602081019050919050565b82818337600083830152505050565b6000612abb612ab684612a68565b612a4d565b905082815260208101848484011115612ad757612ad66129e8565b5b612ae2848285612a99565b509392505050565b600082601f830112612aff57612afe6129e3565b5b8135612b0f848260208601612aa8565b91505092915050565b60008060008060808587031215612b3257612b316123d1565b5b6000612b408782880161261e565b9450506020612b518782880161261e565b9350506040612b6287828801612569565b925050606085013567ffffffffffffffff811115612b8357612b826123d6565b5b612b8f87828801612aea565b91505092959194509250565b600080fd5b600080fd5b60008083601f840112612bbb57612bba6129e3565b5b8235905067ffffffffffffffff811115612bd857612bd7612b9b565b5b602083019150836001820283011115612bf457612bf3612ba0565b5b9250929050565b600080600060408486031215612c1457612c136123d1565b5b600084013567ffffffffffffffff811115612c3257612c316123d6565b5b612c3e86828701612ba5565b93509350506020612c5186828701612569565b9150509250925092565b60008060408385031215612c7257612c716123d1565b5b6000612c808582860161261e565b9250506020612c918582860161261e565b9150509250929050565b7f4e487b7100000000000000000000000000000000000000000000000000000000600052602260045260246000fd5b60006002820490506001821680612ce257607f821691505b602082108103612cf557612cf4612c9b565b5b50919050565b7f4552433732313a20617070726f76616c20746f2063757272656e74206f776e6560008201527f7200000000000000000000000000000000000000000000000000000000000000602082015250565b6000612d576021836124a1565b9150612d6282612cfb565b604082019050919050565b60006020820190508181036000830152612d8681612d4a565b9050919050565b7f4552433732313a20617070726f76652063616c6c6572206973206e6f7420746f60008201527f6b656e206f776e6572206e6f7220617070726f76656420666f7220616c6c0000602082015250565b6000612de9603e836124a1565b9150612df482612d8d565b604082019050919050565b60006020820190508181036000830152612e1881612ddc565b9050919050565b7f4552433732313a2063616c6c6572206973206e6f7420746f6b656e206f776e6560008201527f72206e6f7220617070726f766564000000000000000000000000000000000000602082015250565b6000612e7b602e836124a1565b9150612e8682612e1f565b604082019050919050565b60006020820190508181036000830152612eaa81612e6e565b9050919050565b7f4552433732313a20696e76616c696420746f6b656e2049440000000000000000600082015250565b6000612ee76018836124a1565b9150612ef282612eb1565b602082019050919050565b60006020820190508181036000830152612f1681612eda565b9050919050565b7f4552433732313a2061646472657373207a65726f206973206e6f74206120766160008201527f6c6964206f776e65720000000000000000000000000000000000000000000000602082015250565b6000612f796029836124a1565b9150612f8482612f1d565b604082019050919050565b60006020820190508181036000830152612fa881612f6c565b9050919050565b7f4e4654204d696e74656420616c7265616479206f72204e6f7420457869737400600082015250565b6000612fe5601f836124a1565b9150612ff082612faf565b602082019050919050565b6000602082019050818103600083015261301481612fd8565b9050919050565b7f5072696365206e6f74206d656574000000000000000000000000000000000000600082015250565b6000613051600e836124a1565b915061305c8261301b565b602082019050919050565b6000602082019050818103600083015261308081613044565b9050919050565b600081905092915050565b50565b60006130a2600083613087565b91506130ad82613092565b600082019050919050565b60006130c382613095565b9150819050919050565b7f5472616e73666572206661696c65640000000000000000000000000000000000600082015250565b6000613103600f836124a1565b915061310e826130cd565b602082019050919050565b60006020820190508181036000830152613132816130f6565b9050919050565b7f4e487b7100000000000000000000000000000000000000000000000000000000600052603260045260246000fd5b7f4e487b7100000000000000000000000000000000000000000000000000000000600052601160045260246000fd5b60006131a282612548565b91506131ad83612548565b92508282019050808211156131c5576131c4613168565b5b92915050565b600081905092915050565b60006131e182612496565b6131eb81856131cb565b93506131fb8185602086016124b2565b80840191505092915050565b600061321382856131d6565b915061321f82846131d6565b91508190509392505050565b60008151905061323a8161271d565b92915050565b600060208284031215613256576132556123d1565b5b60006132648482850161322b565b91505092915050565b7f596f75206d757374207265676973746572206669727374000000000000000000600082015250565b60006132a36017836124a1565b91506132ae8261326d565b602082019050919050565b600060208201905081810360008301526132d281613296565b9050919050565b7f596f75207265616368206c696d6974206f6620636f6c6c65637469626c650000600082015250565b600061330f601e836124a1565b915061331a826132d9565b602082019050919050565b6000602082019050818103600083015261333e81613302565b9050919050565b60008190508160005260206000209050919050565b60006020601f8301049050919050565b600082821b905092915050565b6000600883026133a77fffffffffffffffffffffffffffffffffffffffffffffffffffffffffffffffff8261336a565b6133b1868361336a565b95508019841693508086168417925050509392505050565b6000819050919050565b60006133ee6133e96133e484612548565b6133c9565b612548565b9050919050565b6000819050919050565b613408836133d3565b61341c613414826133f5565b848454613377565b825550505050565b600090565b613431613424565b61343c8184846133ff565b505050565b5b8181101561346057613455600082613429565b600181019050613442565b5050565b601f8211156134a55761347681613345565b61347f8461335a565b8101602085101561348e578190505b6134a261349a8561335a565b830182613441565b50505b505050565b600082821c905092915050565b60006134c8600019846008026134aa565b1980831691505092915050565b60006134e183836134b7565b9150826002028217905092915050565b6134fa82612496565b67ffffffffffffffff811115613513576135126129ed565b5b61351d8254612cca565b613528828285613464565b600060209050601f83116001811461355b5760008415613549578287015190505b61355385826134d5565b8655506135bb565b601f19841661356986613345565b60005b828110156135915784890151825560018201915060208501945060208101905061356c565b868310156135ae57848901516135aa601f8916826134b7565b8355505b6001600288020188555050505b505050505050565b7f4552433732313a207472616e736665722066726f6d20696e636f72726563742060008201527f6f776e6572000000000000000000000000000000000000000000000000000000602082015250565b600061361f6025836124a1565b915061362a826135c3565b604082019050919050565b6000602082019050818103600083015261364e81613612565b9050919050565b7f4552433732313a207472616e7366657220746f20746865207a65726f2061646460008201527f7265737300000000000000000000000000000000000000000000000000000000602082015250565b60006136b16024836124a1565b91506136bc82613655565b604082019050919050565b600060208201905081810360008301526136e0816136a4565b9050919050565b60006136f282612548565b91506136fd83612548565b925082820390508181111561371557613714613168565b5b92915050565b7f4552433732313a206d696e7420746f20746865207a65726f2061646472657373600082015250565b60006137516020836124a1565b915061375c8261371b565b602082019050919050565b6000602082019050818103600083015261378081613744565b9050919050565b7f4552433732313a20746f6b656e20616c7265616479206d696e74656400000000600082015250565b60006137bd601c836124a1565b91506137c882613787565b602082019050919050565b600060208201905081810360008301526137ec816137b0565b9050919050565b7f45524337323155524953746f726167653a2055524920736574206f66206e6f6e60008201527f6578697374656e7420746f6b656e000000000000000000000000000000000000602082015250565b600061384f602e836124a1565b915061385a826137f3565b604082019050919050565b6000602082019050818103600083015261387e81613842565b9050919050565b7f4552433732313a20617070726f766520746f2063616c6c657200000000000000600082015250565b60006138bb6019836124a1565b91506138c682613885565b602082019050919050565b600060208201905081810360008301526138ea816138ae565b9050919050565b7f4552433732313a207472616e7366657220746f206e6f6e20455243373231526560008201527f63656976657220696d706c656d656e7465720000000000000000000000000000602082015250565b600061394d6032836124a1565b9150613958826138f1565b604082019050919050565b6000602082019050818103600083015261397c81613940565b9050919050565b600081519050919050565b600082825260208201905092915050565b60006139aa82613983565b6139b4818561398e565b93506139c48185602086016124b2565b6139cd816124dc565b840191505092915050565b60006080820190506139ed60008301876125dd565b6139fa60208301866125dd565b613a0760408301856126f3565b8181036060830152613a19818461399f565b905095945050505050565b600081519050613a3381612407565b92915050565b600060208284031215613a4f57613a4e6123d1565b5b6000613a5d84828501613a24565b91505092915050565b6000613a7182612548565b91507fffffffffffffffffffffffffffffffffffffffffffffffffffffffffffffffff8203613aa357613aa2613168565b5b600182019050919050565b7f4e487b7100000000000000000000000000000000000000000000000000000000600052601260045260246000fd5b6000613ae882612548565b9150613af383612548565b925082613b0357613b02613aae565b5b828204905092915050565b6000613b1982612548565b9150613b2483612548565b925082613b3457613b33613aae565b5b82820690509291505056fea2646970667358221220b978425c38e4ade8c1398015cf7633feb1a35d82d47f4adb9b9d502c9caccdaa64736f6c63430008110033",
  "devdoc": {
    "kind": "dev",
    "methods": {
      "addCollectible(string,uint256)": {
        "details": "add collectible as creators"
      },
      "approve(address,uint256)": {
        "details": "See {IERC721-approve}."
      },
      "balanceOf(address)": {
        "details": "See {IERC721-balanceOf}."
      },
      "getApproved(uint256)": {
        "details": "See {IERC721-getApproved}."
      },
      "getCollectibleAt(address,uint256)": {
        "details": "get collectibles for spesific creator at spesific index"
      },
      "getCollectibles(address)": {
        "details": "get collectibles for spesific creator"
      },
      "isApprovedForAll(address,address)": {
        "details": "See {IERC721-isApprovedForAll}."
      },
      "isCollectibleCanMintAt(address,uint256)": {
        "details": "check if collectible can be minted"
      },
      "isLessCollectible(address)": {
        "details": "check if collectible not reach max count"
      },
      "mintToken(address,uint256)": {
        "details": "mint token, require the collectible can be minted"
      },
      "name()": {
        "details": "See {IERC721Metadata-name}."
      },
      "ownerOf(uint256)": {
        "details": "See {IERC721-ownerOf}."
      },
      "safeTransferFrom(address,address,uint256)": {
        "details": "See {IERC721-safeTransferFrom}."
      },
      "safeTransferFrom(address,address,uint256,bytes)": {
        "details": "See {IERC721-safeTransferFrom}."
      },
      "setApprovalForAll(address,bool)": {
        "details": "See {IERC721-setApprovalForAll}."
      },
      "supportsInterface(bytes4)": {
        "details": "See {IERC165-supportsInterface}."
      },
      "symbol()": {
        "details": "See {IERC721Metadata-symbol}."
      },
      "tokenURI(uint256)": {
        "details": "See {IERC721Metadata-tokenURI}."
      },
      "transferFrom(address,address,uint256)": {
        "details": "See {IERC721-transferFrom}."
      }
    },
    "version": 1
  },
  "userdoc": {
    "events": {
      "MintCollectible(address,uint256)": {
        "notice": "events ///"
      }
    },
    "kind": "user",
    "methods": {},
    "version": 1
  },
  "storageLayout": {
    "storage": [
      {
        "astId": 1579,
        "contract": "contracts/CollectibleNFT.sol:CollectibleNFT",
        "label": "_name",
        "offset": 0,
        "slot": "0",
        "type": "t_string_storage"
      },
      {
        "astId": 1581,
        "contract": "contracts/CollectibleNFT.sol:CollectibleNFT",
        "label": "_symbol",
        "offset": 0,
        "slot": "1",
        "type": "t_string_storage"
      },
      {
        "astId": 1585,
        "contract": "contracts/CollectibleNFT.sol:CollectibleNFT",
        "label": "_owners",
        "offset": 0,
        "slot": "2",
        "type": "t_mapping(t_uint256,t_address)"
      },
      {
        "astId": 1589,
        "contract": "contracts/CollectibleNFT.sol:CollectibleNFT",
        "label": "_balances",
        "offset": 0,
        "slot": "3",
        "type": "t_mapping(t_address,t_uint256)"
      },
      {
        "astId": 1593,
        "contract": "contracts/CollectibleNFT.sol:CollectibleNFT",
        "label": "_tokenApprovals",
        "offset": 0,
        "slot": "4",
        "type": "t_mapping(t_uint256,t_address)"
      },
      {
        "astId": 1599,
        "contract": "contracts/CollectibleNFT.sol:CollectibleNFT",
        "label": "_operatorApprovals",
        "offset": 0,
        "slot": "5",
        "type": "t_mapping(t_address,t_mapping(t_address,t_bool))"
      },
      {
        "astId": 2567,
        "contract": "contracts/CollectibleNFT.sol:CollectibleNFT",
        "label": "_tokenURIs",
        "offset": 0,
        "slot": "6",
        "type": "t_mapping(t_uint256,t_string_storage)"
      },
      {
        "astId": 123,
        "contract": "contracts/CollectibleNFT.sol:CollectibleNFT",
        "label": "_status",
        "offset": 0,
        "slot": "7",
        "type": "t_uint256"
      },
      {
        "astId": 3767,
        "contract": "contracts/CollectibleNFT.sol:CollectibleNFT",
        "label": "_tokenIds",
        "offset": 0,
        "slot": "8",
        "type": "t_struct(Counter)3029_storage"
      },
      {
        "astId": 3790,
        "contract": "contracts/CollectibleNFT.sol:CollectibleNFT",
        "label": "milestoneAddress",
        "offset": 0,
        "slot": "9",
        "type": "t_address"
      },
      {
        "astId": 3796,
        "contract": "contracts/CollectibleNFT.sol:CollectibleNFT",
        "label": "s_collectiblesArray",
        "offset": 0,
        "slot": "10",
        "type": "t_mapping(t_address,t_array(t_struct(Collectible)3778_storage)dyn_storage)"
      }
    ],
    "types": {
      "t_address": {
        "encoding": "inplace",
        "label": "address",
        "numberOfBytes": "20"
      },
      "t_array(t_struct(Collectible)3778_storage)dyn_storage": {
        "base": "t_struct(Collectible)3778_storage",
        "encoding": "dynamic_array",
        "label": "struct CollectibleNFT.Collectible[]",
        "numberOfBytes": "32"
      },
      "t_bool": {
        "encoding": "inplace",
        "label": "bool",
        "numberOfBytes": "1"
      },
      "t_mapping(t_address,t_array(t_struct(Collectible)3778_storage)dyn_storage)": {
        "encoding": "mapping",
        "key": "t_address",
        "label": "mapping(address => struct CollectibleNFT.Collectible[])",
        "numberOfBytes": "32",
        "value": "t_array(t_struct(Collectible)3778_storage)dyn_storage"
      },
      "t_mapping(t_address,t_bool)": {
        "encoding": "mapping",
        "key": "t_address",
        "label": "mapping(address => bool)",
        "numberOfBytes": "32",
        "value": "t_bool"
      },
      "t_mapping(t_address,t_mapping(t_address,t_bool))": {
        "encoding": "mapping",
        "key": "t_address",
        "label": "mapping(address => mapping(address => bool))",
        "numberOfBytes": "32",
        "value": "t_mapping(t_address,t_bool)"
      },
      "t_mapping(t_address,t_uint256)": {
        "encoding": "mapping",
        "key": "t_address",
        "label": "mapping(address => uint256)",
        "numberOfBytes": "32",
        "value": "t_uint256"
      },
      "t_mapping(t_uint256,t_address)": {
        "encoding": "mapping",
        "key": "t_uint256",
        "label": "mapping(uint256 => address)",
        "numberOfBytes": "32",
        "value": "t_address"
      },
      "t_mapping(t_uint256,t_string_storage)": {
        "encoding": "mapping",
        "key": "t_uint256",
        "label": "mapping(uint256 => string)",
        "numberOfBytes": "32",
        "value": "t_string_storage"
      },
      "t_string_storage": {
        "encoding": "bytes",
        "label": "string",
        "numberOfBytes": "32"
      },
      "t_struct(Collectible)3778_storage": {
        "encoding": "inplace",
        "label": "struct CollectibleNFT.Collectible",
        "members": [
          {
            "astId": 3769,
            "contract": "contracts/CollectibleNFT.sol:CollectibleNFT",
            "label": "price",
            "offset": 0,
            "slot": "0",
            "type": "t_uint256"
          },
          {
            "astId": 3771,
            "contract": "contracts/CollectibleNFT.sol:CollectibleNFT",
            "label": "URI",
            "offset": 0,
            "slot": "1",
            "type": "t_string_storage"
          },
          {
            "astId": 3773,
            "contract": "contracts/CollectibleNFT.sol:CollectibleNFT",
            "label": "tokenId",
            "offset": 0,
            "slot": "2",
            "type": "t_uint256"
          },
          {
            "astId": 3775,
            "contract": "contracts/CollectibleNFT.sol:CollectibleNFT",
            "label": "minted",
            "offset": 0,
            "slot": "3",
            "type": "t_bool"
          },
          {
            "astId": 3777,
            "contract": "contracts/CollectibleNFT.sol:CollectibleNFT",
            "label": "exist",
            "offset": 1,
            "slot": "3",
            "type": "t_bool"
          }
        ],
        "numberOfBytes": "128"
      },
      "t_struct(Counter)3029_storage": {
        "encoding": "inplace",
        "label": "struct Counters.Counter",
        "members": [
          {
            "astId": 3028,
            "contract": "contracts/CollectibleNFT.sol:CollectibleNFT",
            "label": "_value",
            "offset": 0,
            "slot": "0",
            "type": "t_uint256"
          }
        ],
        "numberOfBytes": "32"
      },
      "t_uint256": {
        "encoding": "inplace",
        "label": "uint256",
        "numberOfBytes": "32"
      }
    }
  }
}