{
  "address": "0xc69AC66290aE5bE5022fA10e6a110c11A8CE5987",
  "abi": [
    {
      "inputs": [],
      "stateMutability": "payable",
      "type": "constructor"
    },
    {
      "inputs": [
        {
          "internalType": "address",
          "name": "creatorAddress",
          "type": "address"
        }
      ],
      "name": "AlreadyListed",
      "type": "error"
    },
    {
      "inputs": [
        {
          "internalType": "address",
          "name": "sender",
          "type": "address"
        },
        {
          "internalType": "address",
          "name": "creator",
          "type": "address"
        },
        {
          "internalType": "uint256",
          "name": "donate",
          "type": "uint256"
        }
      ],
      "name": "AmountToLow",
      "type": "error"
    },
    {
      "inputs": [],
      "name": "NoFunds",
      "type": "error"
    },
    {
      "inputs": [
        {
          "internalType": "address",
          "name": "creatorAddress",
          "type": "address"
        }
      ],
      "name": "NotListed",
      "type": "error"
    },
    {
      "anonymous": false,
      "inputs": [
        {
          "indexed": true,
          "internalType": "address",
          "name": "account",
          "type": "address"
        },
        {
          "indexed": true,
          "internalType": "address",
          "name": "operator",
          "type": "address"
        },
        {
          "indexed": false,
          "internalType": "bool",
          "name": "approved",
          "type": "bool"
        }
      ],
      "name": "ApprovalForAll",
      "type": "event"
    },
    {
      "anonymous": false,
      "inputs": [
        {
          "indexed": true,
          "internalType": "address",
          "name": "creator",
          "type": "address"
        },
        {
          "indexed": true,
          "internalType": "address",
          "name": "donator",
          "type": "address"
        },
        {
          "indexed": false,
          "internalType": "uint256",
          "name": "value",
          "type": "uint256"
        }
      ],
      "name": "Donate",
      "type": "event"
    },
    {
      "anonymous": false,
      "inputs": [
        {
          "indexed": true,
          "internalType": "address",
          "name": "operator",
          "type": "address"
        },
        {
          "indexed": true,
          "internalType": "address",
          "name": "from",
          "type": "address"
        },
        {
          "indexed": true,
          "internalType": "address",
          "name": "to",
          "type": "address"
        },
        {
          "indexed": false,
          "internalType": "uint256[]",
          "name": "ids",
          "type": "uint256[]"
        },
        {
          "indexed": false,
          "internalType": "uint256[]",
          "name": "values",
          "type": "uint256[]"
        }
      ],
      "name": "TransferBatch",
      "type": "event"
    },
    {
      "anonymous": false,
      "inputs": [
        {
          "indexed": true,
          "internalType": "address",
          "name": "operator",
          "type": "address"
        },
        {
          "indexed": true,
          "internalType": "address",
          "name": "from",
          "type": "address"
        },
        {
          "indexed": true,
          "internalType": "address",
          "name": "to",
          "type": "address"
        },
        {
          "indexed": false,
          "internalType": "uint256",
          "name": "id",
          "type": "uint256"
        },
        {
          "indexed": false,
          "internalType": "uint256",
          "name": "value",
          "type": "uint256"
        }
      ],
      "name": "TransferSingle",
      "type": "event"
    },
    {
      "anonymous": false,
      "inputs": [
        {
          "indexed": false,
          "internalType": "string",
          "name": "value",
          "type": "string"
        },
        {
          "indexed": true,
          "internalType": "uint256",
          "name": "id",
          "type": "uint256"
        }
      ],
      "name": "URI",
      "type": "event"
    },
    {
      "anonymous": false,
      "inputs": [
        {
          "indexed": true,
          "internalType": "address",
          "name": "creator",
          "type": "address"
        },
        {
          "indexed": false,
          "internalType": "string",
          "name": "name",
          "type": "string"
        },
        {
          "indexed": false,
          "internalType": "string",
          "name": "pic",
          "type": "string"
        }
      ],
      "name": "UserCreated",
      "type": "event"
    },
    {
      "inputs": [],
      "name": "MAX_MILESTONE",
      "outputs": [
        {
          "internalType": "uint256",
          "name": "",
          "type": "uint256"
        }
      ],
      "stateMutability": "view",
      "type": "function"
    },
    {
      "inputs": [
        {
          "internalType": "address",
          "name": "account",
          "type": "address"
        },
        {
          "internalType": "uint256",
          "name": "id",
          "type": "uint256"
        }
      ],
      "name": "balanceOf",
      "outputs": [
        {
          "internalType": "uint256",
          "name": "",
          "type": "uint256"
        }
      ],
      "stateMutability": "view",
      "type": "function"
    },
    {
      "inputs": [
        {
          "internalType": "address[]",
          "name": "accounts",
          "type": "address[]"
        },
        {
          "internalType": "uint256[]",
          "name": "ids",
          "type": "uint256[]"
        }
      ],
      "name": "balanceOfBatch",
      "outputs": [
        {
          "internalType": "uint256[]",
          "name": "",
          "type": "uint256[]"
        }
      ],
      "stateMutability": "view",
      "type": "function"
    },
    {
      "inputs": [
        {
          "internalType": "string",
          "name": "_name",
          "type": "string"
        },
        {
          "internalType": "string",
          "name": "_pic",
          "type": "string"
        }
      ],
      "name": "creatorRegister",
      "outputs": [],
      "stateMutability": "nonpayable",
      "type": "function"
    },
    {
      "inputs": [
        {
          "internalType": "address",
          "name": "creator",
          "type": "address"
        }
      ],
      "name": "donate",
      "outputs": [],
      "stateMutability": "payable",
      "type": "function"
    },
    {
      "inputs": [
        {
          "internalType": "address",
          "name": "creator",
          "type": "address"
        }
      ],
      "name": "getCreator",
      "outputs": [
        {
          "components": [
            {
              "internalType": "address",
              "name": "addr",
              "type": "address"
            },
            {
              "internalType": "string",
              "name": "name",
              "type": "string"
            },
            {
              "internalType": "string",
              "name": "pic",
              "type": "string"
            },
            {
              "internalType": "uint256",
              "name": "funds",
              "type": "uint256"
            }
          ],
          "internalType": "struct MilestoneNFTv2.Creator",
          "name": "",
          "type": "tuple"
        }
      ],
      "stateMutability": "view",
      "type": "function"
    },
    {
      "inputs": [],
      "name": "getCreators",
      "outputs": [
        {
          "components": [
            {
              "internalType": "address",
              "name": "addr",
              "type": "address"
            },
            {
              "internalType": "string",
              "name": "name",
              "type": "string"
            },
            {
              "internalType": "string",
              "name": "pic",
              "type": "string"
            },
            {
              "internalType": "uint256",
              "name": "funds",
              "type": "uint256"
            }
          ],
          "internalType": "struct MilestoneNFTv2.Creator[]",
          "name": "",
          "type": "tuple[]"
        }
      ],
      "stateMutability": "view",
      "type": "function"
    },
    {
      "inputs": [
        {
          "internalType": "address",
          "name": "creator",
          "type": "address"
        }
      ],
      "name": "getDonatorsCount",
      "outputs": [
        {
          "internalType": "uint256",
          "name": "",
          "type": "uint256"
        }
      ],
      "stateMutability": "view",
      "type": "function"
    },
    {
      "inputs": [
        {
          "internalType": "address",
          "name": "creator",
          "type": "address"
        }
      ],
      "name": "getFunds",
      "outputs": [
        {
          "internalType": "uint256",
          "name": "",
          "type": "uint256"
        }
      ],
      "stateMutability": "view",
      "type": "function"
    },
    {
      "inputs": [
        {
          "internalType": "address",
          "name": "creator",
          "type": "address"
        }
      ],
      "name": "getMilestones",
      "outputs": [
        {
          "internalType": "string[]",
          "name": "",
          "type": "string[]"
        }
      ],
      "stateMutability": "view",
      "type": "function"
    },
    {
      "inputs": [
        {
          "internalType": "address",
          "name": "creator",
          "type": "address"
        },
        {
          "internalType": "uint256",
          "name": "milestoneId",
          "type": "uint256"
        }
      ],
      "name": "getTokenId",
      "outputs": [
        {
          "internalType": "uint256",
          "name": "",
          "type": "uint256"
        }
      ],
      "stateMutability": "view",
      "type": "function"
    },
    {
      "inputs": [
        {
          "internalType": "address",
          "name": "account",
          "type": "address"
        },
        {
          "internalType": "address",
          "name": "operator",
          "type": "address"
        }
      ],
      "name": "isApprovedForAll",
      "outputs": [
        {
          "internalType": "bool",
          "name": "",
          "type": "bool"
        }
      ],
      "stateMutability": "view",
      "type": "function"
    },
    {
      "inputs": [],
      "name": "isCreator",
      "outputs": [
        {
          "internalType": "bool",
          "name": "",
          "type": "bool"
        }
      ],
      "stateMutability": "view",
      "type": "function"
    },
    {
      "inputs": [
        {
          "internalType": "address",
          "name": "creatorAddress",
          "type": "address"
        },
        {
          "internalType": "address",
          "name": "donator",
          "type": "address"
        },
        {
          "internalType": "uint256",
          "name": "milestoneId",
          "type": "uint256"
        }
      ],
      "name": "isEligibleToMint",
      "outputs": [
        {
          "internalType": "bool",
          "name": "",
          "type": "bool"
        }
      ],
      "stateMutability": "view",
      "type": "function"
    },
    {
      "inputs": [
        {
          "internalType": "address",
          "name": "creator",
          "type": "address"
        }
      ],
      "name": "isLessMilestones",
      "outputs": [
        {
          "internalType": "bool",
          "name": "",
          "type": "bool"
        }
      ],
      "stateMutability": "view",
      "type": "function"
    },
    {
      "inputs": [
        {
          "internalType": "string",
          "name": "_tokenURI",
          "type": "string"
        },
        {
          "internalType": "uint256",
          "name": "_price",
          "type": "uint256"
        }
      ],
      "name": "mintCreatorNFT",
      "outputs": [
        {
          "internalType": "uint256",
          "name": "",
          "type": "uint256"
        }
      ],
      "stateMutability": "payable",
      "type": "function"
    },
    {
      "inputs": [
        {
          "internalType": "address",
          "name": "artist",
          "type": "address"
        },
        {
          "internalType": "uint256",
          "name": "milestoneId",
          "type": "uint256"
        }
      ],
      "name": "mintDonatorNFT",
      "outputs": [
        {
          "internalType": "uint256",
          "name": "",
          "type": "uint256"
        }
      ],
      "stateMutability": "payable",
      "type": "function"
    },
    {
      "inputs": [],
      "name": "name",
      "outputs": [
        {
          "internalType": "string",
          "name": "",
          "type": "string"
        }
      ],
      "stateMutability": "view",
      "type": "function"
    },
    {
      "inputs": [
        {
          "internalType": "address",
          "name": "from",
          "type": "address"
        },
        {
          "internalType": "address",
          "name": "to",
          "type": "address"
        },
        {
          "internalType": "uint256[]",
          "name": "ids",
          "type": "uint256[]"
        },
        {
          "internalType": "uint256[]",
          "name": "amounts",
          "type": "uint256[]"
        },
        {
          "internalType": "bytes",
          "name": "data",
          "type": "bytes"
        }
      ],
      "name": "safeBatchTransferFrom",
      "outputs": [],
      "stateMutability": "nonpayable",
      "type": "function"
    },
    {
      "inputs": [
        {
          "internalType": "address",
          "name": "from",
          "type": "address"
        },
        {
          "internalType": "address",
          "name": "to",
          "type": "address"
        },
        {
          "internalType": "uint256",
          "name": "id",
          "type": "uint256"
        },
        {
          "internalType": "uint256",
          "name": "amount",
          "type": "uint256"
        },
        {
          "internalType": "bytes",
          "name": "data",
          "type": "bytes"
        }
      ],
      "name": "safeTransferFrom",
      "outputs": [],
      "stateMutability": "nonpayable",
      "type": "function"
    },
    {
      "inputs": [
        {
          "internalType": "address",
          "name": "operator",
          "type": "address"
        },
        {
          "internalType": "bool",
          "name": "approved",
          "type": "bool"
        }
      ],
      "name": "setApprovalForAll",
      "outputs": [],
      "stateMutability": "nonpayable",
      "type": "function"
    },
    {
      "inputs": [
        {
          "internalType": "bytes4",
          "name": "interfaceId",
          "type": "bytes4"
        }
      ],
      "name": "supportsInterface",
      "outputs": [
        {
          "internalType": "bool",
          "name": "",
          "type": "bool"
        }
      ],
      "stateMutability": "view",
      "type": "function"
    },
    {
      "inputs": [],
      "name": "symbol",
      "outputs": [
        {
          "internalType": "string",
          "name": "",
          "type": "string"
        }
      ],
      "stateMutability": "view",
      "type": "function"
    },
    {
      "inputs": [
        {
          "internalType": "uint256",
          "name": "",
          "type": "uint256"
        }
      ],
      "name": "tokenURI",
      "outputs": [
        {
          "internalType": "string",
          "name": "",
          "type": "string"
        }
      ],
      "stateMutability": "view",
      "type": "function"
    },
    {
      "inputs": [
        {
          "internalType": "string",
          "name": "_name",
          "type": "string"
        },
        {
          "internalType": "string",
          "name": "_pic",
          "type": "string"
        }
      ],
      "name": "updateProfile",
      "outputs": [],
      "stateMutability": "nonpayable",
      "type": "function"
    },
    {
      "inputs": [
        {
          "internalType": "uint256",
          "name": "_id",
          "type": "uint256"
        }
      ],
      "name": "uri",
      "outputs": [
        {
          "internalType": "string",
          "name": "",
          "type": "string"
        }
      ],
      "stateMutability": "view",
      "type": "function"
    },
    {
      "inputs": [],
      "name": "withdrawFunds",
      "outputs": [],
      "stateMutability": "nonpayable",
      "type": "function"
    }
  ],
  "transactionHash": "0xc5611df9148f584ce84f358170be402e4985f5e9ec43eca925d3ee4b98171acc",
  "args": [],
  "numDeployments": 9,
  "solcInputHash": "446cc5d202522dcdb754f122a4d4edf9",
  "bytecode": "0x60806040526040518060200160405280600081525060016000819055506200002d81620000c260201b60201c565b506040518060400160405280600981526020017f43697269766572736500000000000000000000000000000000000000000000008152506005908162000074919062000351565b506040518060400160405280600481526020017f434952490000000000000000000000000000000000000000000000000000000081525060069081620000bb919062000351565b5062000438565b8060039081620000d3919062000351565b5050565b600081519050919050565b7f4e487b7100000000000000000000000000000000000000000000000000000000600052604160045260246000fd5b7f4e487b7100000000000000000000000000000000000000000000000000000000600052602260045260246000fd5b600060028204905060018216806200015957607f821691505b6020821081036200016f576200016e62000111565b5b50919050565b60008190508160005260206000209050919050565b60006020601f8301049050919050565b600082821b905092915050565b600060088302620001d97fffffffffffffffffffffffffffffffffffffffffffffffffffffffffffffffff826200019a565b620001e586836200019a565b95508019841693508086168417925050509392505050565b6000819050919050565b6000819050919050565b6000620002326200022c6200022684620001fd565b62000207565b620001fd565b9050919050565b6000819050919050565b6200024e8362000211565b620002666200025d8262000239565b848454620001a7565b825550505050565b600090565b6200027d6200026e565b6200028a81848462000243565b505050565b5b81811015620002b257620002a660008262000273565b60018101905062000290565b5050565b601f8211156200030157620002cb8162000175565b620002d6846200018a565b81016020851015620002e6578190505b620002fe620002f5856200018a565b8301826200028f565b50505b505050565b600082821c905092915050565b6000620003266000198460080262000306565b1980831691505092915050565b600062000341838362000313565b9150826002028217905092915050565b6200035c82620000d7565b67ffffffffffffffff811115620003785762000377620000e2565b5b62000384825462000140565b62000391828285620002b6565b600060209050601f831160018114620003c95760008415620003b4578287015190505b620003c0858262000333565b86555062000430565b601f198416620003d98662000175565b60005b828110156200040357848901518255600182019150602085019450602081019050620003dc565b868310156200042357848901516200041f601f89168262000313565b8355505b6001600288020188555050505b505050505050565b615e4080620004486000396000f3fe60806040526004361061019a5760003560e01c806396821fc1116100ec578063d5b4959a1161008a578063e6adc1ee11610064578063e6adc1ee14610633578063e985e9c51461065e578063ee92d4841461069b578063f242432a146106c65761019a565b8063d5b4959a14610590578063da1bd4b1146105b9578063decebbce146105f65761019a565b8063b2bd3ea0116100c6578063b2bd3ea0146104bd578063ba1f5ef9146104ed578063c87b56dd1461052a578063c9d3cc6a146105675761019a565b806396821fc11461042c578063a021030914610457578063a22cb465146104945761019a565b806322a4e42d116101595780632eb2c2d6116101335780632eb2c2d61461036b5780634e1273f4146103945780635a8c2e47146103d157806395d89b41146104015761019a565b806322a4e42d146102da57806324600fc31461031757806329f99b9f1461032e5761019a565b8062362a951461019f578062fdd58e146101bb57806301ffc9a7146101f857806306fdde0314610235578063095acc58146102605780630e89341c1461029d575b600080fd5b6101b960048036038101906101b4919061404c565b6106ef565b005b3480156101c757600080fd5b506101e260048036038101906101dd91906140af565b610f17565b6040516101ef91906140fe565b60405180910390f35b34801561020457600080fd5b5061021f600480360381019061021a9190614171565b610fe0565b60405161022c91906141b9565b60405180910390f35b34801561024157600080fd5b5061024a6110c2565b6040516102579190614264565b60405180910390f35b34801561026c57600080fd5b506102876004803603810190610282919061404c565b611150565b60405161029491906141b9565b60405180910390f35b3480156102a957600080fd5b506102c460048036038101906102bf9190614286565b61119f565b6040516102d19190614264565b60405180910390f35b3480156102e657600080fd5b5061030160048036038101906102fc919061404c565b611244565b60405161030e91906143bf565b60405180910390f35b34801561032357600080fd5b5061032c61139b565b005b34801561033a57600080fd5b50610355600480360381019061035091906140af565b611514565b60405161036291906140fe565b60405180910390f35b34801561037757600080fd5b50610392600480360381019061038d91906145de565b611581565b005b3480156103a057600080fd5b506103bb60048036038101906103b69190614770565b611622565b6040516103c891906148a6565b60405180910390f35b6103eb60048036038101906103e69190614969565b61173b565b6040516103f891906140fe565b60405180910390f35b34801561040d57600080fd5b5061041661181f565b6040516104239190614264565b60405180910390f35b34801561043857600080fd5b506104416118ad565b60405161044e91906140fe565b60405180910390f35b34801561046357600080fd5b5061047e6004803603810190610479919061404c565b6118b2565b60405161048b9190614a3e565b60405180910390f35b3480156104a057600080fd5b506104bb60048036038101906104b69190614a8c565b611a8f565b005b6104d760048036038101906104d291906140af565b611aa5565b6040516104e491906140fe565b60405180910390f35b3480156104f957600080fd5b50610514600480360381019061050f9190614acc565b611b29565b60405161052191906141b9565b60405180910390f35b34801561053657600080fd5b50610551600480360381019061054c9190614286565b611ca9565b60405161055e9190614264565b60405180910390f35b34801561057357600080fd5b5061058e60048036038101906105899190614b7a565b611d49565b005b34801561059c57600080fd5b506105b760048036038101906105b29190614b7a565b612091565b005b3480156105c557600080fd5b506105e060048036038101906105db919061404c565b61261e565b6040516105ed91906140fe565b60405180910390f35b34801561060257600080fd5b5061061d6004803603810190610618919061404c565b612667565b60405161062a91906140fe565b60405180910390f35b34801561063f57600080fd5b506106486126b3565b6040516106559190614d27565b60405180910390f35b34801561066a57600080fd5b5061068560048036038101906106809190614d49565b612896565b60405161069291906141b9565b60405180910390f35b3480156106a757600080fd5b506106b061292a565b6040516106bd91906141b9565b60405180910390f35b3480156106d257600080fd5b506106ed60048036038101906106e89190614d89565b612b48565b005b806000600860008373ffffffffffffffffffffffffffffffffffffffff1673ffffffffffffffffffffffffffffffffffffffff1681526020019081526020016000206040518060800160405290816000820160009054906101000a900473ffffffffffffffffffffffffffffffffffffffff1673ffffffffffffffffffffffffffffffffffffffff1673ffffffffffffffffffffffffffffffffffffffff1681526020016001820180546107a290614e4f565b80601f01602080910402602001604051908101604052809291908181526020018280546107ce90614e4f565b801561081b5780601f106107f05761010080835404028352916020019161081b565b820191906000526020600020905b8154815290600101906020018083116107fe57829003601f168201915b5050505050815260200160028201805461083490614e4f565b80601f016020809104026020016040519081016040528092919081815260200182805461086090614e4f565b80156108ad5780601f10610882576101008083540402835291602001916108ad565b820191906000526020600020905b81548152906001019060200180831161089057829003601f168201915b505050505081526020016003820154815250509050600073ffffffffffffffffffffffffffffffffffffffff16816000015173ffffffffffffffffffffffffffffffffffffffff160361093757816040517f5d35c42900000000000000000000000000000000000000000000000000000000815260040161092e9190614e8f565b60405180910390fd5b60026000540361097c576040517f08c379a000000000000000000000000000000000000000000000000000000000815260040161097390614ef6565b60405180910390fd5b600260008190555067016345785d8a00003410156109d5573383346040517f9d60dc680000000000000000000000000000000000000000000000000000000081526004016109cc93929190614f16565b60405180910390fd5b34600860008573ffffffffffffffffffffffffffffffffffffffff1673ffffffffffffffffffffffffffffffffffffffff1681526020019081526020016000206003016000828254610a279190614f7c565b925050819055506000600a60003373ffffffffffffffffffffffffffffffffffffffff1673ffffffffffffffffffffffffffffffffffffffff16815260200190815260200160002060008573ffffffffffffffffffffffffffffffffffffffff1673ffffffffffffffffffffffffffffffffffffffff1681526020019081526020016000206000015403610b0d576001600b60003373ffffffffffffffffffffffffffffffffffffffff1673ffffffffffffffffffffffffffffffffffffffff1681526020019081526020016000206000828254610b059190614f7c565b925050819055505b34600a60003373ffffffffffffffffffffffffffffffffffffffff1673ffffffffffffffffffffffffffffffffffffffff16815260200190815260200160002060008573ffffffffffffffffffffffffffffffffffffffff1673ffffffffffffffffffffffffffffffffffffffff1681526020019081526020016000206000016000828254610b9c9190614f7c565b925050819055506000600960008573ffffffffffffffffffffffffffffffffffffffff1673ffffffffffffffffffffffffffffffffffffffff1681526020019081526020016000208054905090506000811115610ea45760005b81811015610ea257600960008673ffffffffffffffffffffffffffffffffffffffff1673ffffffffffffffffffffffffffffffffffffffff1681526020019081526020016000208181548110610c4f57610c4e614fb0565b5b906000526020600020906003020160000154600a60003373ffffffffffffffffffffffffffffffffffffffff1673ffffffffffffffffffffffffffffffffffffffff16815260200190815260200160002060008773ffffffffffffffffffffffffffffffffffffffff1673ffffffffffffffffffffffffffffffffffffffff1681526020019081526020016000206000015410158015610d99575060001515600a60003373ffffffffffffffffffffffffffffffffffffffff1673ffffffffffffffffffffffffffffffffffffffff16815260200190815260200160002060008773ffffffffffffffffffffffffffffffffffffffff1673ffffffffffffffffffffffffffffffffffffffff1681526020019081526020016000206002018260058110610d7f57610d7e614fb0565b5b602091828204019190069054906101000a900460ff161515145b15610e8f576001600a60003373ffffffffffffffffffffffffffffffffffffffff1673ffffffffffffffffffffffffffffffffffffffff16815260200190815260200160002060008773ffffffffffffffffffffffffffffffffffffffff1673ffffffffffffffffffffffffffffffffffffffff1681526020019081526020016000206001018260058110610e3157610e30614fb0565b5b602091828204019190066101000a81548160ff021916908315150217905550610e8e6040518060400160405280600f81526020017f6a61646920656c6c696769626c653f0000000000000000000000000000000000815250612be9565b5b8080610e9a90614fdf565b915050610bf6565b505b3373ffffffffffffffffffffffffffffffffffffffff168473ffffffffffffffffffffffffffffffffffffffff167f88dcaca629d63d86330e97adc358b13dd0ebd703239aea96b7ea2fb331b16f4e34604051610f0191906140fe565b60405180910390a3506001600081905550505050565b60008073ffffffffffffffffffffffffffffffffffffffff168373ffffffffffffffffffffffffffffffffffffffff1603610f87576040517f08c379a0000000000000000000000000000000000000000000000000000000008152600401610f7e90615099565b60405180910390fd5b6001600083815260200190815260200160002060008473ffffffffffffffffffffffffffffffffffffffff1673ffffffffffffffffffffffffffffffffffffffff16815260200190815260200160002054905092915050565b60007fd9b67a26000000000000000000000000000000000000000000000000000000007bffffffffffffffffffffffffffffffffffffffffffffffffffffffff1916827bffffffffffffffffffffffffffffffffffffffffffffffffffffffff191614806110ab57507f0e89341c000000000000000000000000000000000000000000000000000000007bffffffffffffffffffffffffffffffffffffffffffffffffffffffff1916827bffffffffffffffffffffffffffffffffffffffffffffffffffffffff1916145b806110bb57506110ba82612c82565b5b9050919050565b600580546110cf90614e4f565b80601f01602080910402602001604051908101604052809291908181526020018280546110fb90614e4f565b80156111485780601f1061111d57610100808354040283529160200191611148565b820191906000526020600020905b81548152906001019060200180831161112b57829003601f168201915b505050505081565b60006005600960008473ffffffffffffffffffffffffffffffffffffffff1673ffffffffffffffffffffffffffffffffffffffff16815260200190815260200160002080549050109050919050565b60606007600083815260200190815260200160002080546111bf90614e4f565b80601f01602080910402602001604051908101604052809291908181526020018280546111eb90614e4f565b80156112385780601f1061120d57610100808354040283529160200191611238565b820191906000526020600020905b81548152906001019060200180831161121b57829003601f168201915b50505050509050919050565b60606000600960008473ffffffffffffffffffffffffffffffffffffffff1673ffffffffffffffffffffffffffffffffffffffff16815260200190815260200160002080549050905060008167ffffffffffffffff8111156112a9576112a86143e6565b5b6040519080825280602002602001820160405280156112dc57816020015b60608152602001906001900390816112c75790505b50905060008211156113915760005b8281101561138f5761135e600960008773ffffffffffffffffffffffffffffffffffffffff1673ffffffffffffffffffffffffffffffffffffffff168152602001908152602001600020828154811061134757611346614fb0565b5b90600052602060002090600302016002015461119f565b82828151811061137157611370614fb0565b5b6020026020010181905250808061138790614fdf565b9150506112eb565b505b8092505050919050565b6000600860003373ffffffffffffffffffffffffffffffffffffffff1673ffffffffffffffffffffffffffffffffffffffff1681526020019081526020016000206003015490506000811161141c576040517f43f9e11000000000000000000000000000000000000000000000000000000000815260040160405180910390fd5b6000600860003373ffffffffffffffffffffffffffffffffffffffff1673ffffffffffffffffffffffffffffffffffffffff1681526020019081526020016000206003018190555060003373ffffffffffffffffffffffffffffffffffffffff168260405161148a906150ea565b60006040518083038185875af1925050503d80600081146114c7576040519150601f19603f3d011682016040523d82523d6000602084013e6114cc565b606091505b5050905080611510576040517f08c379a00000000000000000000000000000000000000000000000000000000081526004016115079061514b565b60405180910390fd5b5050565b6000600960008473ffffffffffffffffffffffffffffffffffffffff1673ffffffffffffffffffffffffffffffffffffffff168152602001908152602001600020828154811061156757611566614fb0565b5b906000526020600020906003020160020154905092915050565b611589612cec565b73ffffffffffffffffffffffffffffffffffffffff168573ffffffffffffffffffffffffffffffffffffffff1614806115cf57506115ce856115c9612cec565b612896565b5b61160e576040517f08c379a0000000000000000000000000000000000000000000000000000000008152600401611605906151dd565b60405180910390fd5b61161b8585858585612cf4565b5050505050565b60608151835114611668576040517f08c379a000000000000000000000000000000000000000000000000000000000815260040161165f9061526f565b60405180910390fd5b6000835167ffffffffffffffff811115611685576116846143e6565b5b6040519080825280602002602001820160405280156116b35781602001602082028036833780820191505090505b50905060005b8451811015611730576117008582815181106116d8576116d7614fb0565b5b60200260200101518583815181106116f3576116f2614fb0565b5b6020026020010151610f17565b82828151811061171357611712614fb0565b5b6020026020010181815250508061172990614fdf565b90506116b9565b508091505092915050565b600061174561292a565b611784576040517f08c379a000000000000000000000000000000000000000000000000000000000815260040161177b906152db565b60405180910390fd5b61178d33611150565b6117cc576040517f08c379a00000000000000000000000000000000000000000000000000000000081526004016117c390615347565b60405180910390fd5b6117d66004613018565b60006117e2600461302e565b9050611800338260016040518060200160405280600081525061303c565b61180a81856131ed565b611815308285613212565b8091505092915050565b6006805461182c90614e4f565b80601f016020809104026020016040519081016040528092919081815260200182805461185890614e4f565b80156118a55780601f1061187a576101008083540402835291602001916118a5565b820191906000526020600020905b81548152906001019060200180831161188857829003601f168201915b505050505081565b600581565b6118ba613f9c565b600860008373ffffffffffffffffffffffffffffffffffffffff1673ffffffffffffffffffffffffffffffffffffffff1681526020019081526020016000206040518060800160405290816000820160009054906101000a900473ffffffffffffffffffffffffffffffffffffffff1673ffffffffffffffffffffffffffffffffffffffff1673ffffffffffffffffffffffffffffffffffffffff16815260200160018201805461196a90614e4f565b80601f016020809104026020016040519081016040528092919081815260200182805461199690614e4f565b80156119e35780601f106119b8576101008083540402835291602001916119e3565b820191906000526020600020905b8154815290600101906020018083116119c657829003601f168201915b505050505081526020016002820180546119fc90614e4f565b80601f0160208091040260200160405190810160405280929190818152602001828054611a2890614e4f565b8015611a755780601f10611a4a57610100808354040283529160200191611a75565b820191906000526020600020905b815481529060010190602001808311611a5857829003601f168201915b505050505081526020016003820154815250509050919050565b611aa1611a9a612cec565b8383613658565b5050565b6000611ab2833384611b29565b611af1576040517f08c379a0000000000000000000000000000000000000000000000000000000008152600401611ae8906153b3565b60405180910390fd5b611b1633611aff8585611514565b60016040518060200160405280600081525061303c565b611b2083836137c4565b81905092915050565b600060011515600a60008573ffffffffffffffffffffffffffffffffffffffff1673ffffffffffffffffffffffffffffffffffffffff16815260200190815260200160002060008673ffffffffffffffffffffffffffffffffffffffff1673ffffffffffffffffffffffffffffffffffffffff1681526020019081526020016000206001018360058110611bc057611bbf614fb0565b5b602091828204019190069054906101000a900460ff161515148015611c8f575060001515600a60008573ffffffffffffffffffffffffffffffffffffffff1673ffffffffffffffffffffffffffffffffffffffff16815260200190815260200160002060008673ffffffffffffffffffffffffffffffffffffffff1673ffffffffffffffffffffffffffffffffffffffff1681526020019081526020016000206002018360058110611c7557611c74614fb0565b5b602091828204019190069054906101000a900460ff161515145b15611c9d5760019050611ca2565b600090505b9392505050565b60076020528060005260406000206000915090508054611cc890614e4f565b80601f0160208091040260200160405190810160405280929190818152602001828054611cf490614e4f565b8015611d415780601f10611d1657610100808354040283529160200191611d41565b820191906000526020600020905b815481529060010190602001808311611d2457829003601f168201915b505050505081565b336000600860008373ffffffffffffffffffffffffffffffffffffffff1673ffffffffffffffffffffffffffffffffffffffff1681526020019081526020016000206040518060800160405290816000820160009054906101000a900473ffffffffffffffffffffffffffffffffffffffff1673ffffffffffffffffffffffffffffffffffffffff1673ffffffffffffffffffffffffffffffffffffffff168152602001600182018054611dfc90614e4f565b80601f0160208091040260200160405190810160405280929190818152602001828054611e2890614e4f565b8015611e755780601f10611e4a57610100808354040283529160200191611e75565b820191906000526020600020905b815481529060010190602001808311611e5857829003601f168201915b50505050508152602001600282018054611e8e90614e4f565b80601f0160208091040260200160405190810160405280929190818152602001828054611eba90614e4f565b8015611f075780601f10611edc57610100808354040283529160200191611f07565b820191906000526020600020905b815481529060010190602001808311611eea57829003601f168201915b505050505081526020016003820154815250509050600073ffffffffffffffffffffffffffffffffffffffff16816000015173ffffffffffffffffffffffffffffffffffffffff1603611f9157816040517f5d35c429000000000000000000000000000000000000000000000000000000008152600401611f889190614e8f565b60405180910390fd5b8585600860003373ffffffffffffffffffffffffffffffffffffffff1673ffffffffffffffffffffffffffffffffffffffff1681526020019081526020016000206001019182611fe292919061558a565b508383600860003373ffffffffffffffffffffffffffffffffffffffff1673ffffffffffffffffffffffffffffffffffffffff168152602001908152602001600020600201918261203492919061558a565b503373ffffffffffffffffffffffffffffffffffffffff167fa2e1d286e25c6fce64acccdfd7a54d53cce2f617ddff648ab1dbb3458ccdd95b878787876040516120819493929190615687565b60405180910390a2505050505050565b336000600860008373ffffffffffffffffffffffffffffffffffffffff1673ffffffffffffffffffffffffffffffffffffffff1681526020019081526020016000206040518060800160405290816000820160009054906101000a900473ffffffffffffffffffffffffffffffffffffffff1673ffffffffffffffffffffffffffffffffffffffff1673ffffffffffffffffffffffffffffffffffffffff16815260200160018201805461214490614e4f565b80601f016020809104026020016040519081016040528092919081815260200182805461217090614e4f565b80156121bd5780601f10612192576101008083540402835291602001916121bd565b820191906000526020600020905b8154815290600101906020018083116121a057829003601f168201915b505050505081526020016002820180546121d690614e4f565b80601f016020809104026020016040519081016040528092919081815260200182805461220290614e4f565b801561224f5780601f106122245761010080835404028352916020019161224f565b820191906000526020600020905b81548152906001019060200180831161223257829003601f168201915b505050505081526020016003820154815250509050600073ffffffffffffffffffffffffffffffffffffffff16816000015173ffffffffffffffffffffffffffffffffffffffff16146122d957816040517f19cd45950000000000000000000000000000000000000000000000000000000081526004016122d09190614e8f565b60405180910390fd5b60405180608001604052803373ffffffffffffffffffffffffffffffffffffffff16815260200187878080601f016020809104026020016040519081016040528093929190818152602001838380828437600081840152601f19601f82011690508083019250505050505050815260200185858080601f016020809104026020016040519081016040528093929190818152602001838380828437600081840152601f19601f8201169050808301925050505050505081526020016000815250600860003373ffffffffffffffffffffffffffffffffffffffff1673ffffffffffffffffffffffffffffffffffffffff16815260200190815260200160002060008201518160000160006101000a81548173ffffffffffffffffffffffffffffffffffffffff021916908373ffffffffffffffffffffffffffffffffffffffff160217905550602082015181600101908161243491906156c2565b50604082015181600201908161244a91906156c2565b5060608201518160030155905050600c60405180608001604052803373ffffffffffffffffffffffffffffffffffffffff16815260200188888080601f016020809104026020016040519081016040528093929190818152602001838380828437600081840152601f19601f82011690508083019250505050505050815260200186868080601f016020809104026020016040519081016040528093929190818152602001838380828437600081840152601f19601f8201169050808301925050505050505081526020016000815250908060018154018082558091505060019003906000526020600020906004020160009091909190915060008201518160000160006101000a81548173ffffffffffffffffffffffffffffffffffffffff021916908373ffffffffffffffffffffffffffffffffffffffff160217905550602082015181600101908161259f91906156c2565b5060408201518160020190816125b591906156c2565b506060820151816003015550503373ffffffffffffffffffffffffffffffffffffffff167fa2e1d286e25c6fce64acccdfd7a54d53cce2f617ddff648ab1dbb3458ccdd95b8787878760405161260e9493929190615687565b60405180910390a2505050505050565b6000600b60008373ffffffffffffffffffffffffffffffffffffffff1673ffffffffffffffffffffffffffffffffffffffff168152602001908152602001600020549050919050565b6000600860008373ffffffffffffffffffffffffffffffffffffffff1673ffffffffffffffffffffffffffffffffffffffff168152602001908152602001600020600301549050919050565b6060600c805480602002602001604051908101604052809291908181526020016000905b8282101561288d57838290600052602060002090600402016040518060800160405290816000820160009054906101000a900473ffffffffffffffffffffffffffffffffffffffff1673ffffffffffffffffffffffffffffffffffffffff1673ffffffffffffffffffffffffffffffffffffffff16815260200160018201805461276090614e4f565b80601f016020809104026020016040519081016040528092919081815260200182805461278c90614e4f565b80156127d95780601f106127ae576101008083540402835291602001916127d9565b820191906000526020600020905b8154815290600101906020018083116127bc57829003601f168201915b505050505081526020016002820180546127f290614e4f565b80601f016020809104026020016040519081016040528092919081815260200182805461281e90614e4f565b801561286b5780601f106128405761010080835404028352916020019161286b565b820191906000526020600020905b81548152906001019060200180831161284e57829003601f168201915b50505050508152602001600382015481525050815260200190600101906126d7565b50505050905090565b6000600260008473ffffffffffffffffffffffffffffffffffffffff1673ffffffffffffffffffffffffffffffffffffffff16815260200190815260200160002060008373ffffffffffffffffffffffffffffffffffffffff1673ffffffffffffffffffffffffffffffffffffffff16815260200190815260200160002060009054906101000a900460ff16905092915050565b600080600860003373ffffffffffffffffffffffffffffffffffffffff1673ffffffffffffffffffffffffffffffffffffffff1681526020019081526020016000206040518060800160405290816000820160009054906101000a900473ffffffffffffffffffffffffffffffffffffffff1673ffffffffffffffffffffffffffffffffffffffff1673ffffffffffffffffffffffffffffffffffffffff1681526020016001820180546129dd90614e4f565b80601f0160208091040260200160405190810160405280929190818152602001828054612a0990614e4f565b8015612a565780601f10612a2b57610100808354040283529160200191612a56565b820191906000526020600020905b815481529060010190602001808311612a3957829003601f168201915b50505050508152602001600282018054612a6f90614e4f565b80601f0160208091040260200160405190810160405280929190818152602001828054612a9b90614e4f565b8015612ae85780601f10612abd57610100808354040283529160200191612ae8565b820191906000526020600020905b815481529060010190602001808311612acb57829003601f168201915b505050505081526020016003820154815250509050600073ffffffffffffffffffffffffffffffffffffffff16816000015173ffffffffffffffffffffffffffffffffffffffff1603612b3f576000915050612b45565b60019150505b90565b612b50612cec565b73ffffffffffffffffffffffffffffffffffffffff168573ffffffffffffffffffffffffffffffffffffffff161480612b965750612b9585612b90612cec565b612896565b5b612bd5576040517f08c379a0000000000000000000000000000000000000000000000000000000008152600401612bcc906151dd565b60405180910390fd5b612be2858585858561387a565b5050505050565b612c7f81604051602401612bfd9190614264565b6040516020818303038152906040527f41304fac000000000000000000000000000000000000000000000000000000007bffffffffffffffffffffffffffffffffffffffffffffffffffffffff19166020820180517bffffffffffffffffffffffffffffffffffffffffffffffffffffffff8381831617835250505050613b18565b50565b60007f01ffc9a7000000000000000000000000000000000000000000000000000000007bffffffffffffffffffffffffffffffffffffffffffffffffffffffff1916827bffffffffffffffffffffffffffffffffffffffffffffffffffffffff1916149050919050565b600033905090565b8151835114612d38576040517f08c379a0000000000000000000000000000000000000000000000000000000008152600401612d2f90615806565b60405180910390fd5b600073ffffffffffffffffffffffffffffffffffffffff168473ffffffffffffffffffffffffffffffffffffffff1603612da7576040517f08c379a0000000000000000000000000000000000000000000000000000000008152600401612d9e90615898565b60405180910390fd5b6000612db1612cec565b9050612dc1818787878787613b41565b60005b8451811015612f75576000858281518110612de257612de1614fb0565b5b602002602001015190506000858381518110612e0157612e00614fb0565b5b6020026020010151905060006001600084815260200190815260200160002060008b73ffffffffffffffffffffffffffffffffffffffff1673ffffffffffffffffffffffffffffffffffffffff16815260200190815260200160002054905081811015612ea3576040517f08c379a0000000000000000000000000000000000000000000000000000000008152600401612e9a9061592a565b60405180910390fd5b8181036001600085815260200190815260200160002060008c73ffffffffffffffffffffffffffffffffffffffff1673ffffffffffffffffffffffffffffffffffffffff16815260200190815260200160002081905550816001600085815260200190815260200160002060008b73ffffffffffffffffffffffffffffffffffffffff1673ffffffffffffffffffffffffffffffffffffffff1681526020019081526020016000206000828254612f5a9190614f7c565b9250508190555050505080612f6e90614fdf565b9050612dc4565b508473ffffffffffffffffffffffffffffffffffffffff168673ffffffffffffffffffffffffffffffffffffffff168273ffffffffffffffffffffffffffffffffffffffff167f4a39dc06d4c0dbc64b70af90fd698a233a518aa5d07e595d983b8c0526c8f7fb8787604051612fec92919061594a565b60405180910390a4613002818787878787613b49565b613010818787878787613b51565b505050505050565b6001816000016000828254019250508190555050565b600081600001549050919050565b600073ffffffffffffffffffffffffffffffffffffffff168473ffffffffffffffffffffffffffffffffffffffff16036130ab576040517f08c379a00000000000000000000000000000000000000000000000000000000081526004016130a2906159f3565b60405180910390fd5b60006130b5612cec565b905060006130c285613d28565b905060006130cf85613d28565b90506130e083600089858589613b41565b846001600088815260200190815260200160002060008973ffffffffffffffffffffffffffffffffffffffff1673ffffffffffffffffffffffffffffffffffffffff16815260200190815260200160002060008282546131409190614f7c565b925050819055508673ffffffffffffffffffffffffffffffffffffffff16600073ffffffffffffffffffffffffffffffffffffffff168473ffffffffffffffffffffffffffffffffffffffff167fc3d58168c5ae7397731d063d5bbf3d657854427343f4c083240f7aacaa2d0f6289896040516131be929190615a13565b60405180910390a46131d583600089858589613b49565b6131e483600089898989613da2565b50505050505050565b8060076000848152602001908152602001600020908161320d91906156c2565b505050565b336000600860008373ffffffffffffffffffffffffffffffffffffffff1673ffffffffffffffffffffffffffffffffffffffff1681526020019081526020016000206040518060800160405290816000820160009054906101000a900473ffffffffffffffffffffffffffffffffffffffff1673ffffffffffffffffffffffffffffffffffffffff1673ffffffffffffffffffffffffffffffffffffffff1681526020016001820180546132c590614e4f565b80601f01602080910402602001604051908101604052809291908181526020018280546132f190614e4f565b801561333e5780601f106133135761010080835404028352916020019161333e565b820191906000526020600020905b81548152906001019060200180831161332157829003601f168201915b5050505050815260200160028201805461335790614e4f565b80601f016020809104026020016040519081016040528092919081815260200182805461338390614e4f565b80156133d05780601f106133a5576101008083540402835291602001916133d0565b820191906000526020600020905b8154815290600101906020018083116133b357829003601f168201915b505050505081526020016003820154815250509050600073ffffffffffffffffffffffffffffffffffffffff16816000015173ffffffffffffffffffffffffffffffffffffffff160361345a57816040517f5d35c4290000000000000000000000000000000000000000000000000000000081526004016134519190614e8f565b60405180910390fd5b6005600960003373ffffffffffffffffffffffffffffffffffffffff1673ffffffffffffffffffffffffffffffffffffffff16815260200190815260200160002080549050106134df576040517f08c379a00000000000000000000000000000000000000000000000000000000081526004016134d690615347565b60405180910390fd5b61351d6040518060400160405280600e81526020017f697320697420676f20686572653f000000000000000000000000000000000000815250612be9565b600960003373ffffffffffffffffffffffffffffffffffffffff1673ffffffffffffffffffffffffffffffffffffffff16815260200190815260200160002060405180606001604052808581526020018773ffffffffffffffffffffffffffffffffffffffff1681526020018681525090806001815401808255809150506001900390600052602060002090600302016000909190919091506000820151816000015560208201518160010160006101000a81548173ffffffffffffffffffffffffffffffffffffffff021916908373ffffffffffffffffffffffffffffffffffffffff1602179055506040820151816002015550506136516040518060400160405280600b81526020017f726561636820686572653f000000000000000000000000000000000000000000815250612be9565b5050505050565b8173ffffffffffffffffffffffffffffffffffffffff168373ffffffffffffffffffffffffffffffffffffffff16036136c6576040517f08c379a00000000000000000000000000000000000000000000000000000000081526004016136bd90615aae565b60405180910390fd5b80600260008573ffffffffffffffffffffffffffffffffffffffff1673ffffffffffffffffffffffffffffffffffffffff16815260200190815260200160002060008473ffffffffffffffffffffffffffffffffffffffff1673ffffffffffffffffffffffffffffffffffffffff16815260200190815260200160002060006101000a81548160ff0219169083151502179055508173ffffffffffffffffffffffffffffffffffffffff168373ffffffffffffffffffffffffffffffffffffffff167f17307eab39ab6107e8899845ad3d59bd9653f200f220920489ca2b5937696c31836040516137b791906141b9565b60405180910390a3505050565b6001600a60003373ffffffffffffffffffffffffffffffffffffffff1673ffffffffffffffffffffffffffffffffffffffff16815260200190815260200160002060008473ffffffffffffffffffffffffffffffffffffffff1673ffffffffffffffffffffffffffffffffffffffff168152602001908152602001600020600201826005811061385757613856614fb0565b5b602091828204019190066101000a81548160ff0219169083151502179055505050565b600073ffffffffffffffffffffffffffffffffffffffff168473ffffffffffffffffffffffffffffffffffffffff16036138e9576040517f08c379a00000000000000000000000000000000000000000000000000000000081526004016138e090615898565b60405180910390fd5b60006138f3612cec565b9050600061390085613d28565b9050600061390d85613d28565b905061391d838989858589613b41565b60006001600088815260200190815260200160002060008a73ffffffffffffffffffffffffffffffffffffffff1673ffffffffffffffffffffffffffffffffffffffff168152602001908152602001600020549050858110156139b5576040517f08c379a00000000000000000000000000000000000000000000000000000000081526004016139ac9061592a565b60405180910390fd5b8581036001600089815260200190815260200160002060008b73ffffffffffffffffffffffffffffffffffffffff1673ffffffffffffffffffffffffffffffffffffffff16815260200190815260200160002081905550856001600089815260200190815260200160002060008a73ffffffffffffffffffffffffffffffffffffffff1673ffffffffffffffffffffffffffffffffffffffff1681526020019081526020016000206000828254613a6c9190614f7c565b925050819055508773ffffffffffffffffffffffffffffffffffffffff168973ffffffffffffffffffffffffffffffffffffffff168573ffffffffffffffffffffffffffffffffffffffff167fc3d58168c5ae7397731d063d5bbf3d657854427343f4c083240f7aacaa2d0f628a8a604051613ae9929190615a13565b60405180910390a4613aff848a8a86868a613b49565b613b0d848a8a8a8a8a613da2565b505050505050505050565b60008151905060006a636f6e736f6c652e6c6f679050602083016000808483855afa5050505050565b505050505050565b505050505050565b613b708473ffffffffffffffffffffffffffffffffffffffff16613f79565b15613d20578373ffffffffffffffffffffffffffffffffffffffff1663bc197c8187878686866040518663ffffffff1660e01b8152600401613bb6959493929190615b23565b6020604051808303816000875af1925050508015613bf257506040513d601f19601f82011682018060405250810190613bef9190615ba0565b60015b613c9757613bfe615bda565b806308c379a003613c5a5750613c12615bfc565b80613c1d5750613c5c565b806040517f08c379a0000000000000000000000000000000000000000000000000000000008152600401613c519190614264565b60405180910390fd5b505b6040517f08c379a0000000000000000000000000000000000000000000000000000000008152600401613c8e90615cfe565b60405180910390fd5b63bc197c8160e01b7bffffffffffffffffffffffffffffffffffffffffffffffffffffffff1916817bffffffffffffffffffffffffffffffffffffffffffffffffffffffff191614613d1e576040517f08c379a0000000000000000000000000000000000000000000000000000000008152600401613d1590615d90565b60405180910390fd5b505b505050505050565b60606000600167ffffffffffffffff811115613d4757613d466143e6565b5b604051908082528060200260200182016040528015613d755781602001602082028036833780820191505090505b5090508281600081518110613d8d57613d8c614fb0565b5b60200260200101818152505080915050919050565b613dc18473ffffffffffffffffffffffffffffffffffffffff16613f79565b15613f71578373ffffffffffffffffffffffffffffffffffffffff1663f23a6e6187878686866040518663ffffffff1660e01b8152600401613e07959493929190615db0565b6020604051808303816000875af1925050508015613e4357506040513d601f19601f82011682018060405250810190613e409190615ba0565b60015b613ee857613e4f615bda565b806308c379a003613eab5750613e63615bfc565b80613e6e5750613ead565b806040517f08c379a0000000000000000000000000000000000000000000000000000000008152600401613ea29190614264565b60405180910390fd5b505b6040517f08c379a0000000000000000000000000000000000000000000000000000000008152600401613edf90615cfe565b60405180910390fd5b63f23a6e6160e01b7bffffffffffffffffffffffffffffffffffffffffffffffffffffffff1916817bffffffffffffffffffffffffffffffffffffffffffffffffffffffff191614613f6f576040517f08c379a0000000000000000000000000000000000000000000000000000000008152600401613f6690615d90565b60405180910390fd5b505b505050505050565b6000808273ffffffffffffffffffffffffffffffffffffffff163b119050919050565b6040518060800160405280600073ffffffffffffffffffffffffffffffffffffffff1681526020016060815260200160608152602001600081525090565b6000604051905090565b600080fd5b600080fd5b600073ffffffffffffffffffffffffffffffffffffffff82169050919050565b600061401982613fee565b9050919050565b6140298161400e565b811461403457600080fd5b50565b60008135905061404681614020565b92915050565b60006020828403121561406257614061613fe4565b5b600061407084828501614037565b91505092915050565b6000819050919050565b61408c81614079565b811461409757600080fd5b50565b6000813590506140a981614083565b92915050565b600080604083850312156140c6576140c5613fe4565b5b60006140d485828601614037565b92505060206140e58582860161409a565b9150509250929050565b6140f881614079565b82525050565b600060208201905061411360008301846140ef565b92915050565b60007fffffffff0000000000000000000000000000000000000000000000000000000082169050919050565b61414e81614119565b811461415957600080fd5b50565b60008135905061416b81614145565b92915050565b60006020828403121561418757614186613fe4565b5b60006141958482850161415c565b91505092915050565b60008115159050919050565b6141b38161419e565b82525050565b60006020820190506141ce60008301846141aa565b92915050565b600081519050919050565b600082825260208201905092915050565b60005b8381101561420e5780820151818401526020810190506141f3565b60008484015250505050565b6000601f19601f8301169050919050565b6000614236826141d4565b61424081856141df565b93506142508185602086016141f0565b6142598161421a565b840191505092915050565b6000602082019050818103600083015261427e818461422b565b905092915050565b60006020828403121561429c5761429b613fe4565b5b60006142aa8482850161409a565b91505092915050565b600081519050919050565b600082825260208201905092915050565b6000819050602082019050919050565b600082825260208201905092915050565b60006142fb826141d4565b61430581856142df565b93506143158185602086016141f0565b61431e8161421a565b840191505092915050565b600061433583836142f0565b905092915050565b6000602082019050919050565b6000614355826142b3565b61435f81856142be565b935083602082028501614371856142cf565b8060005b858110156143ad578484038952815161438e8582614329565b94506143998361433d565b925060208a01995050600181019050614375565b50829750879550505050505092915050565b600060208201905081810360008301526143d9818461434a565b905092915050565b600080fd5b7f4e487b7100000000000000000000000000000000000000000000000000000000600052604160045260246000fd5b61441e8261421a565b810181811067ffffffffffffffff8211171561443d5761443c6143e6565b5b80604052505050565b6000614450613fda565b905061445c8282614415565b919050565b600067ffffffffffffffff82111561447c5761447b6143e6565b5b602082029050602081019050919050565b600080fd5b60006144a56144a084614461565b614446565b905080838252602082019050602084028301858111156144c8576144c761448d565b5b835b818110156144f157806144dd888261409a565b8452602084019350506020810190506144ca565b5050509392505050565b600082601f8301126145105761450f6143e1565b5b8135614520848260208601614492565b91505092915050565b600080fd5b600067ffffffffffffffff821115614549576145486143e6565b5b6145528261421a565b9050602081019050919050565b82818337600083830152505050565b600061458161457c8461452e565b614446565b90508281526020810184848401111561459d5761459c614529565b5b6145a884828561455f565b509392505050565b600082601f8301126145c5576145c46143e1565b5b81356145d584826020860161456e565b91505092915050565b600080600080600060a086880312156145fa576145f9613fe4565b5b600061460888828901614037565b955050602061461988828901614037565b945050604086013567ffffffffffffffff81111561463a57614639613fe9565b5b614646888289016144fb565b935050606086013567ffffffffffffffff81111561466757614666613fe9565b5b614673888289016144fb565b925050608086013567ffffffffffffffff81111561469457614693613fe9565b5b6146a0888289016145b0565b9150509295509295909350565b600067ffffffffffffffff8211156146c8576146c76143e6565b5b602082029050602081019050919050565b60006146ec6146e7846146ad565b614446565b9050808382526020820190506020840283018581111561470f5761470e61448d565b5b835b8181101561473857806147248882614037565b845260208401935050602081019050614711565b5050509392505050565b600082601f830112614757576147566143e1565b5b81356147678482602086016146d9565b91505092915050565b6000806040838503121561478757614786613fe4565b5b600083013567ffffffffffffffff8111156147a5576147a4613fe9565b5b6147b185828601614742565b925050602083013567ffffffffffffffff8111156147d2576147d1613fe9565b5b6147de858286016144fb565b9150509250929050565b600081519050919050565b600082825260208201905092915050565b6000819050602082019050919050565b61481d81614079565b82525050565b600061482f8383614814565b60208301905092915050565b6000602082019050919050565b6000614853826147e8565b61485d81856147f3565b935061486883614804565b8060005b838110156148995781516148808882614823565b975061488b8361483b565b92505060018101905061486c565b5085935050505092915050565b600060208201905081810360008301526148c08184614848565b905092915050565b600067ffffffffffffffff8211156148e3576148e26143e6565b5b6148ec8261421a565b9050602081019050919050565b600061490c614907846148c8565b614446565b90508281526020810184848401111561492857614927614529565b5b61493384828561455f565b509392505050565b600082601f8301126149505761494f6143e1565b5b81356149608482602086016148f9565b91505092915050565b600080604083850312156149805761497f613fe4565b5b600083013567ffffffffffffffff81111561499e5761499d613fe9565b5b6149aa8582860161493b565b92505060206149bb8582860161409a565b9150509250929050565b6149ce8161400e565b82525050565b60006080830160008301516149ec60008601826149c5565b5060208301518482036020860152614a0482826142f0565b91505060408301518482036040860152614a1e82826142f0565b9150506060830151614a336060860182614814565b508091505092915050565b60006020820190508181036000830152614a5881846149d4565b905092915050565b614a698161419e565b8114614a7457600080fd5b50565b600081359050614a8681614a60565b92915050565b60008060408385031215614aa357614aa2613fe4565b5b6000614ab185828601614037565b9250506020614ac285828601614a77565b9150509250929050565b600080600060608486031215614ae557614ae4613fe4565b5b6000614af386828701614037565b9350506020614b0486828701614037565b9250506040614b158682870161409a565b9150509250925092565b600080fd5b60008083601f840112614b3a57614b396143e1565b5b8235905067ffffffffffffffff811115614b5757614b56614b1f565b5b602083019150836001820283011115614b7357614b7261448d565b5b9250929050565b60008060008060408587031215614b9457614b93613fe4565b5b600085013567ffffffffffffffff811115614bb257614bb1613fe9565b5b614bbe87828801614b24565b9450945050602085013567ffffffffffffffff811115614be157614be0613fe9565b5b614bed87828801614b24565b925092505092959194509250565b600081519050919050565b600082825260208201905092915050565b6000819050602082019050919050565b6000608083016000830151614c3f60008601826149c5565b5060208301518482036020860152614c5782826142f0565b91505060408301518482036040860152614c7182826142f0565b9150506060830151614c866060860182614814565b508091505092915050565b6000614c9d8383614c27565b905092915050565b6000602082019050919050565b6000614cbd82614bfb565b614cc78185614c06565b935083602082028501614cd985614c17565b8060005b85811015614d155784840389528151614cf68582614c91565b9450614d0183614ca5565b925060208a01995050600181019050614cdd565b50829750879550505050505092915050565b60006020820190508181036000830152614d418184614cb2565b905092915050565b60008060408385031215614d6057614d5f613fe4565b5b6000614d6e85828601614037565b9250506020614d7f85828601614037565b9150509250929050565b600080600080600060a08688031215614da557614da4613fe4565b5b6000614db388828901614037565b9550506020614dc488828901614037565b9450506040614dd58882890161409a565b9350506060614de68882890161409a565b925050608086013567ffffffffffffffff811115614e0757614e06613fe9565b5b614e13888289016145b0565b9150509295509295909350565b7f4e487b7100000000000000000000000000000000000000000000000000000000600052602260045260246000fd5b60006002820490506001821680614e6757607f821691505b602082108103614e7a57614e79614e20565b5b50919050565b614e898161400e565b82525050565b6000602082019050614ea46000830184614e80565b92915050565b7f5265656e7472616e637947756172643a207265656e7472616e742063616c6c00600082015250565b6000614ee0601f836141df565b9150614eeb82614eaa565b602082019050919050565b60006020820190508181036000830152614f0f81614ed3565b9050919050565b6000606082019050614f2b6000830186614e80565b614f386020830185614e80565b614f4560408301846140ef565b949350505050565b7f4e487b7100000000000000000000000000000000000000000000000000000000600052601160045260246000fd5b6000614f8782614079565b9150614f9283614079565b9250828201905080821115614faa57614fa9614f4d565b5b92915050565b7f4e487b7100000000000000000000000000000000000000000000000000000000600052603260045260246000fd5b6000614fea82614079565b91507fffffffffffffffffffffffffffffffffffffffffffffffffffffffffffffffff820361501c5761501b614f4d565b5b600182019050919050565b7f455243313135353a2061646472657373207a65726f206973206e6f742061207660008201527f616c6964206f776e657200000000000000000000000000000000000000000000602082015250565b6000615083602a836141df565b915061508e82615027565b604082019050919050565b600060208201905081810360008301526150b281615076565b9050919050565b600081905092915050565b50565b60006150d46000836150b9565b91506150df826150c4565b600082019050919050565b60006150f5826150c7565b9150819050919050565b7f5472616e73666572206661696c65640000000000000000000000000000000000600082015250565b6000615135600f836141df565b9150615140826150ff565b602082019050919050565b6000602082019050818103600083015261516481615128565b9050919050565b7f455243313135353a2063616c6c6572206973206e6f7420746f6b656e206f776e60008201527f6572206e6f7220617070726f7665640000000000000000000000000000000000602082015250565b60006151c7602f836141df565b91506151d28261516b565b604082019050919050565b600060208201905081810360008301526151f6816151ba565b9050919050565b7f455243313135353a206163636f756e747320616e6420696473206c656e67746860008201527f206d69736d617463680000000000000000000000000000000000000000000000602082015250565b60006152596029836141df565b9150615264826151fd565b604082019050919050565b600060208201905081810360008301526152888161524c565b9050919050565b7f4e6f7420612063726561746f722c207265676973746572206669727374000000600082015250565b60006152c5601d836141df565b91506152d08261528f565b602082019050919050565b600060208201905081810360008301526152f4816152b8565b9050919050565b7f596f75207265616368206c696d6974206f66206d696c6573746f6e6500000000600082015250565b6000615331601c836141df565b915061533c826152fb565b602082019050919050565b6000602082019050818103600083015261536081615324565b9050919050565b7f596f7520617265206e6f7420656c6c696769626c650000000000000000000000600082015250565b600061539d6015836141df565b91506153a882615367565b602082019050919050565b600060208201905081810360008301526153cc81615390565b9050919050565b600082905092915050565b60008190508160005260206000209050919050565b60006020601f8301049050919050565b600082821b905092915050565b6000600883026154407fffffffffffffffffffffffffffffffffffffffffffffffffffffffffffffffff82615403565b61544a8683615403565b95508019841693508086168417925050509392505050565b6000819050919050565b600061548761548261547d84614079565b615462565b614079565b9050919050565b6000819050919050565b6154a18361546c565b6154b56154ad8261548e565b848454615410565b825550505050565b600090565b6154ca6154bd565b6154d5818484615498565b505050565b5b818110156154f9576154ee6000826154c2565b6001810190506154db565b5050565b601f82111561553e5761550f816153de565b615518846153f3565b81016020851015615527578190505b61553b615533856153f3565b8301826154da565b50505b505050565b600082821c905092915050565b600061556160001984600802615543565b1980831691505092915050565b600061557a8383615550565b9150826002028217905092915050565b61559483836153d3565b67ffffffffffffffff8111156155ad576155ac6143e6565b5b6155b78254614e4f565b6155c28282856154fd565b6000601f8311600181146155f157600084156155df578287013590505b6155e9858261556e565b865550615651565b601f1984166155ff866153de565b60005b8281101561562757848901358255600182019150602085019450602081019050615602565b868310156156445784890135615640601f891682615550565b8355505b6001600288020188555050505b50505050505050565b600061566683856141df565b935061567383858461455f565b61567c8361421a565b840190509392505050565b600060408201905081810360008301526156a281868861565a565b905081810360208301526156b781848661565a565b905095945050505050565b6156cb826141d4565b67ffffffffffffffff8111156156e4576156e36143e6565b5b6156ee8254614e4f565b6156f98282856154fd565b600060209050601f83116001811461572c576000841561571a578287015190505b615724858261556e565b86555061578c565b601f19841661573a866153de565b60005b828110156157625784890151825560018201915060208501945060208101905061573d565b8683101561577f578489015161577b601f891682615550565b8355505b6001600288020188555050505b505050505050565b7f455243313135353a2069647320616e6420616d6f756e7473206c656e6774682060008201527f6d69736d61746368000000000000000000000000000000000000000000000000602082015250565b60006157f06028836141df565b91506157fb82615794565b604082019050919050565b6000602082019050818103600083015261581f816157e3565b9050919050565b7f455243313135353a207472616e7366657220746f20746865207a65726f20616460008201527f6472657373000000000000000000000000000000000000000000000000000000602082015250565b60006158826025836141df565b915061588d82615826565b604082019050919050565b600060208201905081810360008301526158b181615875565b9050919050565b7f455243313135353a20696e73756666696369656e742062616c616e636520666f60008201527f72207472616e7366657200000000000000000000000000000000000000000000602082015250565b6000615914602a836141df565b915061591f826158b8565b604082019050919050565b6000602082019050818103600083015261594381615907565b9050919050565b600060408201905081810360008301526159648185614848565b905081810360208301526159788184614848565b90509392505050565b7f455243313135353a206d696e7420746f20746865207a65726f2061646472657360008201527f7300000000000000000000000000000000000000000000000000000000000000602082015250565b60006159dd6021836141df565b91506159e882615981565b604082019050919050565b60006020820190508181036000830152615a0c816159d0565b9050919050565b6000604082019050615a2860008301856140ef565b615a3560208301846140ef565b9392505050565b7f455243313135353a2073657474696e6720617070726f76616c2073746174757360008201527f20666f722073656c660000000000000000000000000000000000000000000000602082015250565b6000615a986029836141df565b9150615aa382615a3c565b604082019050919050565b60006020820190508181036000830152615ac781615a8b565b9050919050565b600081519050919050565b600082825260208201905092915050565b6000615af582615ace565b615aff8185615ad9565b9350615b0f8185602086016141f0565b615b188161421a565b840191505092915050565b600060a082019050615b386000830188614e80565b615b456020830187614e80565b8181036040830152615b578186614848565b90508181036060830152615b6b8185614848565b90508181036080830152615b7f8184615aea565b90509695505050505050565b600081519050615b9a81614145565b92915050565b600060208284031215615bb657615bb5613fe4565b5b6000615bc484828501615b8b565b91505092915050565b60008160e01c9050919050565b600060033d1115615bf95760046000803e615bf6600051615bcd565b90505b90565b600060443d10615c8957615c0e613fda565b60043d036004823e80513d602482011167ffffffffffffffff82111715615c36575050615c89565b808201805167ffffffffffffffff811115615c545750505050615c89565b80602083010160043d038501811115615c71575050505050615c89565b615c8082602001850186614415565b82955050505050505b90565b7f455243313135353a207472616e7366657220746f206e6f6e204552433131353560008201527f526563656976657220696d706c656d656e746572000000000000000000000000602082015250565b6000615ce86034836141df565b9150615cf382615c8c565b604082019050919050565b60006020820190508181036000830152615d1781615cdb565b9050919050565b7f455243313135353a204552433131353552656365697665722072656a6563746560008201527f6420746f6b656e73000000000000000000000000000000000000000000000000602082015250565b6000615d7a6028836141df565b9150615d8582615d1e565b604082019050919050565b60006020820190508181036000830152615da981615d6d565b9050919050565b600060a082019050615dc56000830188614e80565b615dd26020830187614e80565b615ddf60408301866140ef565b615dec60608301856140ef565b8181036080830152615dfe8184615aea565b9050969550505050505056fea2646970667358221220d45cd8e4f9fc8a4841ce3174162de17ab77d207ce81c4bee5fffb004efa581a264736f6c63430008110033",
  "devdoc": {
    "kind": "dev",
    "methods": {
      "balanceOf(address,uint256)": {
        "details": "See {IERC1155-balanceOf}. Requirements: - `account` cannot be the zero address."
      },
      "balanceOfBatch(address[],uint256[])": {
        "details": "See {IERC1155-balanceOfBatch}. Requirements: - `accounts` and `ids` must have the same length."
      },
      "isApprovedForAll(address,address)": {
        "details": "See {IERC1155-isApprovedForAll}."
      },
      "safeBatchTransferFrom(address,address,uint256[],uint256[],bytes)": {
        "details": "See {IERC1155-safeBatchTransferFrom}."
      },
      "safeTransferFrom(address,address,uint256,uint256,bytes)": {
        "details": "See {IERC1155-safeTransferFrom}."
      },
      "setApprovalForAll(address,bool)": {
        "details": "See {IERC1155-setApprovalForAll}."
      },
      "supportsInterface(bytes4)": {
        "details": "See {IERC165-supportsInterface}."
      }
    },
    "version": 1
  },
  "userdoc": {
    "kind": "user",
    "methods": {},
    "version": 1
  },
  "storageLayout": {
    "storage": [
      {
        "astId": 10,
        "contract": "contracts/MilestoneNFTv2.sol:MilestoneNFTv2",
        "label": "_status",
        "offset": 0,
        "slot": "0",
        "type": "t_uint256"
      },
      {
        "astId": 65,
        "contract": "contracts/MilestoneNFTv2.sol:MilestoneNFTv2",
        "label": "_balances",
        "offset": 0,
        "slot": "1",
        "type": "t_mapping(t_uint256,t_mapping(t_address,t_uint256))"
      },
      {
        "astId": 71,
        "contract": "contracts/MilestoneNFTv2.sol:MilestoneNFTv2",
        "label": "_operatorApprovals",
        "offset": 0,
        "slot": "2",
        "type": "t_mapping(t_address,t_mapping(t_address,t_bool))"
      },
      {
        "astId": 73,
        "contract": "contracts/MilestoneNFTv2.sol:MilestoneNFTv2",
        "label": "_uri",
        "offset": 0,
        "slot": "3",
        "type": "t_string_storage"
      },
      {
        "astId": 1922,
        "contract": "contracts/MilestoneNFTv2.sol:MilestoneNFTv2",
        "label": "_tokenIds",
        "offset": 0,
        "slot": "4",
        "type": "t_struct(Counter)1763_storage"
      },
      {
        "astId": 1924,
        "contract": "contracts/MilestoneNFTv2.sol:MilestoneNFTv2",
        "label": "name",
        "offset": 0,
        "slot": "5",
        "type": "t_string_storage"
      },
      {
        "astId": 1926,
        "contract": "contracts/MilestoneNFTv2.sol:MilestoneNFTv2",
        "label": "symbol",
        "offset": 0,
        "slot": "6",
        "type": "t_string_storage"
      },
      {
        "astId": 1930,
        "contract": "contracts/MilestoneNFTv2.sol:MilestoneNFTv2",
        "label": "tokenURI",
        "offset": 0,
        "slot": "7",
        "type": "t_mapping(t_uint256,t_string_storage)"
      },
      {
        "astId": 1996,
        "contract": "contracts/MilestoneNFTv2.sol:MilestoneNFTv2",
        "label": "s_creators",
        "offset": 0,
        "slot": "8",
        "type": "t_mapping(t_address,t_struct(Creator)1939_storage)"
      },
      {
        "astId": 2002,
        "contract": "contracts/MilestoneNFTv2.sol:MilestoneNFTv2",
        "label": "s_milestoneArray",
        "offset": 0,
        "slot": "9",
        "type": "t_mapping(t_address,t_array(t_struct(Milestone)1946_storage)dyn_storage)"
      },
      {
        "astId": 2009,
        "contract": "contracts/MilestoneNFTv2.sol:MilestoneNFTv2",
        "label": "s_donators",
        "offset": 0,
        "slot": "10",
        "type": "t_mapping(t_address,t_mapping(t_address,t_struct(MilestonePerDonator)1957_storage))"
      },
      {
        "astId": 2013,
        "contract": "contracts/MilestoneNFTv2.sol:MilestoneNFTv2",
        "label": "s_donatorsCount",
        "offset": 0,
        "slot": "11",
        "type": "t_mapping(t_address,t_uint256)"
      },
      {
        "astId": 2017,
        "contract": "contracts/MilestoneNFTv2.sol:MilestoneNFTv2",
        "label": "s_creatorsList",
        "offset": 0,
        "slot": "12",
        "type": "t_array(t_struct(Creator)1939_storage)dyn_storage"
      }
    ],
    "types": {
      "t_address": {
        "encoding": "inplace",
        "label": "address",
        "numberOfBytes": "20"
      },
      "t_array(t_bool)5_storage": {
        "base": "t_bool",
        "encoding": "inplace",
        "label": "bool[5]",
        "numberOfBytes": "32"
      },
      "t_array(t_struct(Creator)1939_storage)dyn_storage": {
        "base": "t_struct(Creator)1939_storage",
        "encoding": "dynamic_array",
        "label": "struct MilestoneNFTv2.Creator[]",
        "numberOfBytes": "32"
      },
      "t_array(t_struct(Milestone)1946_storage)dyn_storage": {
        "base": "t_struct(Milestone)1946_storage",
        "encoding": "dynamic_array",
        "label": "struct MilestoneNFTv2.Milestone[]",
        "numberOfBytes": "32"
      },
      "t_bool": {
        "encoding": "inplace",
        "label": "bool",
        "numberOfBytes": "1"
      },
      "t_mapping(t_address,t_array(t_struct(Milestone)1946_storage)dyn_storage)": {
        "encoding": "mapping",
        "key": "t_address",
        "label": "mapping(address => struct MilestoneNFTv2.Milestone[])",
        "numberOfBytes": "32",
        "value": "t_array(t_struct(Milestone)1946_storage)dyn_storage"
      },
      "t_mapping(t_address,t_bool)": {
        "encoding": "mapping",
        "key": "t_address",
        "label": "mapping(address => bool)",
        "numberOfBytes": "32",
        "value": "t_bool"
      },
      "t_mapping(t_address,t_mapping(t_address,t_bool))": {
        "encoding": "mapping",
        "key": "t_address",
        "label": "mapping(address => mapping(address => bool))",
        "numberOfBytes": "32",
        "value": "t_mapping(t_address,t_bool)"
      },
      "t_mapping(t_address,t_mapping(t_address,t_struct(MilestonePerDonator)1957_storage))": {
        "encoding": "mapping",
        "key": "t_address",
        "label": "mapping(address => mapping(address => struct MilestoneNFTv2.MilestonePerDonator))",
        "numberOfBytes": "32",
        "value": "t_mapping(t_address,t_struct(MilestonePerDonator)1957_storage)"
      },
      "t_mapping(t_address,t_struct(Creator)1939_storage)": {
        "encoding": "mapping",
        "key": "t_address",
        "label": "mapping(address => struct MilestoneNFTv2.Creator)",
        "numberOfBytes": "32",
        "value": "t_struct(Creator)1939_storage"
      },
      "t_mapping(t_address,t_struct(MilestonePerDonator)1957_storage)": {
        "encoding": "mapping",
        "key": "t_address",
        "label": "mapping(address => struct MilestoneNFTv2.MilestonePerDonator)",
        "numberOfBytes": "32",
        "value": "t_struct(MilestonePerDonator)1957_storage"
      },
      "t_mapping(t_address,t_uint256)": {
        "encoding": "mapping",
        "key": "t_address",
        "label": "mapping(address => uint256)",
        "numberOfBytes": "32",
        "value": "t_uint256"
      },
      "t_mapping(t_uint256,t_mapping(t_address,t_uint256))": {
        "encoding": "mapping",
        "key": "t_uint256",
        "label": "mapping(uint256 => mapping(address => uint256))",
        "numberOfBytes": "32",
        "value": "t_mapping(t_address,t_uint256)"
      },
      "t_mapping(t_uint256,t_string_storage)": {
        "encoding": "mapping",
        "key": "t_uint256",
        "label": "mapping(uint256 => string)",
        "numberOfBytes": "32",
        "value": "t_string_storage"
      },
      "t_string_storage": {
        "encoding": "bytes",
        "label": "string",
        "numberOfBytes": "32"
      },
      "t_struct(Counter)1763_storage": {
        "encoding": "inplace",
        "label": "struct Counters.Counter",
        "members": [
          {
            "astId": 1762,
            "contract": "contracts/MilestoneNFTv2.sol:MilestoneNFTv2",
            "label": "_value",
            "offset": 0,
            "slot": "0",
            "type": "t_uint256"
          }
        ],
        "numberOfBytes": "32"
      },
      "t_struct(Creator)1939_storage": {
        "encoding": "inplace",
        "label": "struct MilestoneNFTv2.Creator",
        "members": [
          {
            "astId": 1932,
            "contract": "contracts/MilestoneNFTv2.sol:MilestoneNFTv2",
            "label": "addr",
            "offset": 0,
            "slot": "0",
            "type": "t_address"
          },
          {
            "astId": 1934,
            "contract": "contracts/MilestoneNFTv2.sol:MilestoneNFTv2",
            "label": "name",
            "offset": 0,
            "slot": "1",
            "type": "t_string_storage"
          },
          {
            "astId": 1936,
            "contract": "contracts/MilestoneNFTv2.sol:MilestoneNFTv2",
            "label": "pic",
            "offset": 0,
            "slot": "2",
            "type": "t_string_storage"
          },
          {
            "astId": 1938,
            "contract": "contracts/MilestoneNFTv2.sol:MilestoneNFTv2",
            "label": "funds",
            "offset": 0,
            "slot": "3",
            "type": "t_uint256"
          }
        ],
        "numberOfBytes": "128"
      },
      "t_struct(Milestone)1946_storage": {
        "encoding": "inplace",
        "label": "struct MilestoneNFTv2.Milestone",
        "members": [
          {
            "astId": 1941,
            "contract": "contracts/MilestoneNFTv2.sol:MilestoneNFTv2",
            "label": "price",
            "offset": 0,
            "slot": "0",
            "type": "t_uint256"
          },
          {
            "astId": 1943,
            "contract": "contracts/MilestoneNFTv2.sol:MilestoneNFTv2",
            "label": "nftAddress",
            "offset": 0,
            "slot": "1",
            "type": "t_address"
          },
          {
            "astId": 1945,
            "contract": "contracts/MilestoneNFTv2.sol:MilestoneNFTv2",
            "label": "tokenId",
            "offset": 0,
            "slot": "2",
            "type": "t_uint256"
          }
        ],
        "numberOfBytes": "96"
      },
      "t_struct(MilestonePerDonator)1957_storage": {
        "encoding": "inplace",
        "label": "struct MilestoneNFTv2.MilestonePerDonator",
        "members": [
          {
            "astId": 1948,
            "contract": "contracts/MilestoneNFTv2.sol:MilestoneNFTv2",
            "label": "fund",
            "offset": 0,
            "slot": "0",
            "type": "t_uint256"
          },
          {
            "astId": 1952,
            "contract": "contracts/MilestoneNFTv2.sol:MilestoneNFTv2",
            "label": "status",
            "offset": 0,
            "slot": "1",
            "type": "t_array(t_bool)5_storage"
          },
          {
            "astId": 1956,
            "contract": "contracts/MilestoneNFTv2.sol:MilestoneNFTv2",
            "label": "minted",
            "offset": 0,
            "slot": "2",
            "type": "t_array(t_bool)5_storage"
          }
        ],
        "numberOfBytes": "96"
      },
      "t_uint256": {
        "encoding": "inplace",
        "label": "uint256",
        "numberOfBytes": "32"
      }
    }
  }
}