{
  "address": "0xCe0282532475f2Ca9Fbc320EE3604eA1C67A5f51",
  "abi": [
    {
      "inputs": [],
      "stateMutability": "payable",
      "type": "constructor"
    },
    {
      "inputs": [
        {
          "internalType": "address",
          "name": "creatorAddress",
          "type": "address"
        }
      ],
      "name": "AlreadyListed",
      "type": "error"
    },
    {
      "inputs": [
        {
          "internalType": "address",
          "name": "sender",
          "type": "address"
        },
        {
          "internalType": "address",
          "name": "creator",
          "type": "address"
        },
        {
          "internalType": "uint256",
          "name": "donate",
          "type": "uint256"
        }
      ],
      "name": "AmountToLow",
      "type": "error"
    },
    {
      "inputs": [],
      "name": "NoFunds",
      "type": "error"
    },
    {
      "inputs": [
        {
          "internalType": "address",
          "name": "creatorAddress",
          "type": "address"
        }
      ],
      "name": "NotListed",
      "type": "error"
    },
    {
      "anonymous": false,
      "inputs": [
        {
          "indexed": true,
          "internalType": "address",
          "name": "account",
          "type": "address"
        },
        {
          "indexed": true,
          "internalType": "address",
          "name": "operator",
          "type": "address"
        },
        {
          "indexed": false,
          "internalType": "bool",
          "name": "approved",
          "type": "bool"
        }
      ],
      "name": "ApprovalForAll",
      "type": "event"
    },
    {
      "anonymous": false,
      "inputs": [
        {
          "indexed": true,
          "internalType": "address",
          "name": "creator",
          "type": "address"
        },
        {
          "indexed": true,
          "internalType": "address",
          "name": "donator",
          "type": "address"
        },
        {
          "indexed": false,
          "internalType": "uint256",
          "name": "value",
          "type": "uint256"
        }
      ],
      "name": "Donate",
      "type": "event"
    },
    {
      "anonymous": false,
      "inputs": [
        {
          "indexed": true,
          "internalType": "address",
          "name": "operator",
          "type": "address"
        },
        {
          "indexed": true,
          "internalType": "address",
          "name": "from",
          "type": "address"
        },
        {
          "indexed": true,
          "internalType": "address",
          "name": "to",
          "type": "address"
        },
        {
          "indexed": false,
          "internalType": "uint256[]",
          "name": "ids",
          "type": "uint256[]"
        },
        {
          "indexed": false,
          "internalType": "uint256[]",
          "name": "values",
          "type": "uint256[]"
        }
      ],
      "name": "TransferBatch",
      "type": "event"
    },
    {
      "anonymous": false,
      "inputs": [
        {
          "indexed": true,
          "internalType": "address",
          "name": "operator",
          "type": "address"
        },
        {
          "indexed": true,
          "internalType": "address",
          "name": "from",
          "type": "address"
        },
        {
          "indexed": true,
          "internalType": "address",
          "name": "to",
          "type": "address"
        },
        {
          "indexed": false,
          "internalType": "uint256",
          "name": "id",
          "type": "uint256"
        },
        {
          "indexed": false,
          "internalType": "uint256",
          "name": "value",
          "type": "uint256"
        }
      ],
      "name": "TransferSingle",
      "type": "event"
    },
    {
      "anonymous": false,
      "inputs": [
        {
          "indexed": false,
          "internalType": "string",
          "name": "value",
          "type": "string"
        },
        {
          "indexed": true,
          "internalType": "uint256",
          "name": "id",
          "type": "uint256"
        }
      ],
      "name": "URI",
      "type": "event"
    },
    {
      "anonymous": false,
      "inputs": [
        {
          "indexed": true,
          "internalType": "address",
          "name": "creator",
          "type": "address"
        },
        {
          "indexed": false,
          "internalType": "string",
          "name": "name",
          "type": "string"
        },
        {
          "indexed": false,
          "internalType": "string",
          "name": "pic",
          "type": "string"
        }
      ],
      "name": "UserCreated",
      "type": "event"
    },
    {
      "inputs": [],
      "name": "MAX_MILESTONE",
      "outputs": [
        {
          "internalType": "uint256",
          "name": "",
          "type": "uint256"
        }
      ],
      "stateMutability": "view",
      "type": "function"
    },
    {
      "inputs": [
        {
          "internalType": "address",
          "name": "account",
          "type": "address"
        },
        {
          "internalType": "uint256",
          "name": "id",
          "type": "uint256"
        }
      ],
      "name": "balanceOf",
      "outputs": [
        {
          "internalType": "uint256",
          "name": "",
          "type": "uint256"
        }
      ],
      "stateMutability": "view",
      "type": "function"
    },
    {
      "inputs": [
        {
          "internalType": "address[]",
          "name": "accounts",
          "type": "address[]"
        },
        {
          "internalType": "uint256[]",
          "name": "ids",
          "type": "uint256[]"
        }
      ],
      "name": "balanceOfBatch",
      "outputs": [
        {
          "internalType": "uint256[]",
          "name": "",
          "type": "uint256[]"
        }
      ],
      "stateMutability": "view",
      "type": "function"
    },
    {
      "inputs": [
        {
          "internalType": "string",
          "name": "_name",
          "type": "string"
        },
        {
          "internalType": "string",
          "name": "_pic",
          "type": "string"
        }
      ],
      "name": "creatorRegister",
      "outputs": [],
      "stateMutability": "nonpayable",
      "type": "function"
    },
    {
      "inputs": [
        {
          "internalType": "address",
          "name": "creator",
          "type": "address"
        }
      ],
      "name": "donate",
      "outputs": [],
      "stateMutability": "payable",
      "type": "function"
    },
    {
      "inputs": [
        {
          "internalType": "address",
          "name": "creator",
          "type": "address"
        }
      ],
      "name": "getCreator",
      "outputs": [
        {
          "components": [
            {
              "internalType": "address",
              "name": "addr",
              "type": "address"
            },
            {
              "internalType": "string",
              "name": "name",
              "type": "string"
            },
            {
              "internalType": "string",
              "name": "pic",
              "type": "string"
            },
            {
              "internalType": "uint256",
              "name": "funds",
              "type": "uint256"
            }
          ],
          "internalType": "struct MilestoneNFTv2.Creator",
          "name": "",
          "type": "tuple"
        }
      ],
      "stateMutability": "view",
      "type": "function"
    },
    {
      "inputs": [
        {
          "internalType": "address",
          "name": "creator",
          "type": "address"
        }
      ],
      "name": "getFunds",
      "outputs": [
        {
          "internalType": "uint256",
          "name": "",
          "type": "uint256"
        }
      ],
      "stateMutability": "view",
      "type": "function"
    },
    {
      "inputs": [
        {
          "internalType": "address",
          "name": "creator",
          "type": "address"
        }
      ],
      "name": "getMilestones",
      "outputs": [
        {
          "internalType": "string[]",
          "name": "",
          "type": "string[]"
        }
      ],
      "stateMutability": "view",
      "type": "function"
    },
    {
      "inputs": [
        {
          "internalType": "address",
          "name": "creator",
          "type": "address"
        },
        {
          "internalType": "uint256",
          "name": "milestoneId",
          "type": "uint256"
        }
      ],
      "name": "getTokenId",
      "outputs": [
        {
          "internalType": "uint256",
          "name": "",
          "type": "uint256"
        }
      ],
      "stateMutability": "view",
      "type": "function"
    },
    {
      "inputs": [
        {
          "internalType": "address",
          "name": "account",
          "type": "address"
        },
        {
          "internalType": "address",
          "name": "operator",
          "type": "address"
        }
      ],
      "name": "isApprovedForAll",
      "outputs": [
        {
          "internalType": "bool",
          "name": "",
          "type": "bool"
        }
      ],
      "stateMutability": "view",
      "type": "function"
    },
    {
      "inputs": [],
      "name": "isCreator",
      "outputs": [
        {
          "internalType": "bool",
          "name": "",
          "type": "bool"
        }
      ],
      "stateMutability": "view",
      "type": "function"
    },
    {
      "inputs": [
        {
          "internalType": "address",
          "name": "creatorAddress",
          "type": "address"
        },
        {
          "internalType": "address",
          "name": "donator",
          "type": "address"
        },
        {
          "internalType": "uint256",
          "name": "milestoneId",
          "type": "uint256"
        }
      ],
      "name": "isEligibleToMint",
      "outputs": [
        {
          "internalType": "bool",
          "name": "",
          "type": "bool"
        }
      ],
      "stateMutability": "view",
      "type": "function"
    },
    {
      "inputs": [
        {
          "internalType": "address",
          "name": "creator",
          "type": "address"
        }
      ],
      "name": "isLessMilestones",
      "outputs": [
        {
          "internalType": "bool",
          "name": "",
          "type": "bool"
        }
      ],
      "stateMutability": "view",
      "type": "function"
    },
    {
      "inputs": [
        {
          "internalType": "string",
          "name": "_tokenURI",
          "type": "string"
        },
        {
          "internalType": "uint256",
          "name": "_price",
          "type": "uint256"
        }
      ],
      "name": "mintCreatorNFT",
      "outputs": [
        {
          "internalType": "uint256",
          "name": "",
          "type": "uint256"
        }
      ],
      "stateMutability": "payable",
      "type": "function"
    },
    {
      "inputs": [
        {
          "internalType": "address",
          "name": "artist",
          "type": "address"
        },
        {
          "internalType": "uint256",
          "name": "milestoneId",
          "type": "uint256"
        }
      ],
      "name": "mintDonatorNFT",
      "outputs": [
        {
          "internalType": "uint256",
          "name": "",
          "type": "uint256"
        }
      ],
      "stateMutability": "payable",
      "type": "function"
    },
    {
      "inputs": [],
      "name": "name",
      "outputs": [
        {
          "internalType": "string",
          "name": "",
          "type": "string"
        }
      ],
      "stateMutability": "view",
      "type": "function"
    },
    {
      "inputs": [
        {
          "internalType": "address",
          "name": "from",
          "type": "address"
        },
        {
          "internalType": "address",
          "name": "to",
          "type": "address"
        },
        {
          "internalType": "uint256[]",
          "name": "ids",
          "type": "uint256[]"
        },
        {
          "internalType": "uint256[]",
          "name": "amounts",
          "type": "uint256[]"
        },
        {
          "internalType": "bytes",
          "name": "data",
          "type": "bytes"
        }
      ],
      "name": "safeBatchTransferFrom",
      "outputs": [],
      "stateMutability": "nonpayable",
      "type": "function"
    },
    {
      "inputs": [
        {
          "internalType": "address",
          "name": "from",
          "type": "address"
        },
        {
          "internalType": "address",
          "name": "to",
          "type": "address"
        },
        {
          "internalType": "uint256",
          "name": "id",
          "type": "uint256"
        },
        {
          "internalType": "uint256",
          "name": "amount",
          "type": "uint256"
        },
        {
          "internalType": "bytes",
          "name": "data",
          "type": "bytes"
        }
      ],
      "name": "safeTransferFrom",
      "outputs": [],
      "stateMutability": "nonpayable",
      "type": "function"
    },
    {
      "inputs": [
        {
          "internalType": "address",
          "name": "operator",
          "type": "address"
        },
        {
          "internalType": "bool",
          "name": "approved",
          "type": "bool"
        }
      ],
      "name": "setApprovalForAll",
      "outputs": [],
      "stateMutability": "nonpayable",
      "type": "function"
    },
    {
      "inputs": [
        {
          "internalType": "bytes4",
          "name": "interfaceId",
          "type": "bytes4"
        }
      ],
      "name": "supportsInterface",
      "outputs": [
        {
          "internalType": "bool",
          "name": "",
          "type": "bool"
        }
      ],
      "stateMutability": "view",
      "type": "function"
    },
    {
      "inputs": [],
      "name": "symbol",
      "outputs": [
        {
          "internalType": "string",
          "name": "",
          "type": "string"
        }
      ],
      "stateMutability": "view",
      "type": "function"
    },
    {
      "inputs": [
        {
          "internalType": "uint256",
          "name": "",
          "type": "uint256"
        }
      ],
      "name": "tokenURI",
      "outputs": [
        {
          "internalType": "string",
          "name": "",
          "type": "string"
        }
      ],
      "stateMutability": "view",
      "type": "function"
    },
    {
      "inputs": [
        {
          "internalType": "string",
          "name": "_name",
          "type": "string"
        },
        {
          "internalType": "string",
          "name": "_pic",
          "type": "string"
        }
      ],
      "name": "updateProfile",
      "outputs": [],
      "stateMutability": "nonpayable",
      "type": "function"
    },
    {
      "inputs": [
        {
          "internalType": "uint256",
          "name": "_id",
          "type": "uint256"
        }
      ],
      "name": "uri",
      "outputs": [
        {
          "internalType": "string",
          "name": "",
          "type": "string"
        }
      ],
      "stateMutability": "view",
      "type": "function"
    },
    {
      "inputs": [],
      "name": "withdrawFunds",
      "outputs": [],
      "stateMutability": "nonpayable",
      "type": "function"
    }
  ],
  "transactionHash": "0x7596f9833daaff1ed15bb2bc172c3c856c0d83f73e086a87088ddcc522c82e4f",
  "args": [],
  "numDeployments": 6,
  "solcInputHash": "c306b13dfdc28996d7f37172005162c6",
  "bytecode": "0x60806040526040518060200160405280600081525060016000819055506200002d81620000c260201b60201c565b506040518060400160405280600981526020017f43697269766572736500000000000000000000000000000000000000000000008152506005908162000074919062000351565b506040518060400160405280600481526020017f434952490000000000000000000000000000000000000000000000000000000081525060069081620000bb919062000351565b5062000438565b8060039081620000d3919062000351565b5050565b600081519050919050565b7f4e487b7100000000000000000000000000000000000000000000000000000000600052604160045260246000fd5b7f4e487b7100000000000000000000000000000000000000000000000000000000600052602260045260246000fd5b600060028204905060018216806200015957607f821691505b6020821081036200016f576200016e62000111565b5b50919050565b60008190508160005260206000209050919050565b60006020601f8301049050919050565b600082821b905092915050565b600060088302620001d97fffffffffffffffffffffffffffffffffffffffffffffffffffffffffffffffff826200019a565b620001e586836200019a565b95508019841693508086168417925050509392505050565b6000819050919050565b6000819050919050565b6000620002326200022c6200022684620001fd565b62000207565b620001fd565b9050919050565b6000819050919050565b6200024e8362000211565b620002666200025d8262000239565b848454620001a7565b825550505050565b600090565b6200027d6200026e565b6200028a81848462000243565b505050565b5b81811015620002b257620002a660008262000273565b60018101905062000290565b5050565b601f8211156200030157620002cb8162000175565b620002d6846200018a565b81016020851015620002e6578190505b620002fe620002f5856200018a565b8301826200028f565b50505b505050565b600082821c905092915050565b6000620003266000198460080262000306565b1980831691505092915050565b600062000341838362000313565b9150826002028217905092915050565b6200035c82620000d7565b67ffffffffffffffff811115620003785762000377620000e2565b5b62000384825462000140565b62000391828285620002b6565b600060209050601f831160018114620003c95760008415620003b4578287015190505b620003c0858262000333565b86555062000430565b601f198416620003d98662000175565b60005b828110156200040357848901518255600182019150602085019450602081019050620003dc565b868310156200042357848901516200041f601f89168262000313565b8355505b6001600288020188555050505b505050505050565b6157df80620004486000396000f3fe6080604052600436106101645760003560e01c806395d89b41116100d1578063c87b56dd1161008a578063decebbce11610064578063decebbce14610583578063e985e9c5146105c0578063ee92d484146105fd578063f242432a1461062857610164565b8063c87b56dd146104f4578063c9d3cc6a14610531578063d5b4959a1461055a57610164565b806395d89b41146103cb57806396821fc1146103f6578063a021030914610421578063a22cb4651461045e578063b2bd3ea014610487578063ba1f5ef9146104b757610164565b806322a4e42d1161012357806322a4e42d146102a457806324600fc3146102e157806329f99b9f146102f85780632eb2c2d6146103355780634e1273f41461035e5780635a8c2e471461039b57610164565b8062362a9514610169578062fdd58e1461018557806301ffc9a7146101c257806306fdde03146101ff578063095acc581461022a5780630e89341c14610267575b600080fd5b610183600480360381019061017e9190613b39565b610651565b005b34801561019157600080fd5b506101ac60048036038101906101a79190613b9c565b610d9a565b6040516101b99190613beb565b60405180910390f35b3480156101ce57600080fd5b506101e960048036038101906101e49190613c5e565b610e63565b6040516101f69190613ca6565b60405180910390f35b34801561020b57600080fd5b50610214610f45565b6040516102219190613d51565b60405180910390f35b34801561023657600080fd5b50610251600480360381019061024c9190613b39565b610fd3565b60405161025e9190613ca6565b60405180910390f35b34801561027357600080fd5b5061028e60048036038101906102899190613d73565b611022565b60405161029b9190613d51565b60405180910390f35b3480156102b057600080fd5b506102cb60048036038101906102c69190613b39565b6110c7565b6040516102d89190613eac565b60405180910390f35b3480156102ed57600080fd5b506102f661121e565b005b34801561030457600080fd5b5061031f600480360381019061031a9190613b9c565b611397565b60405161032c9190613beb565b60405180910390f35b34801561034157600080fd5b5061035c600480360381019061035791906140cb565b611404565b005b34801561036a57600080fd5b506103856004803603810190610380919061425d565b6114a5565b6040516103929190614393565b60405180910390f35b6103b560048036038101906103b09190614456565b6115be565b6040516103c29190613beb565b60405180910390f35b3480156103d757600080fd5b506103e06116a2565b6040516103ed9190613d51565b60405180910390f35b34801561040257600080fd5b5061040b611730565b6040516104189190613beb565b60405180910390f35b34801561042d57600080fd5b5061044860048036038101906104439190613b39565b611735565b604051610455919061452b565b60405180910390f35b34801561046a57600080fd5b5061048560048036038101906104809190614579565b611912565b005b6104a1600480360381019061049c9190613b9c565b611928565b6040516104ae9190613beb565b60405180910390f35b3480156104c357600080fd5b506104de60048036038101906104d991906145b9565b6119ac565b6040516104eb9190613ca6565b60405180910390f35b34801561050057600080fd5b5061051b60048036038101906105169190613d73565b611b2c565b6040516105289190613d51565b60405180910390f35b34801561053d57600080fd5b5061055860048036038101906105539190614667565b611bcc565b005b34801561056657600080fd5b50610581600480360381019061057c9190614667565b611f14565b005b34801561058f57600080fd5b506105aa60048036038101906105a59190613b39565b612337565b6040516105b79190613beb565b60405180910390f35b3480156105cc57600080fd5b506105e760048036038101906105e291906146e8565b612383565b6040516105f49190613ca6565b60405180910390f35b34801561060957600080fd5b50610612612417565b60405161061f9190613ca6565b60405180910390f35b34801561063457600080fd5b5061064f600480360381019061064a9190614728565b612635565b005b806000600860008373ffffffffffffffffffffffffffffffffffffffff1673ffffffffffffffffffffffffffffffffffffffff1681526020019081526020016000206040518060800160405290816000820160009054906101000a900473ffffffffffffffffffffffffffffffffffffffff1673ffffffffffffffffffffffffffffffffffffffff1673ffffffffffffffffffffffffffffffffffffffff168152602001600182018054610704906147ee565b80601f0160208091040260200160405190810160405280929190818152602001828054610730906147ee565b801561077d5780601f106107525761010080835404028352916020019161077d565b820191906000526020600020905b81548152906001019060200180831161076057829003601f168201915b50505050508152602001600282018054610796906147ee565b80601f01602080910402602001604051908101604052809291908181526020018280546107c2906147ee565b801561080f5780601f106107e45761010080835404028352916020019161080f565b820191906000526020600020905b8154815290600101906020018083116107f257829003601f168201915b505050505081526020016003820154815250509050600073ffffffffffffffffffffffffffffffffffffffff16816000015173ffffffffffffffffffffffffffffffffffffffff160361089957816040517f5d35c429000000000000000000000000000000000000000000000000000000008152600401610890919061482e565b60405180910390fd5b6002600054036108de576040517f08c379a00000000000000000000000000000000000000000000000000000000081526004016108d590614895565b60405180910390fd5b600260008190555067016345785d8a0000341015610937573383346040517f9d60dc6800000000000000000000000000000000000000000000000000000000815260040161092e939291906148b5565b60405180910390fd5b34600860008573ffffffffffffffffffffffffffffffffffffffff1673ffffffffffffffffffffffffffffffffffffffff1681526020019081526020016000206003016000828254610989919061491b565b9250508190555034600a60003373ffffffffffffffffffffffffffffffffffffffff1673ffffffffffffffffffffffffffffffffffffffff16815260200190815260200160002060008573ffffffffffffffffffffffffffffffffffffffff1673ffffffffffffffffffffffffffffffffffffffff1681526020019081526020016000206000016000828254610a1f919061491b565b925050819055506000600960008573ffffffffffffffffffffffffffffffffffffffff1673ffffffffffffffffffffffffffffffffffffffff1681526020019081526020016000208054905090506000811115610d275760005b81811015610d2557600960008673ffffffffffffffffffffffffffffffffffffffff1673ffffffffffffffffffffffffffffffffffffffff1681526020019081526020016000208181548110610ad257610ad161494f565b5b906000526020600020906003020160000154600a60003373ffffffffffffffffffffffffffffffffffffffff1673ffffffffffffffffffffffffffffffffffffffff16815260200190815260200160002060008773ffffffffffffffffffffffffffffffffffffffff1673ffffffffffffffffffffffffffffffffffffffff1681526020019081526020016000206000015410158015610c1c575060001515600a60003373ffffffffffffffffffffffffffffffffffffffff1673ffffffffffffffffffffffffffffffffffffffff16815260200190815260200160002060008773ffffffffffffffffffffffffffffffffffffffff1673ffffffffffffffffffffffffffffffffffffffff1681526020019081526020016000206002018260058110610c0257610c0161494f565b5b602091828204019190069054906101000a900460ff161515145b15610d12576001600a60003373ffffffffffffffffffffffffffffffffffffffff1673ffffffffffffffffffffffffffffffffffffffff16815260200190815260200160002060008773ffffffffffffffffffffffffffffffffffffffff1673ffffffffffffffffffffffffffffffffffffffff1681526020019081526020016000206001018260058110610cb457610cb361494f565b5b602091828204019190066101000a81548160ff021916908315150217905550610d116040518060400160405280600f81526020017f6a61646920656c6c696769626c653f00000000000000000000000000000000008152506126d6565b5b8080610d1d9061497e565b915050610a79565b505b3373ffffffffffffffffffffffffffffffffffffffff168473ffffffffffffffffffffffffffffffffffffffff167f88dcaca629d63d86330e97adc358b13dd0ebd703239aea96b7ea2fb331b16f4e34604051610d849190613beb565b60405180910390a3506001600081905550505050565b60008073ffffffffffffffffffffffffffffffffffffffff168373ffffffffffffffffffffffffffffffffffffffff1603610e0a576040517f08c379a0000000000000000000000000000000000000000000000000000000008152600401610e0190614a38565b60405180910390fd5b6001600083815260200190815260200160002060008473ffffffffffffffffffffffffffffffffffffffff1673ffffffffffffffffffffffffffffffffffffffff16815260200190815260200160002054905092915050565b60007fd9b67a26000000000000000000000000000000000000000000000000000000007bffffffffffffffffffffffffffffffffffffffffffffffffffffffff1916827bffffffffffffffffffffffffffffffffffffffffffffffffffffffff19161480610f2e57507f0e89341c000000000000000000000000000000000000000000000000000000007bffffffffffffffffffffffffffffffffffffffffffffffffffffffff1916827bffffffffffffffffffffffffffffffffffffffffffffffffffffffff1916145b80610f3e5750610f3d8261276f565b5b9050919050565b60058054610f52906147ee565b80601f0160208091040260200160405190810160405280929190818152602001828054610f7e906147ee565b8015610fcb5780601f10610fa057610100808354040283529160200191610fcb565b820191906000526020600020905b815481529060010190602001808311610fae57829003601f168201915b505050505081565b60006005600960008473ffffffffffffffffffffffffffffffffffffffff1673ffffffffffffffffffffffffffffffffffffffff16815260200190815260200160002080549050109050919050565b6060600760008381526020019081526020016000208054611042906147ee565b80601f016020809104026020016040519081016040528092919081815260200182805461106e906147ee565b80156110bb5780601f10611090576101008083540402835291602001916110bb565b820191906000526020600020905b81548152906001019060200180831161109e57829003601f168201915b50505050509050919050565b60606000600960008473ffffffffffffffffffffffffffffffffffffffff1673ffffffffffffffffffffffffffffffffffffffff16815260200190815260200160002080549050905060008167ffffffffffffffff81111561112c5761112b613ed3565b5b60405190808252806020026020018201604052801561115f57816020015b606081526020019060019003908161114a5790505b50905060008211156112145760005b82811015611212576111e1600960008773ffffffffffffffffffffffffffffffffffffffff1673ffffffffffffffffffffffffffffffffffffffff16815260200190815260200160002082815481106111ca576111c961494f565b5b906000526020600020906003020160020154611022565b8282815181106111f4576111f361494f565b5b6020026020010181905250808061120a9061497e565b91505061116e565b505b8092505050919050565b6000600860003373ffffffffffffffffffffffffffffffffffffffff1673ffffffffffffffffffffffffffffffffffffffff1681526020019081526020016000206003015490506000811161129f576040517f43f9e11000000000000000000000000000000000000000000000000000000000815260040160405180910390fd5b6000600860003373ffffffffffffffffffffffffffffffffffffffff1673ffffffffffffffffffffffffffffffffffffffff1681526020019081526020016000206003018190555060003373ffffffffffffffffffffffffffffffffffffffff168260405161130d90614a89565b60006040518083038185875af1925050503d806000811461134a576040519150601f19603f3d011682016040523d82523d6000602084013e61134f565b606091505b5050905080611393576040517f08c379a000000000000000000000000000000000000000000000000000000000815260040161138a90614aea565b60405180910390fd5b5050565b6000600960008473ffffffffffffffffffffffffffffffffffffffff1673ffffffffffffffffffffffffffffffffffffffff16815260200190815260200160002082815481106113ea576113e961494f565b5b906000526020600020906003020160020154905092915050565b61140c6127d9565b73ffffffffffffffffffffffffffffffffffffffff168573ffffffffffffffffffffffffffffffffffffffff16148061145257506114518561144c6127d9565b612383565b5b611491576040517f08c379a000000000000000000000000000000000000000000000000000000000815260040161148890614b7c565b60405180910390fd5b61149e85858585856127e1565b5050505050565b606081518351146114eb576040517f08c379a00000000000000000000000000000000000000000000000000000000081526004016114e290614c0e565b60405180910390fd5b6000835167ffffffffffffffff81111561150857611507613ed3565b5b6040519080825280602002602001820160405280156115365781602001602082028036833780820191505090505b50905060005b84518110156115b35761158385828151811061155b5761155a61494f565b5b60200260200101518583815181106115765761157561494f565b5b6020026020010151610d9a565b8282815181106115965761159561494f565b5b602002602001018181525050806115ac9061497e565b905061153c565b508091505092915050565b60006115c8612417565b611607576040517f08c379a00000000000000000000000000000000000000000000000000000000081526004016115fe90614c7a565b60405180910390fd5b61161033610fd3565b61164f576040517f08c379a000000000000000000000000000000000000000000000000000000000815260040161164690614ce6565b60405180910390fd5b6116596004612b05565b60006116656004612b1b565b90506116833382600160405180602001604052806000815250612b29565b61168d8185612cda565b611698308285612cff565b8091505092915050565b600680546116af906147ee565b80601f01602080910402602001604051908101604052809291908181526020018280546116db906147ee565b80156117285780601f106116fd57610100808354040283529160200191611728565b820191906000526020600020905b81548152906001019060200180831161170b57829003601f168201915b505050505081565b600581565b61173d613a89565b600860008373ffffffffffffffffffffffffffffffffffffffff1673ffffffffffffffffffffffffffffffffffffffff1681526020019081526020016000206040518060800160405290816000820160009054906101000a900473ffffffffffffffffffffffffffffffffffffffff1673ffffffffffffffffffffffffffffffffffffffff1673ffffffffffffffffffffffffffffffffffffffff1681526020016001820180546117ed906147ee565b80601f0160208091040260200160405190810160405280929190818152602001828054611819906147ee565b80156118665780601f1061183b57610100808354040283529160200191611866565b820191906000526020600020905b81548152906001019060200180831161184957829003601f168201915b5050505050815260200160028201805461187f906147ee565b80601f01602080910402602001604051908101604052809291908181526020018280546118ab906147ee565b80156118f85780601f106118cd576101008083540402835291602001916118f8565b820191906000526020600020905b8154815290600101906020018083116118db57829003601f168201915b505050505081526020016003820154815250509050919050565b61192461191d6127d9565b8383613145565b5050565b60006119358333846119ac565b611974576040517f08c379a000000000000000000000000000000000000000000000000000000000815260040161196b90614d52565b60405180910390fd5b611999336119828585611397565b600160405180602001604052806000815250612b29565b6119a383836132b1565b81905092915050565b600060011515600a60008573ffffffffffffffffffffffffffffffffffffffff1673ffffffffffffffffffffffffffffffffffffffff16815260200190815260200160002060008673ffffffffffffffffffffffffffffffffffffffff1673ffffffffffffffffffffffffffffffffffffffff1681526020019081526020016000206001018360058110611a4357611a4261494f565b5b602091828204019190069054906101000a900460ff161515148015611b12575060001515600a60008573ffffffffffffffffffffffffffffffffffffffff1673ffffffffffffffffffffffffffffffffffffffff16815260200190815260200160002060008673ffffffffffffffffffffffffffffffffffffffff1673ffffffffffffffffffffffffffffffffffffffff1681526020019081526020016000206002018360058110611af857611af761494f565b5b602091828204019190069054906101000a900460ff161515145b15611b205760019050611b25565b600090505b9392505050565b60076020528060005260406000206000915090508054611b4b906147ee565b80601f0160208091040260200160405190810160405280929190818152602001828054611b77906147ee565b8015611bc45780601f10611b9957610100808354040283529160200191611bc4565b820191906000526020600020905b815481529060010190602001808311611ba757829003601f168201915b505050505081565b336000600860008373ffffffffffffffffffffffffffffffffffffffff1673ffffffffffffffffffffffffffffffffffffffff1681526020019081526020016000206040518060800160405290816000820160009054906101000a900473ffffffffffffffffffffffffffffffffffffffff1673ffffffffffffffffffffffffffffffffffffffff1673ffffffffffffffffffffffffffffffffffffffff168152602001600182018054611c7f906147ee565b80601f0160208091040260200160405190810160405280929190818152602001828054611cab906147ee565b8015611cf85780601f10611ccd57610100808354040283529160200191611cf8565b820191906000526020600020905b815481529060010190602001808311611cdb57829003601f168201915b50505050508152602001600282018054611d11906147ee565b80601f0160208091040260200160405190810160405280929190818152602001828054611d3d906147ee565b8015611d8a5780601f10611d5f57610100808354040283529160200191611d8a565b820191906000526020600020905b815481529060010190602001808311611d6d57829003601f168201915b505050505081526020016003820154815250509050600073ffffffffffffffffffffffffffffffffffffffff16816000015173ffffffffffffffffffffffffffffffffffffffff1603611e1457816040517f5d35c429000000000000000000000000000000000000000000000000000000008152600401611e0b919061482e565b60405180910390fd5b8585600860003373ffffffffffffffffffffffffffffffffffffffff1673ffffffffffffffffffffffffffffffffffffffff1681526020019081526020016000206001019182611e65929190614f29565b508383600860003373ffffffffffffffffffffffffffffffffffffffff1673ffffffffffffffffffffffffffffffffffffffff1681526020019081526020016000206002019182611eb7929190614f29565b503373ffffffffffffffffffffffffffffffffffffffff167fa2e1d286e25c6fce64acccdfd7a54d53cce2f617ddff648ab1dbb3458ccdd95b87878787604051611f049493929190615026565b60405180910390a2505050505050565b336000600860008373ffffffffffffffffffffffffffffffffffffffff1673ffffffffffffffffffffffffffffffffffffffff1681526020019081526020016000206040518060800160405290816000820160009054906101000a900473ffffffffffffffffffffffffffffffffffffffff1673ffffffffffffffffffffffffffffffffffffffff1673ffffffffffffffffffffffffffffffffffffffff168152602001600182018054611fc7906147ee565b80601f0160208091040260200160405190810160405280929190818152602001828054611ff3906147ee565b80156120405780601f1061201557610100808354040283529160200191612040565b820191906000526020600020905b81548152906001019060200180831161202357829003601f168201915b50505050508152602001600282018054612059906147ee565b80601f0160208091040260200160405190810160405280929190818152602001828054612085906147ee565b80156120d25780601f106120a7576101008083540402835291602001916120d2565b820191906000526020600020905b8154815290600101906020018083116120b557829003601f168201915b505050505081526020016003820154815250509050600073ffffffffffffffffffffffffffffffffffffffff16816000015173ffffffffffffffffffffffffffffffffffffffff161461215c57816040517f19cd4595000000000000000000000000000000000000000000000000000000008152600401612153919061482e565b60405180910390fd5b60405180608001604052803373ffffffffffffffffffffffffffffffffffffffff16815260200187878080601f016020809104026020016040519081016040528093929190818152602001838380828437600081840152601f19601f82011690508083019250505050505050815260200185858080601f016020809104026020016040519081016040528093929190818152602001838380828437600081840152601f19601f8201169050808301925050505050505081526020016000815250600860003373ffffffffffffffffffffffffffffffffffffffff1673ffffffffffffffffffffffffffffffffffffffff16815260200190815260200160002060008201518160000160006101000a81548173ffffffffffffffffffffffffffffffffffffffff021916908373ffffffffffffffffffffffffffffffffffffffff16021790555060208201518160010190816122b79190615061565b5060408201518160020190816122cd9190615061565b50606082015181600301559050503373ffffffffffffffffffffffffffffffffffffffff167fa2e1d286e25c6fce64acccdfd7a54d53cce2f617ddff648ab1dbb3458ccdd95b878787876040516123279493929190615026565b60405180910390a2505050505050565b6000600860008373ffffffffffffffffffffffffffffffffffffffff1673ffffffffffffffffffffffffffffffffffffffff168152602001908152602001600020600301549050919050565b6000600260008473ffffffffffffffffffffffffffffffffffffffff1673ffffffffffffffffffffffffffffffffffffffff16815260200190815260200160002060008373ffffffffffffffffffffffffffffffffffffffff1673ffffffffffffffffffffffffffffffffffffffff16815260200190815260200160002060009054906101000a900460ff16905092915050565b600080600860003373ffffffffffffffffffffffffffffffffffffffff1673ffffffffffffffffffffffffffffffffffffffff1681526020019081526020016000206040518060800160405290816000820160009054906101000a900473ffffffffffffffffffffffffffffffffffffffff1673ffffffffffffffffffffffffffffffffffffffff1673ffffffffffffffffffffffffffffffffffffffff1681526020016001820180546124ca906147ee565b80601f01602080910402602001604051908101604052809291908181526020018280546124f6906147ee565b80156125435780601f1061251857610100808354040283529160200191612543565b820191906000526020600020905b81548152906001019060200180831161252657829003601f168201915b5050505050815260200160028201805461255c906147ee565b80601f0160208091040260200160405190810160405280929190818152602001828054612588906147ee565b80156125d55780601f106125aa576101008083540402835291602001916125d5565b820191906000526020600020905b8154815290600101906020018083116125b857829003601f168201915b505050505081526020016003820154815250509050600073ffffffffffffffffffffffffffffffffffffffff16816000015173ffffffffffffffffffffffffffffffffffffffff160361262c576000915050612632565b60019150505b90565b61263d6127d9565b73ffffffffffffffffffffffffffffffffffffffff168573ffffffffffffffffffffffffffffffffffffffff16148061268357506126828561267d6127d9565b612383565b5b6126c2576040517f08c379a00000000000000000000000000000000000000000000000000000000081526004016126b990614b7c565b60405180910390fd5b6126cf8585858585613367565b5050505050565b61276c816040516024016126ea9190613d51565b6040516020818303038152906040527f41304fac000000000000000000000000000000000000000000000000000000007bffffffffffffffffffffffffffffffffffffffffffffffffffffffff19166020820180517bffffffffffffffffffffffffffffffffffffffffffffffffffffffff8381831617835250505050613605565b50565b60007f01ffc9a7000000000000000000000000000000000000000000000000000000007bffffffffffffffffffffffffffffffffffffffffffffffffffffffff1916827bffffffffffffffffffffffffffffffffffffffffffffffffffffffff1916149050919050565b600033905090565b8151835114612825576040517f08c379a000000000000000000000000000000000000000000000000000000000815260040161281c906151a5565b60405180910390fd5b600073ffffffffffffffffffffffffffffffffffffffff168473ffffffffffffffffffffffffffffffffffffffff1603612894576040517f08c379a000000000000000000000000000000000000000000000000000000000815260040161288b90615237565b60405180910390fd5b600061289e6127d9565b90506128ae81878787878761362e565b60005b8451811015612a625760008582815181106128cf576128ce61494f565b5b6020026020010151905060008583815181106128ee576128ed61494f565b5b6020026020010151905060006001600084815260200190815260200160002060008b73ffffffffffffffffffffffffffffffffffffffff1673ffffffffffffffffffffffffffffffffffffffff16815260200190815260200160002054905081811015612990576040517f08c379a0000000000000000000000000000000000000000000000000000000008152600401612987906152c9565b60405180910390fd5b8181036001600085815260200190815260200160002060008c73ffffffffffffffffffffffffffffffffffffffff1673ffffffffffffffffffffffffffffffffffffffff16815260200190815260200160002081905550816001600085815260200190815260200160002060008b73ffffffffffffffffffffffffffffffffffffffff1673ffffffffffffffffffffffffffffffffffffffff1681526020019081526020016000206000828254612a47919061491b565b9250508190555050505080612a5b9061497e565b90506128b1565b508473ffffffffffffffffffffffffffffffffffffffff168673ffffffffffffffffffffffffffffffffffffffff168273ffffffffffffffffffffffffffffffffffffffff167f4a39dc06d4c0dbc64b70af90fd698a233a518aa5d07e595d983b8c0526c8f7fb8787604051612ad99291906152e9565b60405180910390a4612aef818787878787613636565b612afd81878787878761363e565b505050505050565b6001816000016000828254019250508190555050565b600081600001549050919050565b600073ffffffffffffffffffffffffffffffffffffffff168473ffffffffffffffffffffffffffffffffffffffff1603612b98576040517f08c379a0000000000000000000000000000000000000000000000000000000008152600401612b8f90615392565b60405180910390fd5b6000612ba26127d9565b90506000612baf85613815565b90506000612bbc85613815565b9050612bcd8360008985858961362e565b846001600088815260200190815260200160002060008973ffffffffffffffffffffffffffffffffffffffff1673ffffffffffffffffffffffffffffffffffffffff1681526020019081526020016000206000828254612c2d919061491b565b925050819055508673ffffffffffffffffffffffffffffffffffffffff16600073ffffffffffffffffffffffffffffffffffffffff168473ffffffffffffffffffffffffffffffffffffffff167fc3d58168c5ae7397731d063d5bbf3d657854427343f4c083240f7aacaa2d0f628989604051612cab9291906153b2565b60405180910390a4612cc283600089858589613636565b612cd18360008989898961388f565b50505050505050565b80600760008481526020019081526020016000209081612cfa9190615061565b505050565b336000600860008373ffffffffffffffffffffffffffffffffffffffff1673ffffffffffffffffffffffffffffffffffffffff1681526020019081526020016000206040518060800160405290816000820160009054906101000a900473ffffffffffffffffffffffffffffffffffffffff1673ffffffffffffffffffffffffffffffffffffffff1673ffffffffffffffffffffffffffffffffffffffff168152602001600182018054612db2906147ee565b80601f0160208091040260200160405190810160405280929190818152602001828054612dde906147ee565b8015612e2b5780601f10612e0057610100808354040283529160200191612e2b565b820191906000526020600020905b815481529060010190602001808311612e0e57829003601f168201915b50505050508152602001600282018054612e44906147ee565b80601f0160208091040260200160405190810160405280929190818152602001828054612e70906147ee565b8015612ebd5780601f10612e9257610100808354040283529160200191612ebd565b820191906000526020600020905b815481529060010190602001808311612ea057829003601f168201915b505050505081526020016003820154815250509050600073ffffffffffffffffffffffffffffffffffffffff16816000015173ffffffffffffffffffffffffffffffffffffffff1603612f4757816040517f5d35c429000000000000000000000000000000000000000000000000000000008152600401612f3e919061482e565b60405180910390fd5b6005600960003373ffffffffffffffffffffffffffffffffffffffff1673ffffffffffffffffffffffffffffffffffffffff1681526020019081526020016000208054905010612fcc576040517f08c379a0000000000000000000000000000000000000000000000000000000008152600401612fc390614ce6565b60405180910390fd5b61300a6040518060400160405280600e81526020017f697320697420676f20686572653f0000000000000000000000000000000000008152506126d6565b600960003373ffffffffffffffffffffffffffffffffffffffff1673ffffffffffffffffffffffffffffffffffffffff16815260200190815260200160002060405180606001604052808581526020018773ffffffffffffffffffffffffffffffffffffffff1681526020018681525090806001815401808255809150506001900390600052602060002090600302016000909190919091506000820151816000015560208201518160010160006101000a81548173ffffffffffffffffffffffffffffffffffffffff021916908373ffffffffffffffffffffffffffffffffffffffff16021790555060408201518160020155505061313e6040518060400160405280600b81526020017f726561636820686572653f0000000000000000000000000000000000000000008152506126d6565b5050505050565b8173ffffffffffffffffffffffffffffffffffffffff168373ffffffffffffffffffffffffffffffffffffffff16036131b3576040517f08c379a00000000000000000000000000000000000000000000000000000000081526004016131aa9061544d565b60405180910390fd5b80600260008573ffffffffffffffffffffffffffffffffffffffff1673ffffffffffffffffffffffffffffffffffffffff16815260200190815260200160002060008473ffffffffffffffffffffffffffffffffffffffff1673ffffffffffffffffffffffffffffffffffffffff16815260200190815260200160002060006101000a81548160ff0219169083151502179055508173ffffffffffffffffffffffffffffffffffffffff168373ffffffffffffffffffffffffffffffffffffffff167f17307eab39ab6107e8899845ad3d59bd9653f200f220920489ca2b5937696c31836040516132a49190613ca6565b60405180910390a3505050565b6001600a60003373ffffffffffffffffffffffffffffffffffffffff1673ffffffffffffffffffffffffffffffffffffffff16815260200190815260200160002060008473ffffffffffffffffffffffffffffffffffffffff1673ffffffffffffffffffffffffffffffffffffffff16815260200190815260200160002060020182600581106133445761334361494f565b5b602091828204019190066101000a81548160ff0219169083151502179055505050565b600073ffffffffffffffffffffffffffffffffffffffff168473ffffffffffffffffffffffffffffffffffffffff16036133d6576040517f08c379a00000000000000000000000000000000000000000000000000000000081526004016133cd90615237565b60405180910390fd5b60006133e06127d9565b905060006133ed85613815565b905060006133fa85613815565b905061340a83898985858961362e565b60006001600088815260200190815260200160002060008a73ffffffffffffffffffffffffffffffffffffffff1673ffffffffffffffffffffffffffffffffffffffff168152602001908152602001600020549050858110156134a2576040517f08c379a0000000000000000000000000000000000000000000000000000000008152600401613499906152c9565b60405180910390fd5b8581036001600089815260200190815260200160002060008b73ffffffffffffffffffffffffffffffffffffffff1673ffffffffffffffffffffffffffffffffffffffff16815260200190815260200160002081905550856001600089815260200190815260200160002060008a73ffffffffffffffffffffffffffffffffffffffff1673ffffffffffffffffffffffffffffffffffffffff1681526020019081526020016000206000828254613559919061491b565b925050819055508773ffffffffffffffffffffffffffffffffffffffff168973ffffffffffffffffffffffffffffffffffffffff168573ffffffffffffffffffffffffffffffffffffffff167fc3d58168c5ae7397731d063d5bbf3d657854427343f4c083240f7aacaa2d0f628a8a6040516135d69291906153b2565b60405180910390a46135ec848a8a86868a613636565b6135fa848a8a8a8a8a61388f565b505050505050505050565b60008151905060006a636f6e736f6c652e6c6f679050602083016000808483855afa5050505050565b505050505050565b505050505050565b61365d8473ffffffffffffffffffffffffffffffffffffffff16613a66565b1561380d578373ffffffffffffffffffffffffffffffffffffffff1663bc197c8187878686866040518663ffffffff1660e01b81526004016136a39594939291906154c2565b6020604051808303816000875af19250505080156136df57506040513d601f19601f820116820180604052508101906136dc919061553f565b60015b613784576136eb615579565b806308c379a00361374757506136ff61559b565b8061370a5750613749565b806040517f08c379a000000000000000000000000000000000000000000000000000000000815260040161373e9190613d51565b60405180910390fd5b505b6040517f08c379a000000000000000000000000000000000000000000000000000000000815260040161377b9061569d565b60405180910390fd5b63bc197c8160e01b7bffffffffffffffffffffffffffffffffffffffffffffffffffffffff1916817bffffffffffffffffffffffffffffffffffffffffffffffffffffffff19161461380b576040517f08c379a00000000000000000000000000000000000000000000000000000000081526004016138029061572f565b60405180910390fd5b505b505050505050565b60606000600167ffffffffffffffff81111561383457613833613ed3565b5b6040519080825280602002602001820160405280156138625781602001602082028036833780820191505090505b509050828160008151811061387a5761387961494f565b5b60200260200101818152505080915050919050565b6138ae8473ffffffffffffffffffffffffffffffffffffffff16613a66565b15613a5e578373ffffffffffffffffffffffffffffffffffffffff1663f23a6e6187878686866040518663ffffffff1660e01b81526004016138f495949392919061574f565b6020604051808303816000875af192505050801561393057506040513d601f19601f8201168201806040525081019061392d919061553f565b60015b6139d55761393c615579565b806308c379a003613998575061395061559b565b8061395b575061399a565b806040517f08c379a000000000000000000000000000000000000000000000000000000000815260040161398f9190613d51565b60405180910390fd5b505b6040517f08c379a00000000000000000000000000000000000000000000000000000000081526004016139cc9061569d565b60405180910390fd5b63f23a6e6160e01b7bffffffffffffffffffffffffffffffffffffffffffffffffffffffff1916817bffffffffffffffffffffffffffffffffffffffffffffffffffffffff191614613a5c576040517f08c379a0000000000000000000000000000000000000000000000000000000008152600401613a539061572f565b60405180910390fd5b505b505050505050565b6000808273ffffffffffffffffffffffffffffffffffffffff163b119050919050565b6040518060800160405280600073ffffffffffffffffffffffffffffffffffffffff1681526020016060815260200160608152602001600081525090565b6000604051905090565b600080fd5b600080fd5b600073ffffffffffffffffffffffffffffffffffffffff82169050919050565b6000613b0682613adb565b9050919050565b613b1681613afb565b8114613b2157600080fd5b50565b600081359050613b3381613b0d565b92915050565b600060208284031215613b4f57613b4e613ad1565b5b6000613b5d84828501613b24565b91505092915050565b6000819050919050565b613b7981613b66565b8114613b8457600080fd5b50565b600081359050613b9681613b70565b92915050565b60008060408385031215613bb357613bb2613ad1565b5b6000613bc185828601613b24565b9250506020613bd285828601613b87565b9150509250929050565b613be581613b66565b82525050565b6000602082019050613c006000830184613bdc565b92915050565b60007fffffffff0000000000000000000000000000000000000000000000000000000082169050919050565b613c3b81613c06565b8114613c4657600080fd5b50565b600081359050613c5881613c32565b92915050565b600060208284031215613c7457613c73613ad1565b5b6000613c8284828501613c49565b91505092915050565b60008115159050919050565b613ca081613c8b565b82525050565b6000602082019050613cbb6000830184613c97565b92915050565b600081519050919050565b600082825260208201905092915050565b60005b83811015613cfb578082015181840152602081019050613ce0565b60008484015250505050565b6000601f19601f8301169050919050565b6000613d2382613cc1565b613d2d8185613ccc565b9350613d3d818560208601613cdd565b613d4681613d07565b840191505092915050565b60006020820190508181036000830152613d6b8184613d18565b905092915050565b600060208284031215613d8957613d88613ad1565b5b6000613d9784828501613b87565b91505092915050565b600081519050919050565b600082825260208201905092915050565b6000819050602082019050919050565b600082825260208201905092915050565b6000613de882613cc1565b613df28185613dcc565b9350613e02818560208601613cdd565b613e0b81613d07565b840191505092915050565b6000613e228383613ddd565b905092915050565b6000602082019050919050565b6000613e4282613da0565b613e4c8185613dab565b935083602082028501613e5e85613dbc565b8060005b85811015613e9a5784840389528151613e7b8582613e16565b9450613e8683613e2a565b925060208a01995050600181019050613e62565b50829750879550505050505092915050565b60006020820190508181036000830152613ec68184613e37565b905092915050565b600080fd5b7f4e487b7100000000000000000000000000000000000000000000000000000000600052604160045260246000fd5b613f0b82613d07565b810181811067ffffffffffffffff82111715613f2a57613f29613ed3565b5b80604052505050565b6000613f3d613ac7565b9050613f498282613f02565b919050565b600067ffffffffffffffff821115613f6957613f68613ed3565b5b602082029050602081019050919050565b600080fd5b6000613f92613f8d84613f4e565b613f33565b90508083825260208201905060208402830185811115613fb557613fb4613f7a565b5b835b81811015613fde5780613fca8882613b87565b845260208401935050602081019050613fb7565b5050509392505050565b600082601f830112613ffd57613ffc613ece565b5b813561400d848260208601613f7f565b91505092915050565b600080fd5b600067ffffffffffffffff82111561403657614035613ed3565b5b61403f82613d07565b9050602081019050919050565b82818337600083830152505050565b600061406e6140698461401b565b613f33565b90508281526020810184848401111561408a57614089614016565b5b61409584828561404c565b509392505050565b600082601f8301126140b2576140b1613ece565b5b81356140c284826020860161405b565b91505092915050565b600080600080600060a086880312156140e7576140e6613ad1565b5b60006140f588828901613b24565b955050602061410688828901613b24565b945050604086013567ffffffffffffffff81111561412757614126613ad6565b5b61413388828901613fe8565b935050606086013567ffffffffffffffff81111561415457614153613ad6565b5b61416088828901613fe8565b925050608086013567ffffffffffffffff81111561418157614180613ad6565b5b61418d8882890161409d565b9150509295509295909350565b600067ffffffffffffffff8211156141b5576141b4613ed3565b5b602082029050602081019050919050565b60006141d96141d48461419a565b613f33565b905080838252602082019050602084028301858111156141fc576141fb613f7a565b5b835b8181101561422557806142118882613b24565b8452602084019350506020810190506141fe565b5050509392505050565b600082601f83011261424457614243613ece565b5b81356142548482602086016141c6565b91505092915050565b6000806040838503121561427457614273613ad1565b5b600083013567ffffffffffffffff81111561429257614291613ad6565b5b61429e8582860161422f565b925050602083013567ffffffffffffffff8111156142bf576142be613ad6565b5b6142cb85828601613fe8565b9150509250929050565b600081519050919050565b600082825260208201905092915050565b6000819050602082019050919050565b61430a81613b66565b82525050565b600061431c8383614301565b60208301905092915050565b6000602082019050919050565b6000614340826142d5565b61434a81856142e0565b9350614355836142f1565b8060005b8381101561438657815161436d8882614310565b975061437883614328565b925050600181019050614359565b5085935050505092915050565b600060208201905081810360008301526143ad8184614335565b905092915050565b600067ffffffffffffffff8211156143d0576143cf613ed3565b5b6143d982613d07565b9050602081019050919050565b60006143f96143f4846143b5565b613f33565b90508281526020810184848401111561441557614414614016565b5b61442084828561404c565b509392505050565b600082601f83011261443d5761443c613ece565b5b813561444d8482602086016143e6565b91505092915050565b6000806040838503121561446d5761446c613ad1565b5b600083013567ffffffffffffffff81111561448b5761448a613ad6565b5b61449785828601614428565b92505060206144a885828601613b87565b9150509250929050565b6144bb81613afb565b82525050565b60006080830160008301516144d960008601826144b2565b50602083015184820360208601526144f18282613ddd565b9150506040830151848203604086015261450b8282613ddd565b91505060608301516145206060860182614301565b508091505092915050565b6000602082019050818103600083015261454581846144c1565b905092915050565b61455681613c8b565b811461456157600080fd5b50565b6000813590506145738161454d565b92915050565b600080604083850312156145905761458f613ad1565b5b600061459e85828601613b24565b92505060206145af85828601614564565b9150509250929050565b6000806000606084860312156145d2576145d1613ad1565b5b60006145e086828701613b24565b93505060206145f186828701613b24565b925050604061460286828701613b87565b9150509250925092565b600080fd5b60008083601f84011261462757614626613ece565b5b8235905067ffffffffffffffff8111156146445761464361460c565b5b6020830191508360018202830111156146605761465f613f7a565b5b9250929050565b6000806000806040858703121561468157614680613ad1565b5b600085013567ffffffffffffffff81111561469f5761469e613ad6565b5b6146ab87828801614611565b9450945050602085013567ffffffffffffffff8111156146ce576146cd613ad6565b5b6146da87828801614611565b925092505092959194509250565b600080604083850312156146ff576146fe613ad1565b5b600061470d85828601613b24565b925050602061471e85828601613b24565b9150509250929050565b600080600080600060a0868803121561474457614743613ad1565b5b600061475288828901613b24565b955050602061476388828901613b24565b945050604061477488828901613b87565b935050606061478588828901613b87565b925050608086013567ffffffffffffffff8111156147a6576147a5613ad6565b5b6147b28882890161409d565b9150509295509295909350565b7f4e487b7100000000000000000000000000000000000000000000000000000000600052602260045260246000fd5b6000600282049050600182168061480657607f821691505b602082108103614819576148186147bf565b5b50919050565b61482881613afb565b82525050565b6000602082019050614843600083018461481f565b92915050565b7f5265656e7472616e637947756172643a207265656e7472616e742063616c6c00600082015250565b600061487f601f83613ccc565b915061488a82614849565b602082019050919050565b600060208201905081810360008301526148ae81614872565b9050919050565b60006060820190506148ca600083018661481f565b6148d7602083018561481f565b6148e46040830184613bdc565b949350505050565b7f4e487b7100000000000000000000000000000000000000000000000000000000600052601160045260246000fd5b600061492682613b66565b915061493183613b66565b9250828201905080821115614949576149486148ec565b5b92915050565b7f4e487b7100000000000000000000000000000000000000000000000000000000600052603260045260246000fd5b600061498982613b66565b91507fffffffffffffffffffffffffffffffffffffffffffffffffffffffffffffffff82036149bb576149ba6148ec565b5b600182019050919050565b7f455243313135353a2061646472657373207a65726f206973206e6f742061207660008201527f616c6964206f776e657200000000000000000000000000000000000000000000602082015250565b6000614a22602a83613ccc565b9150614a2d826149c6565b604082019050919050565b60006020820190508181036000830152614a5181614a15565b9050919050565b600081905092915050565b50565b6000614a73600083614a58565b9150614a7e82614a63565b600082019050919050565b6000614a9482614a66565b9150819050919050565b7f5472616e73666572206661696c65640000000000000000000000000000000000600082015250565b6000614ad4600f83613ccc565b9150614adf82614a9e565b602082019050919050565b60006020820190508181036000830152614b0381614ac7565b9050919050565b7f455243313135353a2063616c6c6572206973206e6f7420746f6b656e206f776e60008201527f6572206e6f7220617070726f7665640000000000000000000000000000000000602082015250565b6000614b66602f83613ccc565b9150614b7182614b0a565b604082019050919050565b60006020820190508181036000830152614b9581614b59565b9050919050565b7f455243313135353a206163636f756e747320616e6420696473206c656e67746860008201527f206d69736d617463680000000000000000000000000000000000000000000000602082015250565b6000614bf8602983613ccc565b9150614c0382614b9c565b604082019050919050565b60006020820190508181036000830152614c2781614beb565b9050919050565b7f4e6f7420612063726561746f722c207265676973746572206669727374000000600082015250565b6000614c64601d83613ccc565b9150614c6f82614c2e565b602082019050919050565b60006020820190508181036000830152614c9381614c57565b9050919050565b7f596f75207265616368206c696d6974206f66206d696c6573746f6e6500000000600082015250565b6000614cd0601c83613ccc565b9150614cdb82614c9a565b602082019050919050565b60006020820190508181036000830152614cff81614cc3565b9050919050565b7f596f7520617265206e6f7420656c6c696769626c650000000000000000000000600082015250565b6000614d3c601583613ccc565b9150614d4782614d06565b602082019050919050565b60006020820190508181036000830152614d6b81614d2f565b9050919050565b600082905092915050565b60008190508160005260206000209050919050565b60006020601f8301049050919050565b600082821b905092915050565b600060088302614ddf7fffffffffffffffffffffffffffffffffffffffffffffffffffffffffffffffff82614da2565b614de98683614da2565b95508019841693508086168417925050509392505050565b6000819050919050565b6000614e26614e21614e1c84613b66565b614e01565b613b66565b9050919050565b6000819050919050565b614e4083614e0b565b614e54614e4c82614e2d565b848454614daf565b825550505050565b600090565b614e69614e5c565b614e74818484614e37565b505050565b5b81811015614e9857614e8d600082614e61565b600181019050614e7a565b5050565b601f821115614edd57614eae81614d7d565b614eb784614d92565b81016020851015614ec6578190505b614eda614ed285614d92565b830182614e79565b50505b505050565b600082821c905092915050565b6000614f0060001984600802614ee2565b1980831691505092915050565b6000614f198383614eef565b9150826002028217905092915050565b614f338383614d72565b67ffffffffffffffff811115614f4c57614f4b613ed3565b5b614f5682546147ee565b614f61828285614e9c565b6000601f831160018114614f905760008415614f7e578287013590505b614f888582614f0d565b865550614ff0565b601f198416614f9e86614d7d565b60005b82811015614fc657848901358255600182019150602085019450602081019050614fa1565b86831015614fe35784890135614fdf601f891682614eef565b8355505b6001600288020188555050505b50505050505050565b60006150058385613ccc565b935061501283858461404c565b61501b83613d07565b840190509392505050565b60006040820190508181036000830152615041818688614ff9565b90508181036020830152615056818486614ff9565b905095945050505050565b61506a82613cc1565b67ffffffffffffffff81111561508357615082613ed3565b5b61508d82546147ee565b615098828285614e9c565b600060209050601f8311600181146150cb57600084156150b9578287015190505b6150c38582614f0d565b86555061512b565b601f1984166150d986614d7d565b60005b82811015615101578489015182556001820191506020850194506020810190506150dc565b8683101561511e578489015161511a601f891682614eef565b8355505b6001600288020188555050505b505050505050565b7f455243313135353a2069647320616e6420616d6f756e7473206c656e6774682060008201527f6d69736d61746368000000000000000000000000000000000000000000000000602082015250565b600061518f602883613ccc565b915061519a82615133565b604082019050919050565b600060208201905081810360008301526151be81615182565b9050919050565b7f455243313135353a207472616e7366657220746f20746865207a65726f20616460008201527f6472657373000000000000000000000000000000000000000000000000000000602082015250565b6000615221602583613ccc565b915061522c826151c5565b604082019050919050565b6000602082019050818103600083015261525081615214565b9050919050565b7f455243313135353a20696e73756666696369656e742062616c616e636520666f60008201527f72207472616e7366657200000000000000000000000000000000000000000000602082015250565b60006152b3602a83613ccc565b91506152be82615257565b604082019050919050565b600060208201905081810360008301526152e2816152a6565b9050919050565b600060408201905081810360008301526153038185614335565b905081810360208301526153178184614335565b90509392505050565b7f455243313135353a206d696e7420746f20746865207a65726f2061646472657360008201527f7300000000000000000000000000000000000000000000000000000000000000602082015250565b600061537c602183613ccc565b915061538782615320565b604082019050919050565b600060208201905081810360008301526153ab8161536f565b9050919050565b60006040820190506153c76000830185613bdc565b6153d46020830184613bdc565b9392505050565b7f455243313135353a2073657474696e6720617070726f76616c2073746174757360008201527f20666f722073656c660000000000000000000000000000000000000000000000602082015250565b6000615437602983613ccc565b9150615442826153db565b604082019050919050565b600060208201905081810360008301526154668161542a565b9050919050565b600081519050919050565b600082825260208201905092915050565b60006154948261546d565b61549e8185615478565b93506154ae818560208601613cdd565b6154b781613d07565b840191505092915050565b600060a0820190506154d7600083018861481f565b6154e4602083018761481f565b81810360408301526154f68186614335565b9050818103606083015261550a8185614335565b9050818103608083015261551e8184615489565b90509695505050505050565b60008151905061553981613c32565b92915050565b60006020828403121561555557615554613ad1565b5b60006155638482850161552a565b91505092915050565b60008160e01c9050919050565b600060033d11156155985760046000803e61559560005161556c565b90505b90565b600060443d10615628576155ad613ac7565b60043d036004823e80513d602482011167ffffffffffffffff821117156155d5575050615628565b808201805167ffffffffffffffff8111156155f35750505050615628565b80602083010160043d038501811115615610575050505050615628565b61561f82602001850186613f02565b82955050505050505b90565b7f455243313135353a207472616e7366657220746f206e6f6e204552433131353560008201527f526563656976657220696d706c656d656e746572000000000000000000000000602082015250565b6000615687603483613ccc565b91506156928261562b565b604082019050919050565b600060208201905081810360008301526156b68161567a565b9050919050565b7f455243313135353a204552433131353552656365697665722072656a6563746560008201527f6420746f6b656e73000000000000000000000000000000000000000000000000602082015250565b6000615719602883613ccc565b9150615724826156bd565b604082019050919050565b600060208201905081810360008301526157488161570c565b9050919050565b600060a082019050615764600083018861481f565b615771602083018761481f565b61577e6040830186613bdc565b61578b6060830185613bdc565b818103608083015261579d8184615489565b9050969550505050505056fea2646970667358221220f74b548612971a28a35d907d494fe3f767f442a7a7e34c22495c837617c91e4d64736f6c63430008110033",
  "devdoc": {
    "kind": "dev",
    "methods": {
      "balanceOf(address,uint256)": {
        "details": "See {IERC1155-balanceOf}. Requirements: - `account` cannot be the zero address."
      },
      "balanceOfBatch(address[],uint256[])": {
        "details": "See {IERC1155-balanceOfBatch}. Requirements: - `accounts` and `ids` must have the same length."
      },
      "isApprovedForAll(address,address)": {
        "details": "See {IERC1155-isApprovedForAll}."
      },
      "safeBatchTransferFrom(address,address,uint256[],uint256[],bytes)": {
        "details": "See {IERC1155-safeBatchTransferFrom}."
      },
      "safeTransferFrom(address,address,uint256,uint256,bytes)": {
        "details": "See {IERC1155-safeTransferFrom}."
      },
      "setApprovalForAll(address,bool)": {
        "details": "See {IERC1155-setApprovalForAll}."
      },
      "supportsInterface(bytes4)": {
        "details": "See {IERC165-supportsInterface}."
      }
    },
    "version": 1
  },
  "userdoc": {
    "kind": "user",
    "methods": {},
    "version": 1
  },
  "storageLayout": {
    "storage": [
      {
        "astId": 10,
        "contract": "contracts/MilestoneNFTv2.sol:MilestoneNFTv2",
        "label": "_status",
        "offset": 0,
        "slot": "0",
        "type": "t_uint256"
      },
      {
        "astId": 65,
        "contract": "contracts/MilestoneNFTv2.sol:MilestoneNFTv2",
        "label": "_balances",
        "offset": 0,
        "slot": "1",
        "type": "t_mapping(t_uint256,t_mapping(t_address,t_uint256))"
      },
      {
        "astId": 71,
        "contract": "contracts/MilestoneNFTv2.sol:MilestoneNFTv2",
        "label": "_operatorApprovals",
        "offset": 0,
        "slot": "2",
        "type": "t_mapping(t_address,t_mapping(t_address,t_bool))"
      },
      {
        "astId": 73,
        "contract": "contracts/MilestoneNFTv2.sol:MilestoneNFTv2",
        "label": "_uri",
        "offset": 0,
        "slot": "3",
        "type": "t_string_storage"
      },
      {
        "astId": 1922,
        "contract": "contracts/MilestoneNFTv2.sol:MilestoneNFTv2",
        "label": "_tokenIds",
        "offset": 0,
        "slot": "4",
        "type": "t_struct(Counter)1763_storage"
      },
      {
        "astId": 1924,
        "contract": "contracts/MilestoneNFTv2.sol:MilestoneNFTv2",
        "label": "name",
        "offset": 0,
        "slot": "5",
        "type": "t_string_storage"
      },
      {
        "astId": 1926,
        "contract": "contracts/MilestoneNFTv2.sol:MilestoneNFTv2",
        "label": "symbol",
        "offset": 0,
        "slot": "6",
        "type": "t_string_storage"
      },
      {
        "astId": 1930,
        "contract": "contracts/MilestoneNFTv2.sol:MilestoneNFTv2",
        "label": "tokenURI",
        "offset": 0,
        "slot": "7",
        "type": "t_mapping(t_uint256,t_string_storage)"
      },
      {
        "astId": 1996,
        "contract": "contracts/MilestoneNFTv2.sol:MilestoneNFTv2",
        "label": "s_creators",
        "offset": 0,
        "slot": "8",
        "type": "t_mapping(t_address,t_struct(Creator)1939_storage)"
      },
      {
        "astId": 2002,
        "contract": "contracts/MilestoneNFTv2.sol:MilestoneNFTv2",
        "label": "s_milestoneArray",
        "offset": 0,
        "slot": "9",
        "type": "t_mapping(t_address,t_array(t_struct(Milestone)1946_storage)dyn_storage)"
      },
      {
        "astId": 2009,
        "contract": "contracts/MilestoneNFTv2.sol:MilestoneNFTv2",
        "label": "s_donators",
        "offset": 0,
        "slot": "10",
        "type": "t_mapping(t_address,t_mapping(t_address,t_struct(MilestonePerDonator)1957_storage))"
      }
    ],
    "types": {
      "t_address": {
        "encoding": "inplace",
        "label": "address",
        "numberOfBytes": "20"
      },
      "t_array(t_bool)5_storage": {
        "base": "t_bool",
        "encoding": "inplace",
        "label": "bool[5]",
        "numberOfBytes": "32"
      },
      "t_array(t_struct(Milestone)1946_storage)dyn_storage": {
        "base": "t_struct(Milestone)1946_storage",
        "encoding": "dynamic_array",
        "label": "struct MilestoneNFTv2.Milestone[]",
        "numberOfBytes": "32"
      },
      "t_bool": {
        "encoding": "inplace",
        "label": "bool",
        "numberOfBytes": "1"
      },
      "t_mapping(t_address,t_array(t_struct(Milestone)1946_storage)dyn_storage)": {
        "encoding": "mapping",
        "key": "t_address",
        "label": "mapping(address => struct MilestoneNFTv2.Milestone[])",
        "numberOfBytes": "32",
        "value": "t_array(t_struct(Milestone)1946_storage)dyn_storage"
      },
      "t_mapping(t_address,t_bool)": {
        "encoding": "mapping",
        "key": "t_address",
        "label": "mapping(address => bool)",
        "numberOfBytes": "32",
        "value": "t_bool"
      },
      "t_mapping(t_address,t_mapping(t_address,t_bool))": {
        "encoding": "mapping",
        "key": "t_address",
        "label": "mapping(address => mapping(address => bool))",
        "numberOfBytes": "32",
        "value": "t_mapping(t_address,t_bool)"
      },
      "t_mapping(t_address,t_mapping(t_address,t_struct(MilestonePerDonator)1957_storage))": {
        "encoding": "mapping",
        "key": "t_address",
        "label": "mapping(address => mapping(address => struct MilestoneNFTv2.MilestonePerDonator))",
        "numberOfBytes": "32",
        "value": "t_mapping(t_address,t_struct(MilestonePerDonator)1957_storage)"
      },
      "t_mapping(t_address,t_struct(Creator)1939_storage)": {
        "encoding": "mapping",
        "key": "t_address",
        "label": "mapping(address => struct MilestoneNFTv2.Creator)",
        "numberOfBytes": "32",
        "value": "t_struct(Creator)1939_storage"
      },
      "t_mapping(t_address,t_struct(MilestonePerDonator)1957_storage)": {
        "encoding": "mapping",
        "key": "t_address",
        "label": "mapping(address => struct MilestoneNFTv2.MilestonePerDonator)",
        "numberOfBytes": "32",
        "value": "t_struct(MilestonePerDonator)1957_storage"
      },
      "t_mapping(t_address,t_uint256)": {
        "encoding": "mapping",
        "key": "t_address",
        "label": "mapping(address => uint256)",
        "numberOfBytes": "32",
        "value": "t_uint256"
      },
      "t_mapping(t_uint256,t_mapping(t_address,t_uint256))": {
        "encoding": "mapping",
        "key": "t_uint256",
        "label": "mapping(uint256 => mapping(address => uint256))",
        "numberOfBytes": "32",
        "value": "t_mapping(t_address,t_uint256)"
      },
      "t_mapping(t_uint256,t_string_storage)": {
        "encoding": "mapping",
        "key": "t_uint256",
        "label": "mapping(uint256 => string)",
        "numberOfBytes": "32",
        "value": "t_string_storage"
      },
      "t_string_storage": {
        "encoding": "bytes",
        "label": "string",
        "numberOfBytes": "32"
      },
      "t_struct(Counter)1763_storage": {
        "encoding": "inplace",
        "label": "struct Counters.Counter",
        "members": [
          {
            "astId": 1762,
            "contract": "contracts/MilestoneNFTv2.sol:MilestoneNFTv2",
            "label": "_value",
            "offset": 0,
            "slot": "0",
            "type": "t_uint256"
          }
        ],
        "numberOfBytes": "32"
      },
      "t_struct(Creator)1939_storage": {
        "encoding": "inplace",
        "label": "struct MilestoneNFTv2.Creator",
        "members": [
          {
            "astId": 1932,
            "contract": "contracts/MilestoneNFTv2.sol:MilestoneNFTv2",
            "label": "addr",
            "offset": 0,
            "slot": "0",
            "type": "t_address"
          },
          {
            "astId": 1934,
            "contract": "contracts/MilestoneNFTv2.sol:MilestoneNFTv2",
            "label": "name",
            "offset": 0,
            "slot": "1",
            "type": "t_string_storage"
          },
          {
            "astId": 1936,
            "contract": "contracts/MilestoneNFTv2.sol:MilestoneNFTv2",
            "label": "pic",
            "offset": 0,
            "slot": "2",
            "type": "t_string_storage"
          },
          {
            "astId": 1938,
            "contract": "contracts/MilestoneNFTv2.sol:MilestoneNFTv2",
            "label": "funds",
            "offset": 0,
            "slot": "3",
            "type": "t_uint256"
          }
        ],
        "numberOfBytes": "128"
      },
      "t_struct(Milestone)1946_storage": {
        "encoding": "inplace",
        "label": "struct MilestoneNFTv2.Milestone",
        "members": [
          {
            "astId": 1941,
            "contract": "contracts/MilestoneNFTv2.sol:MilestoneNFTv2",
            "label": "price",
            "offset": 0,
            "slot": "0",
            "type": "t_uint256"
          },
          {
            "astId": 1943,
            "contract": "contracts/MilestoneNFTv2.sol:MilestoneNFTv2",
            "label": "nftAddress",
            "offset": 0,
            "slot": "1",
            "type": "t_address"
          },
          {
            "astId": 1945,
            "contract": "contracts/MilestoneNFTv2.sol:MilestoneNFTv2",
            "label": "tokenId",
            "offset": 0,
            "slot": "2",
            "type": "t_uint256"
          }
        ],
        "numberOfBytes": "96"
      },
      "t_struct(MilestonePerDonator)1957_storage": {
        "encoding": "inplace",
        "label": "struct MilestoneNFTv2.MilestonePerDonator",
        "members": [
          {
            "astId": 1948,
            "contract": "contracts/MilestoneNFTv2.sol:MilestoneNFTv2",
            "label": "fund",
            "offset": 0,
            "slot": "0",
            "type": "t_uint256"
          },
          {
            "astId": 1952,
            "contract": "contracts/MilestoneNFTv2.sol:MilestoneNFTv2",
            "label": "status",
            "offset": 0,
            "slot": "1",
            "type": "t_array(t_bool)5_storage"
          },
          {
            "astId": 1956,
            "contract": "contracts/MilestoneNFTv2.sol:MilestoneNFTv2",
            "label": "minted",
            "offset": 0,
            "slot": "2",
            "type": "t_array(t_bool)5_storage"
          }
        ],
        "numberOfBytes": "96"
      },
      "t_uint256": {
        "encoding": "inplace",
        "label": "uint256",
        "numberOfBytes": "32"
      }
    }
  }
}